{
  "contractName": "DAOToken",
  "abi": [
    {
      "constant": true,
      "inputs": [],
      "name": "mintingFinished",
      "outputs": [
        {
          "name": "",
          "type": "bool"
        }
      ],
      "payable": false,
      "stateMutability": "view",
      "type": "function",
      "signature": "0x05d2035b"
    },
    {
      "constant": true,
      "inputs": [],
      "name": "name",
      "outputs": [
        {
          "name": "",
          "type": "string"
        }
      ],
      "payable": false,
      "stateMutability": "view",
      "type": "function",
      "signature": "0x06fdde03"
    },
    {
      "constant": false,
      "inputs": [
        {
          "name": "_spender",
          "type": "address"
        },
        {
          "name": "_value",
          "type": "uint256"
        }
      ],
      "name": "approve",
      "outputs": [
        {
          "name": "",
          "type": "bool"
        }
      ],
      "payable": false,
      "stateMutability": "nonpayable",
      "type": "function",
      "signature": "0x095ea7b3"
    },
    {
      "constant": true,
      "inputs": [],
      "name": "totalSupply",
      "outputs": [
        {
          "name": "",
          "type": "uint256"
        }
      ],
      "payable": false,
      "stateMutability": "view",
      "type": "function",
      "signature": "0x18160ddd"
    },
    {
      "constant": false,
      "inputs": [
        {
          "name": "_from",
          "type": "address"
        },
        {
          "name": "_to",
          "type": "address"
        },
        {
          "name": "_value",
          "type": "uint256"
        }
      ],
      "name": "transferFrom",
      "outputs": [
        {
          "name": "",
          "type": "bool"
        }
      ],
      "payable": false,
      "stateMutability": "nonpayable",
      "type": "function",
      "signature": "0x23b872dd"
    },
    {
      "constant": true,
      "inputs": [],
      "name": "decimals",
      "outputs": [
        {
          "name": "",
          "type": "uint8"
        }
      ],
      "payable": false,
      "stateMutability": "view",
      "type": "function",
      "signature": "0x313ce567"
    },
    {
      "constant": true,
      "inputs": [],
      "name": "cap",
      "outputs": [
        {
          "name": "",
          "type": "uint256"
        }
      ],
      "payable": false,
      "stateMutability": "view",
      "type": "function",
      "signature": "0x355274ea"
    },
    {
      "constant": false,
      "inputs": [
        {
          "name": "_to",
          "type": "address"
        },
        {
          "name": "_value",
          "type": "uint256"
        },
        {
          "name": "_data",
          "type": "bytes"
        }
      ],
      "name": "transferAndCall",
      "outputs": [
        {
          "name": "",
          "type": "bool"
        }
      ],
      "payable": true,
      "stateMutability": "payable",
      "type": "function",
      "signature": "0x4000aea0"
    },
    {
      "constant": false,
      "inputs": [
        {
          "name": "_value",
          "type": "uint256"
        }
      ],
      "name": "burn",
      "outputs": [],
      "payable": false,
      "stateMutability": "nonpayable",
      "type": "function",
      "signature": "0x42966c68"
    },
    {
      "constant": false,
      "inputs": [
        {
          "name": "_spender",
          "type": "address"
        },
        {
          "name": "_subtractedValue",
          "type": "uint256"
        }
      ],
      "name": "decreaseApproval",
      "outputs": [
        {
          "name": "",
          "type": "bool"
        }
      ],
      "payable": false,
      "stateMutability": "nonpayable",
      "type": "function",
      "signature": "0x66188463"
    },
    {
      "constant": true,
      "inputs": [
        {
          "name": "_owner",
          "type": "address"
        }
      ],
      "name": "balanceOf",
      "outputs": [
        {
          "name": "",
          "type": "uint256"
        }
      ],
      "payable": false,
      "stateMutability": "view",
      "type": "function",
      "signature": "0x70a08231"
    },
    {
      "constant": false,
      "inputs": [],
      "name": "finishMinting",
      "outputs": [
        {
          "name": "",
          "type": "bool"
        }
      ],
      "payable": false,
      "stateMutability": "nonpayable",
      "type": "function",
      "signature": "0x7d64bcb4"
    },
    {
      "constant": true,
      "inputs": [],
      "name": "owner",
      "outputs": [
        {
          "name": "",
          "type": "address"
        }
      ],
      "payable": false,
      "stateMutability": "view",
      "type": "function",
      "signature": "0x8da5cb5b"
    },
    {
      "constant": false,
      "inputs": [
        {
          "name": "_spender",
          "type": "address"
        },
        {
          "name": "_addedValue",
          "type": "uint256"
        },
        {
          "name": "_data",
          "type": "bytes"
        }
      ],
      "name": "increaseApprovalAndCall",
      "outputs": [
        {
          "name": "",
          "type": "bool"
        }
      ],
      "payable": true,
      "stateMutability": "payable",
      "type": "function",
      "signature": "0x90db623f"
    },
    {
      "constant": true,
      "inputs": [],
      "name": "symbol",
      "outputs": [
        {
          "name": "",
          "type": "string"
        }
      ],
      "payable": false,
      "stateMutability": "view",
      "type": "function",
      "signature": "0x95d89b41"
    },
    {
      "constant": false,
      "inputs": [
        {
          "name": "_to",
          "type": "address"
        },
        {
          "name": "_value",
          "type": "uint256"
        }
      ],
      "name": "transfer",
      "outputs": [
        {
          "name": "",
          "type": "bool"
        }
      ],
      "payable": false,
      "stateMutability": "nonpayable",
      "type": "function",
      "signature": "0xa9059cbb"
    },
    {
      "constant": false,
      "inputs": [
        {
          "name": "_from",
          "type": "address"
        },
        {
          "name": "_to",
          "type": "address"
        },
        {
          "name": "_value",
          "type": "uint256"
        },
        {
          "name": "_data",
          "type": "bytes"
        }
      ],
      "name": "transferFromAndCall",
      "outputs": [
        {
          "name": "",
          "type": "bool"
        }
      ],
      "payable": true,
      "stateMutability": "payable",
      "type": "function",
      "signature": "0xc1d34b89"
    },
    {
      "constant": false,
      "inputs": [
        {
          "name": "_spender",
          "type": "address"
        },
        {
          "name": "_value",
          "type": "uint256"
        },
        {
          "name": "_data",
          "type": "bytes"
        }
      ],
      "name": "approveAndCall",
      "outputs": [
        {
          "name": "",
          "type": "bool"
        }
      ],
      "payable": true,
      "stateMutability": "payable",
      "type": "function",
      "signature": "0xcae9ca51"
    },
    {
      "constant": false,
      "inputs": [
        {
          "name": "_spender",
          "type": "address"
        },
        {
          "name": "_subtractedValue",
          "type": "uint256"
        },
        {
          "name": "_data",
          "type": "bytes"
        }
      ],
      "name": "decreaseApprovalAndCall",
      "outputs": [
        {
          "name": "",
          "type": "bool"
        }
      ],
      "payable": true,
      "stateMutability": "payable",
      "type": "function",
      "signature": "0xcb3993be"
    },
    {
      "constant": false,
      "inputs": [
        {
          "name": "_spender",
          "type": "address"
        },
        {
          "name": "_addedValue",
          "type": "uint256"
        }
      ],
      "name": "increaseApproval",
      "outputs": [
        {
          "name": "",
          "type": "bool"
        }
      ],
      "payable": false,
      "stateMutability": "nonpayable",
      "type": "function",
      "signature": "0xd73dd623"
    },
    {
      "constant": true,
      "inputs": [
        {
          "name": "_owner",
          "type": "address"
        },
        {
          "name": "_spender",
          "type": "address"
        }
      ],
      "name": "allowance",
      "outputs": [
        {
          "name": "",
          "type": "uint256"
        }
      ],
      "payable": false,
      "stateMutability": "view",
      "type": "function",
      "signature": "0xdd62ed3e"
    },
    {
      "constant": false,
      "inputs": [
        {
          "name": "newOwner",
          "type": "address"
        }
      ],
      "name": "transferOwnership",
      "outputs": [],
      "payable": false,
      "stateMutability": "nonpayable",
      "type": "function",
      "signature": "0xf2fde38b"
    },
    {
      "inputs": [
        {
          "name": "_name",
          "type": "string"
        },
        {
          "name": "_symbol",
          "type": "string"
        },
        {
          "name": "_cap",
          "type": "uint256"
        }
      ],
      "payable": false,
      "stateMutability": "nonpayable",
      "type": "constructor",
      "signature": "constructor"
    },
    {
      "anonymous": false,
      "inputs": [
        {
          "indexed": true,
          "name": "burner",
          "type": "address"
        },
        {
          "indexed": false,
          "name": "value",
          "type": "uint256"
        }
      ],
      "name": "Burn",
      "type": "event",
      "signature": "0xcc16f5dbb4873280815c1ee09dbd06736cffcc184412cf7a71a0fdb75d397ca5"
    },
    {
      "anonymous": false,
      "inputs": [
        {
          "indexed": true,
          "name": "to",
          "type": "address"
        },
        {
          "indexed": false,
          "name": "amount",
          "type": "uint256"
        }
      ],
      "name": "Mint",
      "type": "event",
      "signature": "0x0f6798a560793a54c3bcfe86a93cde1e73087d944c0ea20544137d4121396885"
    },
    {
      "anonymous": false,
      "inputs": [],
      "name": "MintFinished",
      "type": "event",
      "signature": "0xae5184fba832cb2b1f702aca6117b8d265eaf03ad33eb133f19dde0f5920fa08"
    },
    {
      "anonymous": false,
      "inputs": [
        {
          "indexed": true,
          "name": "previousOwner",
          "type": "address"
        },
        {
          "indexed": true,
          "name": "newOwner",
          "type": "address"
        }
      ],
      "name": "OwnershipTransferred",
      "type": "event",
      "signature": "0x8be0079c531659141344cd1fd0a4f28419497f9722a3daafe3b4186f6b6457e0"
    },
    {
      "anonymous": false,
      "inputs": [
        {
          "indexed": true,
          "name": "owner",
          "type": "address"
        },
        {
          "indexed": true,
          "name": "spender",
          "type": "address"
        },
        {
          "indexed": false,
          "name": "value",
          "type": "uint256"
        }
      ],
      "name": "Approval",
      "type": "event",
      "signature": "0x8c5be1e5ebec7d5bd14f71427d1e84f3dd0314c0f7b2291e5b200ac8c7c3b925"
    },
    {
      "anonymous": false,
      "inputs": [
        {
          "indexed": true,
          "name": "from",
          "type": "address"
        },
        {
          "indexed": true,
          "name": "to",
          "type": "address"
        },
        {
          "indexed": false,
          "name": "value",
          "type": "uint256"
        }
      ],
      "name": "Transfer",
      "type": "event",
      "signature": "0xddf252ad1be2c89b69c2b068fc378daa952ba7f163c4a11628f55a4df523b3ef"
    },
    {
      "constant": false,
      "inputs": [
        {
          "name": "_to",
          "type": "address"
        },
        {
          "name": "_amount",
          "type": "uint256"
        }
      ],
      "name": "mint",
      "outputs": [
        {
          "name": "",
          "type": "bool"
        }
      ],
      "payable": false,
      "stateMutability": "nonpayable",
      "type": "function",
      "signature": "0x40c10f19"
    }
  ],
  "bytecode": "0x60806040526003805460a060020a60ff02191690553480156200002157600080fd5b50604051620012623803806200126283398101604090815281516020808401519284015160038054600160a060020a0319163317905591840180519094939093019262000075916004919086019062000098565b5081516200008b90600590602085019062000098565b50600655506200013d9050565b828054600181600116156101000203166002900490600052602060002090601f016020900481019282601f10620000db57805160ff19168380011785556200010b565b828001600101855582156200010b579182015b828111156200010b578251825591602001919060010190620000ee565b50620001199291506200011d565b5090565b6200013a91905b8082111562000119576000815560010162000124565b90565b611115806200014d6000396000f3006080604052600436106101325763ffffffff7c010000000000000000000000000000000000000000000000000000000060003504166305d2035b811461013757806306fdde0314610160578063095ea7b3146101ea57806318160ddd1461020e57806323b872dd14610235578063313ce5671461025f578063355274ea1461028a5780634000aea01461029f57806340c10f19146102fb57806342966c681461031f578063661884631461033957806370a082311461035d5780637d64bcb41461037e5780638da5cb5b1461039357806390db623f146103c457806395d89b4114610420578063a9059cbb14610435578063c1d34b8914610459578063cae9ca51146104bb578063cb3993be14610517578063d73dd62314610573578063dd62ed3e14610597578063f2fde38b146105be575b600080fd5b34801561014357600080fd5b5061014c6105df565b604080519115158252519081900360200190f35b34801561016c57600080fd5b506101756105ef565b6040805160208082528351818301528351919283929083019185019080838360005b838110156101af578181015183820152602001610197565b50505050905090810190601f1680156101dc5780820380516001836020036101000a031916815260200191505b509250505060405180910390f35b3480156101f657600080fd5b5061014c600160a060020a036004351660243561067d565b34801561021a57600080fd5b506102236106e3565b60408051918252519081900360200190f35b34801561024157600080fd5b5061014c600160a060020a03600435811690602435166044356106e9565b34801561026b57600080fd5b5061027461084e565b6040805160ff9092168252519081900360200190f35b34801561029657600080fd5b50610223610853565b604080516020600460443581810135601f810184900484028501840190955284845261014c948235600160a060020a03169460248035953695946064949201919081908401838280828437509497506108599650505050505050565b34801561030757600080fd5b5061014c600160a060020a0360043516602435610909565b34801561032b57600080fd5b50610337600435610977565b005b34801561034557600080fd5b5061014c600160a060020a0360043516602435610984565b34801561036957600080fd5b50610223600160a060020a0360043516610a74565b34801561038a57600080fd5b5061014c610a8f565b34801561039f57600080fd5b506103a8610b13565b60408051600160a060020a039092168252519081900360200190f35b604080516020600460443581810135601f810184900484028501840190955284845261014c948235600160a060020a0316946024803595369594606494920191908190840183828082843750949750610b229650505050505050565b34801561042c57600080fd5b50610175610b44565b34801561044157600080fd5b5061014c600160a060020a0360043516602435610b9f565b604080516020601f60643560048181013592830184900484028501840190955281845261014c94600160a060020a038135811695602480359092169560443595369560849401918190840183828082843750949750610c6e9650505050505050565b604080516020600460443581810135601f810184900484028501840190955284845261014c948235600160a060020a0316946024803595369594606494920191908190840183828082843750949750610d209650505050505050565b604080516020600460443581810135601f810184900484028501840190955284845261014c948235600160a060020a0316946024803595369594606494920191908190840183828082843750949750610d429650505050505050565b34801561057f57600080fd5b5061014c600160a060020a0360043516602435610d64565b3480156105a357600080fd5b50610223600160a060020a0360043581169060243516610dfd565b3480156105ca57600080fd5b50610337600160a060020a0360043516610e28565b60035460a060020a900460ff1681565b6004805460408051602060026001851615610100026000190190941693909304601f810184900484028201840190925281815292918301828280156106755780601f1061064a57610100808354040283529160200191610675565b820191906000526020600020905b81548152906001019060200180831161065857829003601f168201915b505050505081565b336000818152600260209081526040808320600160a060020a038716808552908352818420869055815186815291519394909390927f8c5be1e5ebec7d5bd14f71427d1e84f3dd0314c0f7b2291e5b200ac8c7c3b925928290030190a350600192915050565b60015490565b6000600160a060020a038316151561070057600080fd5b600160a060020a03841660009081526020819052604090205482111561072557600080fd5b600160a060020a038416600090815260026020908152604080832033845290915290205482111561075557600080fd5b600160a060020a03841660009081526020819052604090205461077e908363ffffffff610ebd16565b600160a060020a0380861660009081526020819052604080822093909355908516815220546107b3908363ffffffff610ecf16565b600160a060020a038085166000908152602081815260408083209490945591871681526002825282812033825290915220546107f5908363ffffffff610ebd16565b600160a060020a03808616600081815260026020908152604080832033845282529182902094909455805186815290519287169391926000805160206110ca833981519152929181900390910190a35060019392505050565b601281565b60065481565b6000600160a060020a03841630141561087157600080fd5b61087b8484610b9f565b5083600160a060020a0316348360405180828051906020019080838360005b838110156108b257818101518382015260200161089a565b50505050905090810190601f1680156108df5780820380516001836020036101000a031916815260200191505b5091505060006040518083038185875af19250505015156108ff57600080fd5b5060019392505050565b600354600090600160a060020a0316331461092357600080fd5b60035460a060020a900460ff161561093a57600080fd5b600060065411156109665760065460015461095b908463ffffffff610ecf16565b111561096657600080fd5b6109708383610ee2565b9392505050565b6109813382610fda565b50565b336000908152600260209081526040808320600160a060020a0386168452909152812054808311156109d957336000908152600260209081526040808320600160a060020a0388168452909152812055610a0e565b6109e9818463ffffffff610ebd16565b336000908152600260209081526040808320600160a060020a03891684529091529020555b336000818152600260209081526040808320600160a060020a0389168085529083529281902054815190815290519293927f8c5be1e5ebec7d5bd14f71427d1e84f3dd0314c0f7b2291e5b200ac8c7c3b925929181900390910190a35060019392505050565b600160a060020a031660009081526020819052604090205490565b600354600090600160a060020a03163314610aa957600080fd5b60035460a060020a900460ff1615610ac057600080fd5b6003805474ff0000000000000000000000000000000000000000191660a060020a1790556040517fae5184fba832cb2b1f702aca6117b8d265eaf03ad33eb133f19dde0f5920fa0890600090a150600190565b600354600160a060020a031681565b6000600160a060020a038416301415610b3a57600080fd5b61087b8484610d64565b6005805460408051602060026001851615610100026000190190941693909304601f810184900484028201840190925281815292918301828280156106755780601f1061064a57610100808354040283529160200191610675565b6000600160a060020a0383161515610bb657600080fd5b33600090815260208190526040902054821115610bd257600080fd5b33600090815260208190526040902054610bf2908363ffffffff610ebd16565b3360009081526020819052604080822092909255600160a060020a03851681522054610c24908363ffffffff610ecf16565b600160a060020a038416600081815260208181526040918290209390935580518581529051919233926000805160206110ca8339815191529281900390910190a350600192915050565b6000600160a060020a038416301415610c8657600080fd5b610c918585856106e9565b5083600160a060020a0316348360405180828051906020019080838360005b83811015610cc8578181015183820152602001610cb0565b50505050905090810190601f168015610cf55780820380516001836020036101000a031916815260200191505b5091505060006040518083038185875af1925050501515610d1557600080fd5b506001949350505050565b6000600160a060020a038416301415610d3857600080fd5b61087b848461067d565b6000600160a060020a038416301415610d5a57600080fd5b61087b8484610984565b336000908152600260209081526040808320600160a060020a0386168452909152812054610d98908363ffffffff610ecf16565b336000818152600260209081526040808320600160a060020a0389168085529083529281902085905580519485525191937f8c5be1e5ebec7d5bd14f71427d1e84f3dd0314c0f7b2291e5b200ac8c7c3b925929081900390910190a350600192915050565b600160a060020a03918216600090815260026020908152604080832093909416825291909152205490565b600354600160a060020a03163314610e3f57600080fd5b600160a060020a0381161515610e5457600080fd5b600354604051600160a060020a038084169216907f8be0079c531659141344cd1fd0a4f28419497f9722a3daafe3b4186f6b6457e090600090a36003805473ffffffffffffffffffffffffffffffffffffffff1916600160a060020a0392909216919091179055565b600082821115610ec957fe5b50900390565b81810182811015610edc57fe5b92915050565b600354600090600160a060020a03163314610efc57600080fd5b60035460a060020a900460ff1615610f1357600080fd5b600154610f26908363ffffffff610ecf16565b600155600160a060020a038316600090815260208190526040902054610f52908363ffffffff610ecf16565b600160a060020a03841660008181526020818152604091829020939093558051858152905191927f0f6798a560793a54c3bcfe86a93cde1e73087d944c0ea20544137d412139688592918290030190a2604080518381529051600160a060020a038516916000916000805160206110ca8339815191529181900360200190a350600192915050565b600160a060020a038216600090815260208190526040902054811115610fff57600080fd5b600160a060020a038216600090815260208190526040902054611028908263ffffffff610ebd16565b600160a060020a038316600090815260208190526040902055600154611054908263ffffffff610ebd16565b600155604080518281529051600160a060020a038416917fcc16f5dbb4873280815c1ee09dbd06736cffcc184412cf7a71a0fdb75d397ca5919081900360200190a2604080518281529051600091600160a060020a038516916000805160206110ca8339815191529181900360200190a350505600ddf252ad1be2c89b69c2b068fc378daa952ba7f163c4a11628f55a4df523b3efa165627a7a723058200c1d066d99840f198c7817ee48fc9dc299886cf89839b80934cc5f47753fcd2d0029",
  "source": "pragma solidity ^0.4.25;\r\n\r\nimport \"openzeppelin-solidity/contracts/token/ERC20/MintableToken.sol\";\r\nimport \"openzeppelin-solidity/contracts/token/ERC20/BurnableToken.sol\";\r\nimport \"../daostack/contracts/token/ERC827/ERC827Token.sol\";\r\n\r\n\r\n/**\r\n * @title DAOToken, base on zeppelin contract.\r\n * @dev ERC20 compatible token. It is a mintable, destructible, burnable token.\r\n */\r\n\r\ncontract DAOToken is ERC827Token,MintableToken,BurnableToken {\r\n\r\n    string public name;\r\n    string public symbol;\r\n    // solium-disable-next-line uppercase\r\n    uint8 public constant decimals = 18;\r\n    uint public cap;\r\n\r\n    /**\r\n    * @dev Constructor\r\n    * @param _name - token name\r\n    * @param _symbol - token symbol\r\n    * @param _cap - token cap - 0 value means no cap\r\n    */\r\n    constructor(string _name, string _symbol,uint _cap) public {\r\n        name = _name;\r\n        symbol = _symbol;\r\n        cap = _cap;\r\n    }\r\n\r\n    /**\r\n     * @dev Function to mint tokens\r\n     * @param _to The address that will receive the minted tokens.\r\n     * @param _amount The amount of tokens to mint.\r\n     * @return A boolean that indicates if the operation was successful.\r\n     */\r\n    function mint(address _to, uint256 _amount) public onlyOwner canMint returns (bool) {\r\n        if (cap > 0)\r\n            require(totalSupply_.add(_amount) <= cap);\r\n        return super.mint(_to, _amount);\r\n    }\r\n}",
  "sourcePath": "D:/projects/gooddollar/poc4/imports/blockchain/contracts/DAOToken.sol",
  "compiler": {
    "name": "solc",
    "version": "0.4.25+commit.59dbf8f1.Emscripten.clang"
  },
  "schemaVersion": "3.0.0-beta.2",
  "updatedAt": "2018-12-16T13:21:49.487Z",
  "devdoc": {
    "methods": {
      "allowance(address,address)": {
        "details": "Function to check the amount of tokens that an owner allowed to a spender.",
        "params": {
          "_owner": "address The address which owns the funds.",
          "_spender": "address The address which will spend the funds."
        },
        "return": "A uint256 specifying the amount of tokens still available for the spender."
      },
      "approve(address,uint256)": {
        "details": "Approve the passed address to spend the specified amount of tokens on behalf of msg.sender.   * Beware that changing an allowance with this method brings the risk that someone may use both the old and the new allowance by unfortunate transaction ordering. One possible solution to mitigate this race condition is to first reduce the spender's allowance to 0 and set the desired value afterwards: https://github.com/ethereum/EIPs/issues/20#issuecomment-263524729",
        "params": {
          "_spender": "The address which will spend the funds.",
          "_value": "The amount of tokens to be spent."
        }
      },
      "approveAndCall(address,uint256,bytes)": {
        "details": "Addition to ERC20 token methods. It allows to\r approve the transfer of value and execute a call with the sent data.\r Beware that changing an allowance with this method brings the risk that\r someone may use both the old and the new allowance by unfortunate\r transaction ordering. One possible solution to mitigate this race condition\r is to first reduce the spender's allowance to 0 and set the desired value\r afterwards:\r https://github.com/ethereum/EIPs/issues/20#issuecomment-263524729\r",
        "params": {
          "_data": "ABI-encoded contract call to call `_spender` address.\r",
          "_spender": "The address that will spend the funds.\r",
          "_value": "The amount of tokens to be spent.\r"
        },
        "return": "true if the call function was executed successfully\r"
      },
      "balanceOf(address)": {
        "details": "Gets the balance of the specified address.",
        "params": {
          "_owner": "The address to query the the balance of."
        },
        "return": "An uint256 representing the amount owned by the passed address."
      },
      "burn(uint256)": {
        "details": "Burns a specific amount of tokens.",
        "params": {
          "_value": "The amount of token to be burned."
        }
      },
      "decreaseApproval(address,uint256)": {
        "details": "Decrease the amount of tokens that an owner allowed to a spender.   * approve should be called when allowed[_spender] == 0. To decrement allowed value is better to use this function to avoid 2 calls (and wait until the first transaction is mined) From MonolithDAO Token.sol",
        "params": {
          "_spender": "The address which will spend the funds.",
          "_subtractedValue": "The amount of tokens to decrease the allowance by."
        }
      },
      "decreaseApprovalAndCall(address,uint256,bytes)": {
        "details": "Addition to StandardToken methods. Decrease the amount of tokens that\r an owner allowed to a spender and execute a call with the sent data.\r approve should be called when allowed[_spender] == 0. To decrement\r allowed value is better to use this function to avoid 2 calls (and wait until\r the first transaction is mined)\r From MonolithDAO Token.sol\r",
        "params": {
          "_data": "ABI-encoded contract call to call `_spender` address.\r",
          "_spender": "The address which will spend the funds.\r",
          "_subtractedValue": "The amount of tokens to decrease the allowance by.\r"
        }
      },
      "finishMinting()": {
        "details": "Function to stop minting new tokens.",
        "return": "True if the operation was successful."
      },
      "increaseApproval(address,uint256)": {
        "details": "Increase the amount of tokens that an owner allowed to a spender.   * approve should be called when allowed[_spender] == 0. To increment allowed value is better to use this function to avoid 2 calls (and wait until the first transaction is mined) From MonolithDAO Token.sol",
        "params": {
          "_addedValue": "The amount of tokens to increase the allowance by.",
          "_spender": "The address which will spend the funds."
        }
      },
      "increaseApprovalAndCall(address,uint256,bytes)": {
        "details": "Addition to StandardToken methods. Increase the amount of tokens that\r an owner allowed to a spender and execute a call with the sent data.\r approve should be called when allowed[_spender] == 0. To increment\r allowed value is better to use this function to avoid 2 calls (and wait until\r the first transaction is mined)\r From MonolithDAO Token.sol\r",
        "params": {
          "_addedValue": "The amount of tokens to increase the allowance by.\r",
          "_data": "ABI-encoded contract call to call `_spender` address.\r",
          "_spender": "The address which will spend the funds.\r"
        }
      },
      "mint(address,uint256)": {
        "details": "Function to mint tokens\r",
        "params": {
          "_amount": "The amount of tokens to mint.\r",
          "_to": "The address that will receive the minted tokens.\r"
        },
        "return": "A boolean that indicates if the operation was successful.\r"
      },
      "totalSupply()": {
        "details": "total number of tokens in existence"
      },
      "transfer(address,uint256)": {
        "details": "transfer token for a specified address",
        "params": {
          "_to": "The address to transfer to.",
          "_value": "The amount to be transferred."
        }
      },
      "transferAndCall(address,uint256,bytes)": {
        "details": "Addition to ERC20 token methods. Transfer tokens to a specified\r address and execute a call with the sent data on the same transaction\r",
        "params": {
          "_data": "ABI-encoded contract call to call `_to` address.\r",
          "_to": "address The address which you want to transfer to\r",
          "_value": "uint256 the amout of tokens to be transfered\r"
        },
        "return": "true if the call function was executed successfully\r"
      },
      "transferFrom(address,address,uint256)": {
        "details": "Transfer tokens from one address to another",
        "params": {
          "_from": "address The address which you want to send tokens from",
          "_to": "address The address which you want to transfer to",
          "_value": "uint256 the amount of tokens to be transferred"
        }
      },
      "transferFromAndCall(address,address,uint256,bytes)": {
        "details": "Addition to ERC20 token methods. Transfer tokens from one address to\r another and make a contract call on the same transaction\r",
        "params": {
          "_data": "ABI-encoded contract call to call `_to` address.\r",
          "_from": "The address which you want to send tokens from\r",
          "_to": "The address which you want to transfer to\r",
          "_value": "The amout of tokens to be transferred\r"
        },
        "return": "true if the call function was executed successfully\r"
      },
      "transferOwnership(address)": {
        "details": "Allows the current owner to transfer control of the contract to a newOwner.",
        "params": {
          "newOwner": "The address to transfer ownership to."
        }
      }
    },
    "title": "DAOToken, base on zeppelin contract.\r"
  },
  "userdoc": {
    "methods": {}
  }
}