{
  "contractName": "GenesisProtocol",
  "abi": [
    {
      "constant": true,
      "inputs": [
        {
          "name": "",
          "type": "bytes32"
        }
      ],
      "name": "parameters",
      "outputs": [
        {
          "name": "preBoostedVoteRequiredPercentage",
          "type": "uint256"
        },
        {
          "name": "preBoostedVotePeriodLimit",
          "type": "uint256"
        },
        {
          "name": "boostedVotePeriodLimit",
          "type": "uint256"
        },
        {
          "name": "thresholdConstA",
          "type": "uint256"
        },
        {
          "name": "thresholdConstB",
          "type": "uint256"
        },
        {
          "name": "minimumStakingFee",
          "type": "uint256"
        },
        {
          "name": "quietEndingPeriod",
          "type": "uint256"
        },
        {
          "name": "proposingRepRewardConstA",
          "type": "uint256"
        },
        {
          "name": "proposingRepRewardConstB",
          "type": "uint256"
        },
        {
          "name": "stakerFeeRatioForVoters",
          "type": "uint256"
        },
        {
          "name": "votersReputationLossRatio",
          "type": "uint256"
        },
        {
          "name": "votersGainRepRatioFromLostRep",
          "type": "uint256"
        },
        {
          "name": "voteOnBehalf",
          "type": "address"
        }
      ],
      "payable": false,
      "stateMutability": "view",
      "type": "function"
    },
    {
      "constant": true,
      "inputs": [],
      "name": "NO",
      "outputs": [
        {
          "name": "",
          "type": "uint256"
        }
      ],
      "payable": false,
      "stateMutability": "view",
      "type": "function"
    },
    {
      "constant": true,
      "inputs": [],
      "name": "proposalsCnt",
      "outputs": [
        {
          "name": "",
          "type": "uint256"
        }
      ],
      "payable": false,
      "stateMutability": "view",
      "type": "function"
    },
    {
      "constant": true,
      "inputs": [],
      "name": "DELEGATION_HASH_EIP712",
      "outputs": [
        {
          "name": "",
          "type": "bytes32"
        }
      ],
      "payable": false,
      "stateMutability": "view",
      "type": "function"
    },
    {
      "constant": true,
      "inputs": [
        {
          "name": "",
          "type": "bytes32"
        }
      ],
      "name": "proposals",
      "outputs": [
        {
          "name": "organizationId",
          "type": "bytes32"
        },
        {
          "name": "callbacks",
          "type": "address"
        },
        {
          "name": "numOfChoices",
          "type": "uint256"
        },
        {
          "name": "votersStakes",
          "type": "uint256"
        },
        {
          "name": "submittedTime",
          "type": "uint256"
        },
        {
          "name": "boostedPhaseTime",
          "type": "uint256"
        },
        {
          "name": "state",
          "type": "uint8"
        },
        {
          "name": "winningVote",
          "type": "uint256"
        },
        {
          "name": "proposer",
          "type": "address"
        },
        {
          "name": "currentBoostedVotePeriodLimit",
          "type": "uint256"
        },
        {
          "name": "paramsHash",
          "type": "bytes32"
        },
        {
          "name": "daoBountyRemain",
          "type": "uint256"
        }
      ],
      "payable": false,
      "stateMutability": "view",
      "type": "function"
    },
    {
      "constant": true,
      "inputs": [],
      "name": "stakingToken",
      "outputs": [
        {
          "name": "",
          "type": "address"
        }
      ],
      "payable": false,
      "stateMutability": "view",
      "type": "function"
    },
    {
      "constant": true,
      "inputs": [],
      "name": "ETH_SIGN_PREFIX",
      "outputs": [
        {
          "name": "",
          "type": "string"
        }
      ],
      "payable": false,
      "stateMutability": "view",
      "type": "function"
    },
    {
      "constant": true,
      "inputs": [],
      "name": "NUM_OF_CHOICES",
      "outputs": [
        {
          "name": "",
          "type": "uint256"
        }
      ],
      "payable": false,
      "stateMutability": "view",
      "type": "function"
    },
    {
      "constant": true,
      "inputs": [],
      "name": "YES",
      "outputs": [
        {
          "name": "",
          "type": "uint256"
        }
      ],
      "payable": false,
      "stateMutability": "view",
      "type": "function"
    },
    {
      "constant": true,
      "inputs": [
        {
          "name": "",
          "type": "bytes32"
        }
      ],
      "name": "organizations",
      "outputs": [
        {
          "name": "",
          "type": "address"
        }
      ],
      "payable": false,
      "stateMutability": "view",
      "type": "function"
    },
    {
      "constant": true,
      "inputs": [
        {
          "name": "",
          "type": "bytes32"
        }
      ],
      "name": "orgBoostedProposalsCnt",
      "outputs": [
        {
          "name": "",
          "type": "uint256"
        }
      ],
      "payable": false,
      "stateMutability": "view",
      "type": "function"
    },
    {
      "inputs": [
        {
          "name": "_stakingToken",
          "type": "address"
        }
      ],
      "payable": false,
      "stateMutability": "nonpayable",
      "type": "constructor"
    },
    {
      "anonymous": false,
      "inputs": [
        {
          "indexed": true,
          "name": "_proposalId",
          "type": "bytes32"
        },
        {
          "indexed": true,
          "name": "_organization",
          "type": "address"
        },
        {
          "indexed": true,
          "name": "_staker",
          "type": "address"
        },
        {
          "indexed": false,
          "name": "_vote",
          "type": "uint256"
        },
        {
          "indexed": false,
          "name": "_amount",
          "type": "uint256"
        }
      ],
      "name": "Stake",
      "type": "event"
    },
    {
      "anonymous": false,
      "inputs": [
        {
          "indexed": true,
          "name": "_proposalId",
          "type": "bytes32"
        },
        {
          "indexed": true,
          "name": "_organization",
          "type": "address"
        },
        {
          "indexed": true,
          "name": "_beneficiary",
          "type": "address"
        },
        {
          "indexed": false,
          "name": "_amount",
          "type": "uint256"
        }
      ],
      "name": "Redeem",
      "type": "event"
    },
    {
      "anonymous": false,
      "inputs": [
        {
          "indexed": true,
          "name": "_proposalId",
          "type": "bytes32"
        },
        {
          "indexed": true,
          "name": "_organization",
          "type": "address"
        },
        {
          "indexed": true,
          "name": "_beneficiary",
          "type": "address"
        },
        {
          "indexed": false,
          "name": "_amount",
          "type": "uint256"
        }
      ],
      "name": "RedeemDaoBounty",
      "type": "event"
    },
    {
      "anonymous": false,
      "inputs": [
        {
          "indexed": true,
          "name": "_proposalId",
          "type": "bytes32"
        },
        {
          "indexed": true,
          "name": "_organization",
          "type": "address"
        },
        {
          "indexed": true,
          "name": "_beneficiary",
          "type": "address"
        },
        {
          "indexed": false,
          "name": "_amount",
          "type": "uint256"
        }
      ],
      "name": "RedeemReputation",
      "type": "event"
    },
    {
      "anonymous": false,
      "inputs": [
        {
          "indexed": true,
          "name": "_proposalId",
          "type": "bytes32"
        },
        {
          "indexed": false,
          "name": "_executionState",
          "type": "uint8"
        }
      ],
      "name": "GPExecuteProposal",
      "type": "event"
    },
    {
      "anonymous": false,
      "inputs": [
        {
          "indexed": true,
          "name": "_proposalId",
          "type": "bytes32"
        },
        {
          "indexed": true,
          "name": "_organization",
          "type": "address"
        },
        {
          "indexed": false,
          "name": "_numOfChoices",
          "type": "uint256"
        },
        {
          "indexed": false,
          "name": "_proposer",
          "type": "address"
        },
        {
          "indexed": false,
          "name": "_paramsHash",
          "type": "bytes32"
        }
      ],
      "name": "NewProposal",
      "type": "event"
    },
    {
      "anonymous": false,
      "inputs": [
        {
          "indexed": true,
          "name": "_proposalId",
          "type": "bytes32"
        },
        {
          "indexed": true,
          "name": "_organization",
          "type": "address"
        },
        {
          "indexed": false,
          "name": "_decision",
          "type": "uint256"
        },
        {
          "indexed": false,
          "name": "_totalReputation",
          "type": "uint256"
        }
      ],
      "name": "ExecuteProposal",
      "type": "event"
    },
    {
      "anonymous": false,
      "inputs": [
        {
          "indexed": true,
          "name": "_proposalId",
          "type": "bytes32"
        },
        {
          "indexed": true,
          "name": "_organization",
          "type": "address"
        },
        {
          "indexed": true,
          "name": "_voter",
          "type": "address"
        },
        {
          "indexed": false,
          "name": "_vote",
          "type": "uint256"
        },
        {
          "indexed": false,
          "name": "_reputation",
          "type": "uint256"
        }
      ],
      "name": "VoteProposal",
      "type": "event"
    },
    {
      "anonymous": false,
      "inputs": [
        {
          "indexed": true,
          "name": "_proposalId",
          "type": "bytes32"
        },
        {
          "indexed": true,
          "name": "_organization",
          "type": "address"
        }
      ],
      "name": "CancelProposal",
      "type": "event"
    },
    {
      "anonymous": false,
      "inputs": [
        {
          "indexed": true,
          "name": "_proposalId",
          "type": "bytes32"
        },
        {
          "indexed": true,
          "name": "_organization",
          "type": "address"
        },
        {
          "indexed": true,
          "name": "_voter",
          "type": "address"
        }
      ],
      "name": "CancelVoting",
      "type": "event"
    },
    {
      "constant": false,
      "inputs": [
        {
          "name": "_numOfChoices",
          "type": "uint256"
        },
        {
          "name": "_paramsHash",
          "type": "bytes32"
        },
        {
          "name": "_proposer",
          "type": "address"
        },
        {
          "name": "_organization",
          "type": "address"
        }
      ],
      "name": "propose",
      "outputs": [
        {
          "name": "",
          "type": "bytes32"
        }
      ],
      "payable": false,
      "stateMutability": "nonpayable",
      "type": "function"
    },
    {
      "constant": false,
      "inputs": [
        {
          "name": "",
          "type": "bytes32"
        }
      ],
      "name": "cancelProposal",
      "outputs": [
        {
          "name": "",
          "type": "bool"
        }
      ],
      "payable": false,
      "stateMutability": "nonpayable",
      "type": "function"
    },
    {
      "constant": false,
      "inputs": [
        {
          "name": "_proposalId",
          "type": "bytes32"
        },
        {
          "name": "_vote",
          "type": "uint256"
        },
        {
          "name": "_amount",
          "type": "uint256"
        }
      ],
      "name": "stake",
      "outputs": [
        {
          "name": "",
          "type": "bool"
        }
      ],
      "payable": false,
      "stateMutability": "nonpayable",
      "type": "function"
    },
    {
      "constant": false,
      "inputs": [
        {
          "name": "_proposalId",
          "type": "bytes32"
        },
        {
          "name": "_vote",
          "type": "uint256"
        },
        {
          "name": "_amount",
          "type": "uint256"
        },
        {
          "name": "_nonce",
          "type": "uint256"
        },
        {
          "name": "_signatureType",
          "type": "uint256"
        },
        {
          "name": "_signature",
          "type": "bytes"
        }
      ],
      "name": "stakeWithSignature",
      "outputs": [
        {
          "name": "",
          "type": "bool"
        }
      ],
      "payable": false,
      "stateMutability": "nonpayable",
      "type": "function"
    },
    {
      "constant": false,
      "inputs": [
        {
          "name": "_proposalId",
          "type": "bytes32"
        },
        {
          "name": "_vote",
          "type": "uint256"
        },
        {
          "name": "_voter",
          "type": "address"
        }
      ],
      "name": "vote",
      "outputs": [
        {
          "name": "",
          "type": "bool"
        }
      ],
      "payable": false,
      "stateMutability": "nonpayable",
      "type": "function"
    },
    {
      "constant": false,
      "inputs": [
        {
          "name": "",
          "type": "bytes32"
        },
        {
          "name": "",
          "type": "uint256"
        },
        {
          "name": "",
          "type": "address"
        }
      ],
      "name": "ownerVote",
      "outputs": [
        {
          "name": "",
          "type": "bool"
        }
      ],
      "payable": false,
      "stateMutability": "nonpayable",
      "type": "function"
    },
    {
      "constant": false,
      "inputs": [
        {
          "name": "_proposalId",
          "type": "bytes32"
        },
        {
          "name": "_vote",
          "type": "uint256"
        },
        {
          "name": "_rep",
          "type": "uint256"
        },
        {
          "name": "",
          "type": "uint256"
        },
        {
          "name": "_voter",
          "type": "address"
        }
      ],
      "name": "voteWithSpecifiedAmounts",
      "outputs": [
        {
          "name": "",
          "type": "bool"
        }
      ],
      "payable": false,
      "stateMutability": "nonpayable",
      "type": "function"
    },
    {
      "constant": false,
      "inputs": [
        {
          "name": "_proposalId",
          "type": "bytes32"
        }
      ],
      "name": "cancelVote",
      "outputs": [],
      "payable": false,
      "stateMutability": "nonpayable",
      "type": "function"
    },
    {
      "constant": true,
      "inputs": [
        {
          "name": "_proposalId",
          "type": "bytes32"
        }
      ],
      "name": "getNumberOfChoices",
      "outputs": [
        {
          "name": "",
          "type": "uint256"
        }
      ],
      "payable": false,
      "stateMutability": "view",
      "type": "function"
    },
    {
      "constant": true,
      "inputs": [
        {
          "name": "_proposalId",
          "type": "bytes32"
        },
        {
          "name": "_voter",
          "type": "address"
        }
      ],
      "name": "voteInfo",
      "outputs": [
        {
          "name": "",
          "type": "uint256"
        },
        {
          "name": "",
          "type": "uint256"
        }
      ],
      "payable": false,
      "stateMutability": "view",
      "type": "function"
    },
    {
      "constant": true,
      "inputs": [
        {
          "name": "_proposalId",
          "type": "bytes32"
        },
        {
          "name": "_choice",
          "type": "uint256"
        }
      ],
      "name": "voteStatus",
      "outputs": [
        {
          "name": "",
          "type": "uint256"
        }
      ],
      "payable": false,
      "stateMutability": "view",
      "type": "function"
    },
    {
      "constant": true,
      "inputs": [
        {
          "name": "_proposalId",
          "type": "bytes32"
        }
      ],
      "name": "isVotable",
      "outputs": [
        {
          "name": "",
          "type": "bool"
        }
      ],
      "payable": false,
      "stateMutability": "view",
      "type": "function"
    },
    {
      "constant": true,
      "inputs": [
        {
          "name": "_proposalId",
          "type": "bytes32"
        }
      ],
      "name": "proposalStatus",
      "outputs": [
        {
          "name": "",
          "type": "uint256"
        },
        {
          "name": "",
          "type": "uint256"
        },
        {
          "name": "",
          "type": "uint256"
        },
        {
          "name": "",
          "type": "uint256"
        },
        {
          "name": "",
          "type": "uint256"
        },
        {
          "name": "",
          "type": "uint256"
        }
      ],
      "payable": false,
      "stateMutability": "view",
      "type": "function"
    },
    {
      "constant": true,
      "inputs": [
        {
          "name": "_proposalId",
          "type": "bytes32"
        }
      ],
      "name": "getProposalOrganization",
      "outputs": [
        {
          "name": "",
          "type": "bytes32"
        }
      ],
      "payable": false,
      "stateMutability": "view",
      "type": "function"
    },
    {
      "constant": true,
      "inputs": [
        {
          "name": "_proposalId",
          "type": "bytes32"
        },
        {
          "name": "_staker",
          "type": "address"
        }
      ],
      "name": "getStaker",
      "outputs": [
        {
          "name": "",
          "type": "uint256"
        },
        {
          "name": "",
          "type": "uint256"
        }
      ],
      "payable": false,
      "stateMutability": "view",
      "type": "function"
    },
    {
      "constant": true,
      "inputs": [
        {
          "name": "_proposalId",
          "type": "bytes32"
        },
        {
          "name": "_vote",
          "type": "uint256"
        }
      ],
      "name": "voteStake",
      "outputs": [
        {
          "name": "",
          "type": "uint256"
        }
      ],
      "payable": false,
      "stateMutability": "view",
      "type": "function"
    },
    {
      "constant": true,
      "inputs": [
        {
          "name": "_proposalId",
          "type": "bytes32"
        }
      ],
      "name": "winningVote",
      "outputs": [
        {
          "name": "",
          "type": "uint256"
        }
      ],
      "payable": false,
      "stateMutability": "view",
      "type": "function"
    },
    {
      "constant": true,
      "inputs": [
        {
          "name": "_proposalId",
          "type": "bytes32"
        }
      ],
      "name": "state",
      "outputs": [
        {
          "name": "",
          "type": "uint8"
        }
      ],
      "payable": false,
      "stateMutability": "view",
      "type": "function"
    },
    {
      "constant": true,
      "inputs": [],
      "name": "isAbstainAllow",
      "outputs": [
        {
          "name": "",
          "type": "bool"
        }
      ],
      "payable": false,
      "stateMutability": "pure",
      "type": "function"
    },
    {
      "constant": true,
      "inputs": [],
      "name": "getAllowedRangeOfChoices",
      "outputs": [
        {
          "name": "min",
          "type": "uint256"
        },
        {
          "name": "max",
          "type": "uint256"
        }
      ],
      "payable": false,
      "stateMutability": "pure",
      "type": "function"
    },
    {
      "constant": false,
      "inputs": [
        {
          "name": "_proposalId",
          "type": "bytes32"
        }
      ],
      "name": "execute",
      "outputs": [
        {
          "name": "",
          "type": "bool"
        }
      ],
      "payable": false,
      "stateMutability": "nonpayable",
      "type": "function"
    },
    {
      "constant": false,
      "inputs": [
        {
          "name": "_proposalId",
          "type": "bytes32"
        },
        {
          "name": "_beneficiary",
          "type": "address"
        }
      ],
      "name": "redeem",
      "outputs": [
        {
          "name": "rewards",
          "type": "uint256[5]"
        }
      ],
      "payable": false,
      "stateMutability": "nonpayable",
      "type": "function"
    },
    {
      "constant": false,
      "inputs": [
        {
          "name": "_proposalId",
          "type": "bytes32"
        },
        {
          "name": "_beneficiary",
          "type": "address"
        }
      ],
      "name": "redeemDaoBounty",
      "outputs": [
        {
          "name": "redeemedAmount",
          "type": "uint256"
        },
        {
          "name": "potentialAmount",
          "type": "uint256"
        }
      ],
      "payable": false,
      "stateMutability": "nonpayable",
      "type": "function"
    },
    {
      "constant": true,
      "inputs": [
        {
          "name": "_proposalId",
          "type": "bytes32"
        }
      ],
      "name": "shouldBoost",
      "outputs": [
        {
          "name": "",
          "type": "bool"
        }
      ],
      "payable": false,
      "stateMutability": "view",
      "type": "function"
    },
    {
      "constant": true,
      "inputs": [
        {
          "name": "_proposalId",
          "type": "bytes32"
        }
      ],
      "name": "score",
      "outputs": [
        {
          "name": "",
          "type": "int256"
        }
      ],
      "payable": false,
      "stateMutability": "view",
      "type": "function"
    },
    {
      "constant": true,
      "inputs": [
        {
          "name": "_organizationId",
          "type": "bytes32"
        }
      ],
      "name": "getBoostedProposalsCount",
      "outputs": [
        {
          "name": "",
          "type": "uint256"
        }
      ],
      "payable": false,
      "stateMutability": "view",
      "type": "function"
    },
    {
      "constant": true,
      "inputs": [
        {
          "name": "_paramsHash",
          "type": "bytes32"
        },
        {
          "name": "_organizationId",
          "type": "bytes32"
        }
      ],
      "name": "threshold",
      "outputs": [
        {
          "name": "",
          "type": "int256"
        }
      ],
      "payable": false,
      "stateMutability": "view",
      "type": "function"
    },
    {
      "constant": false,
      "inputs": [
        {
          "name": "_params",
          "type": "uint256[14]"
        },
        {
          "name": "_voteOnBehalf",
          "type": "address"
        }
      ],
      "name": "setParameters",
      "outputs": [
        {
          "name": "",
          "type": "bytes32"
        }
      ],
      "payable": false,
      "stateMutability": "nonpayable",
      "type": "function"
    },
    {
      "constant": true,
      "inputs": [
        {
          "name": "_params",
          "type": "uint256[14]"
        },
        {
          "name": "_voteOnBehalf",
          "type": "address"
        }
      ],
      "name": "getParametersHash",
      "outputs": [
        {
          "name": "",
          "type": "bytes32"
        }
      ],
      "payable": false,
      "stateMutability": "pure",
      "type": "function"
    }
  ],
  "bytecode": "0x60806040523480156200001157600080fd5b5060405160208062008435833981018060405281019080805190602001909291905050506200006373543ff227f64aa17ea132bf9886cab5db55dcaddf6200010d640100000000026401000000009004565b15620000c45773543ff227f64aa17ea132bf9886cab5db55dcaddf600660006101000a81548173ffffffffffffffffffffffffffffffffffffffff021916908373ffffffffffffffffffffffffffffffffffffffff16021790555062000106565b80600660006101000a81548173ffffffffffffffffffffffffffffffffffffffff021916908373ffffffffffffffffffffffffffffffffffffffff1602179055505b5062000126565b600080823b905060008163ffffffff1611915050919050565b6182ff80620001366000396000f3006080604052600436106101ee576000357c0100000000000000000000000000000000000000000000000000000000900463ffffffff16806302506804146101f35780630d483442146102b8578063119ce91b146102e357806316db51721461034f5780631702ef0c146103bb57806321b4b3dc14610408578063245d775e146104335780632d598e58146104c25780632daedd521461051557806330ca0a531461057257806332ed5b12146105a5578063339e23d1146106ad578063369847cb1461072057806337376ca8146107af57806339500019146107f85780633c1338181461087f578063488c65fc146108c45780635142bc1e1461094d57806351d997b21461097f57806361d585da146109ae5780636359036b14610a015780637074376814610a6d57806372f702f314610abc57806376124dac14610b1357806379a1c1f614610b865780637cb6cf3e14610bee57806380f5e0a114610c7e57806388737b5e14610cc75780639525c0cc14610d5e5780639bc5689d14610d8f578063a003651d14610dba578063b2449d6514610dff578063b451291314610e2a578063ba51b14e14610e79578063c083510614610eea578063cc3bf9e914610f33578063e5af18c514610fc0578063e751f27114611005578063eafd71891461104e578063fb6c0cbb14611093575b600080fd5b3480156101ff57600080fd5b5061022260048036038101908080356000191690602001909291905050506110d8565b604051808e81526020018d81526020018c81526020018b81526020018a81526020018981526020018881526020018781526020018681526020018581526020018481526020018381526020018273ffffffffffffffffffffffffffffffffffffffff1673ffffffffffffffffffffffffffffffffffffffff1681526020019d505050505050505050505050505060405180910390f35b3480156102c457600080fd5b506102cd61115e565b6040518082815260200191505060405180910390f35b3480156102ef57600080fd5b506103326004803603810190808035600019169060200190929190803573ffffffffffffffffffffffffffffffffffffffff169060200190929190505050611163565b604051808381526020018281526020019250505060405180910390f35b34801561035b57600080fd5b5061039e6004803603810190808035600019169060200190929190803573ffffffffffffffffffffffffffffffffffffffff16906020019092919050505061121c565b604051808381526020018281526020019250505060405180910390f35b3480156103c757600080fd5b506103ea60048036038101908080356000191690602001909291905050506112e8565b60405180826000191660001916815260200191505060405180910390f35b34801561041457600080fd5b5061041d611310565b6040518082815260200191505060405180910390f35b34801561043f57600080fd5b506104a4600480360381019080806101c00190600e806020026040519081016040528092919082600e6020028082843782019150505050509192919290803573ffffffffffffffffffffffffffffffffffffffff169060200190929190505050611316565b60405180826000191660001916815260200191505060405180910390f35b3480156104ce57600080fd5b506104ff60048036038101908080356000191690602001909291908035600019169060200190929190505050611d7b565b6040518082815260200191505060405180910390f35b34801561052157600080fd5b5061055860048036038101908080356000191690602001909291908035906020019092919080359060200190929190505050611fff565b604051808215151515815260200191505060405180910390f35b34801561057e57600080fd5b50610587612016565b60405180826000191660001916815260200191505060405180910390f35b3480156105b157600080fd5b506105d4600480360381019080803560001916906020019092919050505061215b565b604051808d600019166000191681526020018c73ffffffffffffffffffffffffffffffffffffffff1673ffffffffffffffffffffffffffffffffffffffff1681526020018b81526020018a815260200189815260200188815260200187600581111561063c57fe5b60ff1681526020018681526020018573ffffffffffffffffffffffffffffffffffffffff1673ffffffffffffffffffffffffffffffffffffffff16815260200184815260200183600019166000191681526020018281526020019c5050505050505050505050505060405180910390f35b3480156106b957600080fd5b50610706600480360381019080803560001916906020019092919080359060200190929190803573ffffffffffffffffffffffffffffffffffffffff169060200190929190505050612208565b604051808215151515815260200191505060405180910390f35b34801561072c57600080fd5b50610791600480360381019080806101c00190600e806020026040519081016040528092919082600e6020028082843782019150505050509192919290803573ffffffffffffffffffffffffffffffffffffffff169060200190929190505050612214565b60405180826000191660001916815260200191505060405180910390f35b3480156107bb57600080fd5b506107de60048036038101908080356000191690602001909291905050506124de565b604051808215151515815260200191505060405180910390f35b34801561080457600080fd5b506108656004803603810190808035600019169060200190929190803590602001909291908035906020019092919080359060200190929190803573ffffffffffffffffffffffffffffffffffffffff1690602001909291905050506124e8565b604051808215151515815260200191505060405180910390f35b34801561088b57600080fd5b506108ae6004803603810190808035600019169060200190929190505050612708565b6040518082815260200191505060405180910390f35b3480156108d057600080fd5b50610933600480360381019080803560001916906020019092919080359060200190929190803590602001909291908035906020019092919080359060200190929190803590602001908201803590602001919091929391929390505050612730565b604051808215151515815260200191505060405180910390f35b34801561095957600080fd5b50610962612d23565b604051808381526020018281526020019250505060405180910390f35b34801561098b57600080fd5b50610994612d31565b604051808215151515815260200191505060405180910390f35b3480156109ba57600080fd5b506109dd6004803603810190808035600019169060200190929190505050612d39565b604051808260058111156109ed57fe5b60ff16815260200191505060405180910390f35b348015610a0d57600080fd5b50610a506004803603810190808035600019169060200190929190803573ffffffffffffffffffffffffffffffffffffffff169060200190929190505050612d6e565b604051808381526020018281526020019250505060405180910390f35b348015610a7957600080fd5b50610aa66004803603810190808035600019169060200190929190803590602001909291905050506134f7565b6040518082815260200191505060405180910390f35b348015610ac857600080fd5b50610ad1613531565b604051808273ffffffffffffffffffffffffffffffffffffffff1673ffffffffffffffffffffffffffffffffffffffff16815260200191505060405180910390f35b348015610b1f57600080fd5b50610b6c600480360381019080803560001916906020019092919080359060200190929190803573ffffffffffffffffffffffffffffffffffffffff169060200190929190505050613557565b604051808215151515815260200191505060405180910390f35b348015610b9257600080fd5b50610bb56004803603810190808035600019169060200190929190505050613776565b60405180878152602001868152602001858152602001848152602001838152602001828152602001965050505050505060405180910390f35b348015610bfa57600080fd5b50610c036138b4565b6040518080602001828103825283818151815260200191508051906020019080838360005b83811015610c43578082015181840152602081019050610c28565b50505050905090810190601f168015610c705780820380516001836020036101000a031916815260200191505b509250505060405180910390f35b348015610c8a57600080fd5b50610cad60048036038101908080356000191690602001909291905050506138ed565b604051808215151515815260200191505060405180910390f35b348015610cd357600080fd5b50610d40600480360381019080803590602001909291908035600019169060200190929190803573ffffffffffffffffffffffffffffffffffffffff169060200190929190803573ffffffffffffffffffffffffffffffffffffffff169060200190929190505050613acf565b60405180826000191660001916815260200191505060405180910390f35b348015610d6a57600080fd5b50610d8d6004803603810190808035600019169060200190929190505050614185565b005b348015610d9b57600080fd5b50610da461419e565b6040518082815260200191505060405180910390f35b348015610dc657600080fd5b50610de960048036038101908080356000191690602001909291905050506141a3565b6040518082815260200191505060405180910390f35b348015610e0b57600080fd5b50610e146141cb565b6040518082815260200191505060405180910390f35b348015610e3657600080fd5b50610e636004803603810190808035600019169060200190929190803590602001909291905050506141d0565b6040518082815260200191505060405180910390f35b348015610e8557600080fd5b50610ea8600480360381019080803560001916906020019092919050505061420a565b604051808273ffffffffffffffffffffffffffffffffffffffff1673ffffffffffffffffffffffffffffffffffffffff16815260200191505060405180910390f35b348015610ef657600080fd5b50610f19600480360381019080803560001916906020019092919050505061423d565b604051808215151515815260200191505060405180910390f35b348015610f3f57600080fd5b50610f826004803603810190808035600019169060200190929190803573ffffffffffffffffffffffffffffffffffffffff16906020019092919050505061424f565b6040518082600560200280838360005b83811015610fad578082015181840152602081019050610f92565b5050505090500191505060405180910390f35b348015610fcc57600080fd5b50610fef6004803603810190808035600019169060200190929190505050614df5565b6040518082815260200191505060405180910390f35b34801561101157600080fd5b506110346004803603810190808035600019169060200190929190505050614e07565b604051808215151515815260200191505060405180910390f35b34801561105a57600080fd5b5061107d6004803603810190808035600019169060200190929190505050614e2f565b6040518082815260200191505060405180910390f35b34801561109f57600080fd5b506110c26004803603810190808035600019169060200190929190505050614ec4565b6040518082815260200191505060405180910390f35b600060205280600052604060002060009150905080600001549080600101549080600201549080600301549080600401549080600501549080600601549080600701549080600801549080600901549080600a01549080600b01549080600e0160009054906101000a900473ffffffffffffffffffffffffffffffffffffffff1690508d565b600281565b60008061116e618079565b60016000866000191660001916815260200190815260200160002060100160008573ffffffffffffffffffffffffffffffffffffffff1673ffffffffffffffffffffffffffffffffffffffff1681526020019081526020016000206060604051908101604052908160008201548152602001600182015481526020016002820160009054906101000a900460ff16151515158152505090508060000151816020015192509250509250929050565b60008060016000856000191660001916815260200190815260200160002060120160008473ffffffffffffffffffffffffffffffffffffffff1673ffffffffffffffffffffffffffffffffffffffff1681526020019081526020016000206000015460016000866000191660001916815260200190815260200160002060120160008573ffffffffffffffffffffffffffffffffffffffff1673ffffffffffffffffffffffffffffffffffffffff16815260200190815260200160002060010154915091509250929050565b6000600160008360001916600019168152602001908152602001600020600001549050919050565b60025481565b60008061132161809d565b6064856000600e8110151561133257fe5b60200201511115801561135857506000856000600e8110151561135157fe5b6020020151115b15156113f2576040517f08c379a000000000000000000000000000000000000000000000000000000000815260040180806020018281038252602b8152602001807f30203c20707265426f6f73746564566f7465526571756972656450657263656e81526020017f74616765203c3d2031303000000000000000000000000000000000000000000081525060400191505060405180910390fd5b6000856004600e8110151561140357fe5b602002015111801561142c57506305f5e100856004600e8110151561142457fe5b602002015111155b15156114a0576040517f08c379a00000000000000000000000000000000000000000000000000000000081526004018080602001828103825260208152602001807f30203c207468726573686f6c64436f6e737442203c203130303030303030302081525060200191505060405180910390fd5b6a52b7d2dcc80cd2e4000000856003600e811015156114bb57fe5b602002015111151515611536576040517f08c379a00000000000000000000000000000000000000000000000000000000081526004018080602001828103825260208152602001807f7468726573686f6c64436f6e737441203c3d203130303030303030302077656981525060200191505060405180910390fd5b6064856009600e8110151561154757fe5b6020020151111515156115c2576040517f08c379a000000000000000000000000000000000000000000000000000000000815260040180806020018281038252601e8152602001807f7374616b6572466565526174696f466f72566f74657273203c3d20313030000081525060200191505060405180910390fd5b606485600a600e811015156115d357fe5b60200201511115151561164e576040517f08c379a00000000000000000000000000000000000000000000000000000000081526004018080602001828103825260208152602001807f766f7465727352657075746174696f6e4c6f7373526174696f203c3d2031303081525060200191505060405180910390fd5b606485600b600e8110151561165f57fe5b602002015111151515611700576040517f08c379a00000000000000000000000000000000000000000000000000000000081526004018080602001828103825260248152602001807f766f746572734761696e526570526174696f46726f6d4c6f7374526570203c3d81526020017f203130300000000000000000000000000000000000000000000000000000000081525060400191505060405180910390fd5b846006600e8110151561170f57fe5b6020020151856002600e8110151561172357fe5b6020020151101515156117c4576040517f08c379a000000000000000000000000000000000000000000000000000000000815260040180806020018281038252602b8152602001807f626f6f73746564566f7465506572696f644c696d6974203e3d2071756965744581526020017f6e64696e67506572696f6400000000000000000000000000000000000000000081525060400191505060405180910390fd5b6305f5e100856007600e811015156117d857fe5b602002015111151515611879576040517f08c379a00000000000000000000000000000000000000000000000000000000081526004018080602001828103825260258152602001807f70726f706f73696e67526570526577617264436f6e737441203c3d203130303081526020017f303030303000000000000000000000000000000000000000000000000000000081525060400191505060405180910390fd5b6305f5e100856008600e8110151561188d57fe5b60200201511115151561192e576040517f08c379a00000000000000000000000000000000000000000000000000000000081526004018080602001828103825260258152602001807f70726f706f73696e67526570526577617264436f6e737442203c3d203130303081526020017f303030303000000000000000000000000000000000000000000000000000000081525060400191505060405180910390fd5b846009600e8110151561193d57fe5b602002015160020285600c600e8110151561195457fe5b6020020151111515156119f5576040517f08c379a000000000000000000000000000000000000000000000000000000000815260040180806020018281038252602d8152602001807f64616f426f756e7479436f6e7374203c3d2032202a207374616b65724665655281526020017f6174696f466f72566f746572730000000000000000000000000000000000000081525060400191505060405180910390fd5b846009600e81101515611a0457fe5b602002015185600c600e81101515611a1857fe5b602002015110151515611ab9576040517f08c379a00000000000000000000000000000000000000000000000000000000081526004018080602001828103825260298152602001807f64616f426f756e7479436f6e7374203e3d207374616b6572466565526174696f81526020017f466f72566f74657273000000000000000000000000000000000000000000000081525060400191505060405180910390fd5b611ac38585612214565b915084600c600e81101515611ad457fe5b6020020151816000600281101515611ae857fe5b60200201818152505084600d600e81101515611b0057fe5b6020020151816001600281101515611b1457fe5b6020020181815250506101c060405190810160405280866000600e81101515611b3957fe5b60200201518152602001866001600e81101515611b5257fe5b60200201518152602001866002600e81101515611b6b57fe5b60200201518152602001866003600e81101515611b8457fe5b60200201518152602001866004600e81101515611b9d57fe5b60200201518152602001866005600e81101515611bb657fe5b60200201518152602001866006600e81101515611bcf57fe5b60200201518152602001866007600e81101515611be857fe5b60200201518152602001866008600e81101515611c0157fe5b60200201518152602001866009600e81101515611c1a57fe5b6020020151815260200186600a600e81101515611c3357fe5b6020020151815260200186600b600e81101515611c4c57fe5b602002015181526020018281526020018573ffffffffffffffffffffffffffffffffffffffff168152506000808460001916600019168152602001908152602001600020600082015181600001556020820151816001015560408201518160020155606082015181600301556080820151816004015560a0820151816005015560c0820151816006015560e082015181600701556101008201518160080155610120820151816009015561014082015181600a015561016082015181600b015561018082015181600c01906002611d249291906180bf565b506101a082015181600e0160006101000a81548173ffffffffffffffffffffffffffffffffffffffff021916908373ffffffffffffffffffffffffffffffffffffffff160217905550905050819250505092915050565b6000806000611d886180ff565b600080611d9487614e2f565b94506002935060008089600019166000191681526020019081526020016000206101c0604051908101604052908160008201548152602001600182015481526020016002820154815260200160038201548152602001600482015481526020016005820154815260200160068201548152602001600782015481526020016008820154815260200160098201548152602001600a8201548152602001600b8201548152602001600c8201600280602002604051908101604052809291908260028015611e75576020028201915b815481526020019060010190808311611e61575b50505050508152602001600e820160009054906101000a900473ffffffffffffffffffffffffffffffffffffffff1673ffffffffffffffffffffffffffffffffffffffff1673ffffffffffffffffffffffffffffffffffffffff1681525050925060008360800151111515611f52576040517f08c379a00000000000000000000000000000000000000000000000000000000081526004018080602001828103825260208152602001807f73686f756c6420626520612076616c696420706172616d65746572206861736881525060200191505060405180910390fd5b611f7f611f658460800151601a0b614edc565b611f7187601a0b614edc565b614efe90919063ffffffff16565b91506064611f8c83614f29565b601a0b1315611fa557611fa26064601a0b614edc565b91505b611fe4611fc683611fb887601a0b614edc565b614f5190919063ffffffff16565b611fd68560600151601a0b614edc565b61503290919063ffffffff16565b9050611fef81614f29565b601a0b9550505050505092915050565b600061200d84848433615052565b90509392505050565b60405160200180807f616464726573732047656e6573697350726f746f636f6c416464726573730000815250601e01807f627974657333322050726f706f73616c49640000000000000000000000000000815250601201807f75696e7420566f74650000000000000000000000000000000000000000000000815250600901807f75696e7420416d6f756e74546f5374616b650000000000000000000000000000815250601201807f75696e74204e6f6e636500000000000000000000000000000000000000000000815250600a0190506040516020818303038152906040526040518082805190602001908083835b60208310151561212b5780518252602082019150602081019050602083039250612106565b6001836020036101000a038019825116818451168082178552505050505050905001915050604051809103902081565b60016020528060005260406000206000915090508060000154908060010160009054906101000a900473ffffffffffffffffffffffffffffffffffffffff16908060020154908060030154908060040154908060050154908060060160009054906101000a900460ff16908060070154908060080160009054906101000a900473ffffffffffffffffffffffffffffffffffffffff169080600901549080600a01549080600b015490508c565b60008090509392505050565b6000826000600e8110151561222557fe5b6020020151836001600e8110151561223957fe5b6020020151846002600e8110151561224d57fe5b6020020151856003600e8110151561226157fe5b6020020151866004600e8110151561227557fe5b6020020151876005600e8110151561228957fe5b6020020151886006600e8110151561229d57fe5b6020020151896007600e811015156122b157fe5b60200201518a6008600e811015156122c557fe5b60200201518b6009600e811015156122d957fe5b60200201518c600a600e811015156122ed57fe5b60200201518d600b600e8110151561230157fe5b60200201518e600c600e8110151561231557fe5b60200201518f600d600e8110151561232957fe5b6020020151604051602001808f81526020018e81526020018d81526020018c81526020018b81526020018a81526020018981526020018881526020018781526020018681526020018581526020018481526020018381526020018281526020019e5050505050505050505050505050506040516020818303038152906040526040518082805190602001908083835b6020831015156123dd57805182526020820191506020810190506020830392506123b8565b6001836020036101000a0380198251168184511680821785525050505050509050019150506040518091039020826040516020018083600019166000191681526020018273ffffffffffffffffffffffffffffffffffffffff1673ffffffffffffffffffffffffffffffffffffffff166c01000000000000000000000000028152601401925050506040516020818303038152906040526040518082805190602001908083835b6020831015156124a95780518252602082019150602081019050602083039250612484565b6001836020036101000a0380198251168184511680821785525050505050509050019150506040518091039020905092915050565b6000809050919050565b6000806124f36180ff565b6000886124ff816155e0565b151561250a57600080fd5b600160008b60001916600019168152602001908152602001600020935060008085600a0154600019166000191681526020019081526020016000206101c0604051908101604052908160008201548152602001600182015481526020016002820154815260200160038201548152602001600482015481526020016005820154815260200160068201548152602001600782015481526020016008820154815260200160098201548152602001600a8201548152602001600b8201548152602001600c8201600280602002604051908101604052809291908260028015612606576020028201915b8154815260200190600101908083116125f2575b50505050508152602001600e820160009054906101000a900473ffffffffffffffffffffffffffffffffffffffff1673ffffffffffffffffffffffffffffffffffffffff1673ffffffffffffffffffffffffffffffffffffffff16815250509250600073ffffffffffffffffffffffffffffffffffffffff16836101a0015173ffffffffffffffffffffffffffffffffffffffff161415156126e957826101a0015173ffffffffffffffffffffffffffffffffffffffff163373ffffffffffffffffffffffffffffffffffffffff161415156126e157600080fd5b8591506126ed565b3391505b6126f98a838b8b615674565b94505050505095945050505050565b6000600160008360001916600019168152602001908152602001600020600701549050919050565b60008060008015156007868660405180838380828437820191505092505050908152602001604051809103902060009054906101000a900460ff16151514151561277957600080fd5b6002861415612a485760405160200180807f616464726573732047656e6573697350726f746f636f6c416464726573730000815250601e01807f627974657333322050726f706f73616c49640000000000000000000000000000815250601201807f75696e7420566f74650000000000000000000000000000000000000000000000815250600901807f75696e7420416d6f756e74546f5374616b650000000000000000000000000000815250601201807f75696e74204e6f6e636500000000000000000000000000000000000000000000815250600a0190506040516020818303038152906040526040518082805190602001908083835b6020831015156128975780518252602082019150602081019050602083039250612872565b6001836020036101000a0380198251168184511680821785525050505050509050019150506040518091039020308b8b8b8b604051602001808673ffffffffffffffffffffffffffffffffffffffff1673ffffffffffffffffffffffffffffffffffffffff166c010000000000000000000000000281526014018560001916600019168152602001848152602001838152602001828152602001955050505050506040516020818303038152906040526040518082805190602001908083835b60208310151561297c5780518252602082019150602081019050602083039250612957565b6001836020036101000a03801982511681845116808217855250505050505090500191505060405180910390206040516020018083600019166000191681526020018260001916600019168152602001925050506040516020818303038152906040526040518082805190602001908083835b602083101515612a1457805182526020820191506020810190506020830392506129ef565b6001836020036101000a03801982511681845116808217855250505050505090500191505060405180910390209150612c43565b6040805190810160405280601c81526020017f19457468657265756d205369676e6564204d6573736167653a0a333200000000815250308b8b8b8b604051602001808673ffffffffffffffffffffffffffffffffffffffff1673ffffffffffffffffffffffffffffffffffffffff166c010000000000000000000000000281526014018560001916600019168152602001848152602001838152602001828152602001955050505050506040516020818303038152906040526040518082805190602001908083835b602083101515612b365780518252602082019150602081019050602083039250612b11565b6001836020036101000a03801982511681845116808217855250505050505090500191505060405180910390206040516020018083805190602001908083835b602083101515612b9b5780518252602082019150602081019050602083039250612b76565b6001836020036101000a0380198251168184511680821785525050505050509050018260001916600019168152602001925050506040516020818303038152906040526040518082805190602001908083835b602083101515612c135780518252602082019150602081019050602083039250612bee565b6001836020036101000a038019825116818451168082178552505050505050905001915050604051809103902091505b612c8c85858080601f0160208091040260200160405190810160405280939291908181526020018383808284378201915050505050508360001916615fd890919063ffffffff16565b9050600073ffffffffffffffffffffffffffffffffffffffff168173ffffffffffffffffffffffffffffffffffffffff1614151515612cca57600080fd5b60016007868660405180838380828437820191505092505050908152602001604051809103902060006101000a81548160ff021916908315150217905550612d148a8a8a84615052565b92505050979650505050505050565b600080600280915091509091565b600080905090565b600060016000836000191660001916815260200190815260200160002060060160009054906101000a900460ff169050919050565b600080600080612d7c6180ff565b6000600160008960001916600019168152602001908152602001600020935060026005811115612da857fe5b8460060160009054906101000a900460ff166005811115612dc557fe5b1480612df8575060016005811115612dd957fe5b8460060160009054906101000a900460ff166005811115612df657fe5b145b1515612e0357600080fd5b8360110160008560070154815260200190815260200160002054925060008460120160008973ffffffffffffffffffffffffffffffffffffffff1673ffffffffffffffffffffffffffffffffffffffff16815260200190815260200160002060020154118015612eba575083600701548460120160008973ffffffffffffffffffffffffffffffffffffffff1673ffffffffffffffffffffffffffffffffffffffff16815260200190815260200160002060000154145b8015612eca575060018460070154145b8015612ed7575060008314155b156131225760008085600a0154600019166000191681526020019081526020016000206101c0604051908101604052908160008201548152602001600182015481526020016002820154815260200160038201548152602001600482015481526020016005820154815260200160068201548152602001600782015481526020016008820154815260200160098201548152602001600a8201548152602001600b8201548152602001600c8201600280602002604051908101604052809291908260028015612fbb576020028201915b815481526020019060010190808311612fa7575b50505050508152602001600e820160009054906101000a900473ffffffffffffffffffffffffffffffffffffffff1673ffffffffffffffffffffffffffffffffffffffff1673ffffffffffffffffffffffffffffffffffffffff168152505091508261308c836101800151600160028110151561303457fe5b60200201518660120160008b73ffffffffffffffffffffffffffffffffffffffff1673ffffffffffffffffffffffffffffffffffffffff168152602001908152602001600020600201546160d090919063ffffffff16565b81151561309557fe5b04905060646131098560120160008a73ffffffffffffffffffffffffffffffffffffffff1673ffffffffffffffffffffffffffffffffffffffff1681526020019081526020016000206002015484610180015160006002811015156130f657fe5b60200201516160d090919063ffffffff16565b81151561311257fe5b04945080851115613121578094505b5b6000851415801561325e5750848460010160009054906101000a900473ffffffffffffffffffffffffffffffffffffffff1673ffffffffffffffffffffffffffffffffffffffff16636b8eb403600660009054906101000a900473ffffffffffffffffffffffffffffffffffffffff168b6040518363ffffffff167c0100000000000000000000000000000000000000000000000000000000028152600401808373ffffffffffffffffffffffffffffffffffffffff1673ffffffffffffffffffffffffffffffffffffffff168152602001826000191660001916815260200192505050602060405180830381600087803b15801561322057600080fd5b505af1158015613234573d6000803e3d6000fd5b505050506040513d602081101561324a57600080fd5b810190808051906020019092919050505010155b156134ec5761327a8585600b015461610890919063ffffffff16565b84600b01819055508360010160009054906101000a900473ffffffffffffffffffffffffffffffffffffffff1673ffffffffffffffffffffffffffffffffffffffff1663bea75f28600660009054906101000a900473ffffffffffffffffffffffffffffffffffffffff1689888c6040518563ffffffff167c0100000000000000000000000000000000000000000000000000000000028152600401808573ffffffffffffffffffffffffffffffffffffffff1673ffffffffffffffffffffffffffffffffffffffff1681526020018473ffffffffffffffffffffffffffffffffffffffff1673ffffffffffffffffffffffffffffffffffffffff1681526020018381526020018260001916600019168152602001945050505050602060405180830381600087803b1580156133af57600080fd5b505af11580156133c3573d6000803e3d6000fd5b505050506040513d60208110156133d957600080fd5b810190808051906020019092919050505015156133f557600080fd5b60008460120160008973ffffffffffffffffffffffffffffffffffffffff1673ffffffffffffffffffffffffffffffffffffffff168152602001908152602001600020600201819055508495508673ffffffffffffffffffffffffffffffffffffffff166005600086600001546000191660001916815260200190815260200160002060009054906101000a900473ffffffffffffffffffffffffffffffffffffffff1673ffffffffffffffffffffffffffffffffffffffff1689600019167fb4a37163ec93e05e09b62e52f7f2ea8cfde431802edede7dfebe53d2ad969dbb896040518082815260200191505060405180910390a45b505050509250929050565b6000600160008460001916600019168152602001908152602001600020601101600083815260200190815260200160002054905092915050565b600660009054906101000a900473ffffffffffffffffffffffffffffffffffffffff1681565b6000806135626180ff565b60008661356e816155e0565b151561357957600080fd5b600160008960001916600019168152602001908152602001600020935060008085600a0154600019166000191681526020019081526020016000206101c0604051908101604052908160008201548152602001600182015481526020016002820154815260200160038201548152602001600482015481526020016005820154815260200160068201548152602001600782015481526020016008820154815260200160098201548152602001600a8201548152602001600b8201548152602001600c8201600280602002604051908101604052809291908260028015613675576020028201915b815481526020019060010190808311613661575b50505050508152602001600e820160009054906101000a900473ffffffffffffffffffffffffffffffffffffffff1673ffffffffffffffffffffffffffffffffffffffff1673ffffffffffffffffffffffffffffffffffffffff16815250509250600073ffffffffffffffffffffffffffffffffffffffff16836101a0015173ffffffffffffffffffffffffffffffffffffffff1614151561375857826101a0015173ffffffffffffffffffffffffffffffffffffffff163373ffffffffffffffffffffffffffffffffffffffff1614151561375057600080fd5b85915061375c565b3391505b6137698883896000615674565b9450505050509392505050565b600080600080600080600160008860001916600019168152602001908152602001600020600f0160006001815260200190815260200160002054600160008960001916600019168152602001908152602001600020600f0160006002815260200190815260200160002054600160008a60001916600019168152602001908152602001600020600c01600060028110151561380d57fe5b0154600160008b60001916600019168152602001908152602001600020600c01600160028110151561383b57fe5b0154600160008c6000191660001916815260200190815260200160002060110160006001815260200190815260200160002054600160008d600019166000191681526020019081526020016000206011016000600281526020019081526020016000205495509550955095509550955091939550919395565b6040805190810160405280601c81526020017f19457468657265756d205369676e6564204d6573736167653a0a33320000000081525081565b60006138f761818b565b6001600084600019166000191681526020019081526020016000206101a060405190810160405290816000820154600019166000191681526020016001820160009054906101000a900473ffffffffffffffffffffffffffffffffffffffff1673ffffffffffffffffffffffffffffffffffffffff1673ffffffffffffffffffffffffffffffffffffffff168152602001600282015481526020016003820154815260200160048201548152602001600582015481526020016006820160009054906101000a900460ff1660058111156139cd57fe5b60058111156139d857fe5b8152602001600782015481526020016008820160009054906101000a900473ffffffffffffffffffffffffffffffffffffffff1673ffffffffffffffffffffffffffffffffffffffff1673ffffffffffffffffffffffffffffffffffffffff16815260200160098201548152602001600a82015460001916600019168152602001600b8201548152602001600c8201600280602002604051908101604052809291908260028015613a9e576020028201915b815481526020019060010190808311613a8a575b5050505050815250509050613abc8161014001518260000151611d7b565b613ac584616121565b1215915050919050565b600080613ada61818b565b600287141515613ae957600080fd5b6000806000886000191660001916815260200190815260200160002060000154111515613b1557600080fd5b30600254604051602001808373ffffffffffffffffffffffffffffffffffffffff1673ffffffffffffffffffffffffffffffffffffffff166c01000000000000000000000000028152601401828152602001925050506040516020818303038152906040526040518082805190602001908083835b602083101515613baf5780518252602082019150602081019050602083039250613b8a565b6001836020036101000a038019825116818451168082178552505050505050905001915050604051809103902091506002600081548092919060010191905055508681604001818152505033816020019073ffffffffffffffffffffffffffffffffffffffff16908173ffffffffffffffffffffffffffffffffffffffff16815250503384604051602001808373ffffffffffffffffffffffffffffffffffffffff1673ffffffffffffffffffffffffffffffffffffffff166c010000000000000000000000000281526014018273ffffffffffffffffffffffffffffffffffffffff1673ffffffffffffffffffffffffffffffffffffffff166c01000000000000000000000000028152601401925050506040516020818303038152906040526040518082805190602001908083835b602083101515613d055780518252602082019150602081019050602083039250613ce0565b6001836020036101000a03801982511681845116808217855250505050505090500191505060405180910390208160000190600019169081600019168152505060038160c001906005811115613d5757fe5b90816005811115613d6457fe5b8152505042816080018181525050600080876000191660001916815260200190815260200160002060020154816101200181815250508481610100019073ffffffffffffffffffffffffffffffffffffffff16908173ffffffffffffffffffffffffffffffffffffffff168152505060028160e0018181525050858161014001906000191690816000191681525050806001600084600019166000191681526020019081526020016000206000820151816000019060001916905560208201518160010160006101000a81548173ffffffffffffffffffffffffffffffffffffffff021916908373ffffffffffffffffffffffffffffffffffffffff16021790555060408201518160020155606082015181600301556080820151816004015560a0820151816005015560c08201518160060160006101000a81548160ff02191690836005811115613eb257fe5b021790555060e082015181600701556101008201518160080160006101000a81548173ffffffffffffffffffffffffffffffffffffffff021916908373ffffffffffffffffffffffffffffffffffffffff160217905550610120820151816009015561014082015181600a019060001916905561016082015181600b015561018082015181600c01906002613f489291906180bf565b5090505060006005600083600001516000191660001916815260200190815260200160002060009054906101000a900473ffffffffffffffffffffffffffffffffffffffff1673ffffffffffffffffffffffffffffffffffffffff1614156140a257600073ffffffffffffffffffffffffffffffffffffffff168473ffffffffffffffffffffffffffffffffffffffff16141561404257336005600083600001516000191660001916815260200190815260200160002060006101000a81548173ffffffffffffffffffffffffffffffffffffffff021916908373ffffffffffffffffffffffffffffffffffffffff1602179055506140a1565b836005600083600001516000191660001916815260200190815260200160002060006101000a81548173ffffffffffffffffffffffffffffffffffffffff021916908373ffffffffffffffffffffffffffffffffffffffff1602179055505b5b6005600082600001516000191660001916815260200190815260200160002060009054906101000a900473ffffffffffffffffffffffffffffffffffffffff1673ffffffffffffffffffffffffffffffffffffffff1682600019167f75b4ff136cc5de5957574c797de3334eb1c141271922b825eb071e0487ba2c5c89888a604051808481526020018373ffffffffffffffffffffffffffffffffffffffff1673ffffffffffffffffffffffffffffffffffffffff1681526020018260001916600019168152602001935050505060405180910390a38192505050949350505050565b8061418f816155e0565b151561419a57600080fd5b5050565b600281565b6000600160008360001916600019168152602001908152602001600020600201549050919050565b600181565b6000600160008460001916600019168152602001908152602001600020600e01600083815260200190815260200160002054905092915050565b60056020528060005260406000206000915054906101000a900473ffffffffffffffffffffffffffffffffffffffff1681565b6000614248826155e0565b9050919050565b614257618237565b60006142616180ff565b6000806000806000806000600160008d6000191660001916815260200190815260200160002098506002600581111561429657fe5b8960060160009054906101000a900460ff1660058111156142b357fe5b14806142e65750600160058111156142c757fe5b8960060160009054906101000a900460ff1660058111156142e457fe5b145b151561435a576040517f08c379a00000000000000000000000000000000000000000000000000000000081526004018080602001828103825260148152602001807f77726f6e672070726f706f73616c20737461746500000000000000000000000081525060200191505060405180910390fd5b6000808a600a0154600019166000191681526020019081526020016000206101c0604051908101604052908160008201548152602001600182015481526020016002820154815260200160038201548152602001600482015481526020016005820154815260200160068201548152602001600782015481526020016008820154815260200160098201548152602001600a8201548152602001600b8201548152602001600c8201600280602002604051908101604052809291908260028015614439576020028201915b815481526020019060010190808311614425575b50505050508152602001600e820160009054906101000a900473ffffffffffffffffffffffffffffffffffffffff1673ffffffffffffffffffffffffffffffffffffffff1673ffffffffffffffffffffffffffffffffffffffff168152505097506001896007015414156144c55788600f016000600281526020019081526020016000205494506144df565b88600f016000600181526020019081526020016000205494505b606488610140015186028115156144f257fe5b0494508860120160008c73ffffffffffffffffffffffffffffffffffffffff1673ffffffffffffffffffffffffffffffffffffffff168152602001908152602001600020935060008460010154118015614553575088600701548460000154145b15614651578860110160008a6007015481526020019081526020016000205492506000831415156145bc578289600c01600060028110151561459157fe5b01548560010154028115156145a257fe5b048a60006005811015156145b257fe5b6020020181815250505b600160058111156145c957fe5b8960060160009054906101000a900460ff1660058111156145e657fe5b141515614646578860110160008a600701548152602001908152602001600020546064896101600151870281151561461a57fe5b04860385600101540281151561462c57fe5b048a600160058110151561463c57fe5b6020020181815250505b600084600101819055505b8860100160008c73ffffffffffffffffffffffffffffffffffffffff1673ffffffffffffffffffffffffffffffffffffffff168152602001908152602001600020915060008260010154141580156146b757508160020160009054906101000a900460ff165b156147fd5788600f016000600281526020019081526020016000205489600f01600060018152602001908152602001600020540190506000811115614725578082600101548a600301540281151561470b57fe5b048a600260058110151561471b57fe5b6020020181815250505b6001600581111561473257fe5b8960060160009054906101000a900460ff16600581111561474f57fe5b141561478a57606488610140015183600101540281151561476c57fe5b048a600360058110151561477c57fe5b6020020181815250506147f2565b8160000154896007015414156147f15780606489610160015187856001015402028115156147b457fe5b048115156147be57fe5b0460648961014001518460010154028115156147d657fe5b04018a60036005811015156147e757fe5b6020020181815250505b5b600082600101819055505b8a73ffffffffffffffffffffffffffffffffffffffff168960080160009054906101000a900473ffffffffffffffffffffffffffffffffffffffff1673ffffffffffffffffffffffffffffffffffffffff16148015614860575060018960070154145b80156148bd5750600073ffffffffffffffffffffffffffffffffffffffff168960080160009054906101000a900473ffffffffffffffffffffffffffffffffffffffff1673ffffffffffffffffffffffffffffffffffffffff1614155b156149b8576103e861490b8a600e01600060028152602001908152602001600020548b600e0160006001815260200190815260200160002054038a61010001516160d090919063ffffffff16565b6149508b600e01600060028152602001908152602001600020548c600e0160006001815260200190815260200160002054018b60e001516160d090919063ffffffff16565b0181151561495a57fe5b048a600460058110151561496a57fe5b60200201818152505060008960080160006101000a81548173ffffffffffffffffffffffffffffffffffffffff021916908373ffffffffffffffffffffffffffffffffffffffff1602179055505b8960026005811015156149c757fe5b60200201518a60006005811015156149db57fe5b60200201510196508960046005811015156149f257fe5b60200201518a6003600581101515614a0657fe5b60200201518b6001600581101515614a1a57fe5b602002015101019550600087141515614c1f57614a53878a600c016001600281101515614a4357fe5b015461610890919063ffffffff16565b89600c016001600281101515614a6557fe5b0181905550600660009054906101000a900473ffffffffffffffffffffffffffffffffffffffff1673ffffffffffffffffffffffffffffffffffffffff1663a9059cbb8c896040518363ffffffff167c0100000000000000000000000000000000000000000000000000000000028152600401808373ffffffffffffffffffffffffffffffffffffffff1673ffffffffffffffffffffffffffffffffffffffff16815260200182815260200192505050602060405180830381600087803b158015614b2f57600080fd5b505af1158015614b43573d6000803e3d6000fd5b505050506040513d6020811015614b5957600080fd5b81019080805190602001909291905050501515614b7557600080fd5b8a73ffffffffffffffffffffffffffffffffffffffff16600560008b600001546000191660001916815260200190815260200160002060009054906101000a900473ffffffffffffffffffffffffffffffffffffffff1673ffffffffffffffffffffffffffffffffffffffff168d600019167f6d26871c9f457d104b2122485f659f126f7a0cf6938cf20482c03f49794a2fbf8a6040518082815260200191505060405180910390a45b600086141515614de6578860010160009054906101000a900473ffffffffffffffffffffffffffffffffffffffff1673ffffffffffffffffffffffffffffffffffffffff1663d29b5d2f878d8f6040518463ffffffff167c0100000000000000000000000000000000000000000000000000000000028152600401808481526020018373ffffffffffffffffffffffffffffffffffffffff1673ffffffffffffffffffffffffffffffffffffffff16815260200182600019166000191681526020019350505050602060405180830381600087803b158015614d0057600080fd5b505af1158015614d14573d6000803e3d6000fd5b505050506040513d6020811015614d2a57600080fd5b8101908080519060200190929190505050508a73ffffffffffffffffffffffffffffffffffffffff16600560008b600001546000191660001916815260200190815260200160002060009054906101000a900473ffffffffffffffffffffffffffffffffffffffff1673ffffffffffffffffffffffffffffffffffffffff168d600019167f7419b736daacf66d5c1645948c956fca2b83be1e2e02d486d65713f289d683b8896040518082815260200191505060405180910390a45b50505050505050505092915050565b6000614e0082616121565b9050919050565b600081614e13816155e0565b1515614e1e57600080fd5b614e2783616178565b915050919050565b6000806000614e57600460008660001916600019168152602001908152602001600020616bd1565b141515614e8e57614e8b42600460008660001916600019168152602001908152602001600020616c8790919063ffffffff16565b90505b614ebc816003600086600019166000191681526020019081526020016000205461610890919063ffffffff16565b915050919050565b60036020528060005260406000206000915090505481565b6000602860016000821215614eed57fe5b9060020a0282601a0b029050919050565b600081602860016000821215614f1057fe5b9060020a028402811515614f2057fe5b05905092915050565b6000602860016000821215614f3a57fe5b9060020a0282811515614f4957fe5b059050919050565b600080821415614f7657602860016000821215614f6a57fe5b9060020a02905061502c565b6000831415614f96576000821215614f8d57600080fd5b6000905061502c565b6000614fa183616dc4565b1415615001576000821315614fc957614fc283614fbd84614f29565b616df4565b905061502c565b614ffa602860016000821215614fdb57fe5b9060020a02614ff585614ff086600003614f29565b616df4565b614efe565b905061502c565b600083121561500f57600080fd5b6150296150248361501f86616e75565b615032565b616e89565b90505b92915050565b60006028828402600082121561504457fe5b9060020a9005905092915050565b6000806000806150606180ff565b600288111580156150715750600088115b151561507c57600080fd5b60008711151561508b57600080fd5b61509489616178565b156150a257600194506155d4565b600160008a600019166000191681526020019081526020016000209350600360058111156150cc57fe5b8460060160009054906101000a900460ff1660058111156150e957fe5b1415156150f957600094506155d4565b8360120160008773ffffffffffffffffffffffffffffffffffffffff1673ffffffffffffffffffffffffffffffffffffffff168152602001908152602001600020925060008360010154118015615154575087836000015414155b1561516257600094506155d4565b86915060008085600a0154600019166000191681526020019081526020016000206101c0604051908101604052908160008201548152602001600182015481526020016002820154815260200160038201548152602001600482015481526020016005820154815260200160068201548152602001600782015481526020016008820154815260200160098201548152602001600a8201548152602001600b8201548152602001600c8201600280602002604051908101604052809291908260028015615244576020028201915b815481526020019060010190808311615230575b50505050508152602001600e820160009054906101000a900473ffffffffffffffffffffffffffffffffffffffff1673ffffffffffffffffffffffffffffffffffffffff1673ffffffffffffffffffffffffffffffffffffffff168152505090508060a0015182101515156152b857600080fd5b600660009054906101000a900473ffffffffffffffffffffffffffffffffffffffff1673ffffffffffffffffffffffffffffffffffffffff166323b872dd8730856040518463ffffffff167c0100000000000000000000000000000000000000000000000000000000028152600401808473ffffffffffffffffffffffffffffffffffffffff1673ffffffffffffffffffffffffffffffffffffffff1681526020018373ffffffffffffffffffffffffffffffffffffffff1673ffffffffffffffffffffffffffffffffffffffff1681526020018281526020019350505050602060405180830381600087803b1580156153b157600080fd5b505af11580156153c5573d6000803e3d6000fd5b505050506040513d60208110156153db57600080fd5b810190808051906020019092919050505015156153f757600080fd5b61541d8285600c01600160028110151561540d57fe5b0154616e9d90919063ffffffff16565b84600c01600160028110151561542f57fe5b0181905550818360010160008282540192505081905550826001015483600201819055508783600001819055506064828261012001510281151561546f57fe5b0484600301600082825401925050819055506154a98460110160008a81526020019081526020016000205483616e9d90919063ffffffff16565b8460110160008a815260200190815260200160002081905550606482826101200151028115156154d557fe5b048203915061550084600c0160006002811015156154ef57fe5b015483616e9d90919063ffffffff16565b84600c01600060028110151561551257fe5b01819055508573ffffffffffffffffffffffffffffffffffffffff166005600086600001546000191660001916815260200190815260200160002060009054906101000a900473ffffffffffffffffffffffffffffffffffffffff1673ffffffffffffffffffffffffffffffffffffffff168a600019167fd0239d7d4acf51def4507fa173be466927de5d75d8b10d840cd6994d6e1023108b8b604051808381526020018281526020019250505060405180910390a46155d189616178565b94505b50505050949350505050565b60008060016000846000191660001916815260200190815260200160002060060160009054906101000a900460ff1690506003600581111561561e57fe5b81600581111561562a57fe5b148061564c57506004600581111561563e57fe5b81600581111561564a57fe5b145b8061566c575060058081111561565e57fe5b81600581111561566a57fe5b145b915050919050565b600061567e6180ff565b6000806000806000600289111580156156975750600089115b151561570b576040517f08c379a000000000000000000000000000000000000000000000000000000000815260040180806020018281038252600e8152602001807f30203c205f766f7465203c3d203200000000000000000000000000000000000081525060200191505060405180910390fd5b6157148b616178565b156157225760019650615fca565b600080600160008e60001916600019168152602001908152602001600020600a0154600019166000191681526020019081526020016000206101c0604051908101604052908160008201548152602001600182015481526020016002820154815260200160038201548152602001600482015481526020016005820154815260200160068201548152602001600782015481526020016008820154815260200160098201548152602001600a8201548152602001600b8201548152602001600c820160028060200260405190810160405280929190826002801561581b576020028201915b815481526020019060010190808311615807575b50505050508152602001600e820160009054906101000a900473ffffffffffffffffffffffffffffffffffffffff1673ffffffffffffffffffffffffffffffffffffffff1673ffffffffffffffffffffffffffffffffffffffff16815250509550600160008c6000191660001916815260200190815260200160002094508460010160009054906101000a900473ffffffffffffffffffffffffffffffffffffffff1673ffffffffffffffffffffffffffffffffffffffff16639588378e8b8d6040518363ffffffff167c0100000000000000000000000000000000000000000000000000000000028152600401808373ffffffffffffffffffffffffffffffffffffffff1673ffffffffffffffffffffffffffffffffffffffff168152602001826000191660001916815260200192505050602060405180830381600087803b15801561596857600080fd5b505af115801561597c573d6000803e3d6000fd5b505050506040513d602081101561599257600080fd5b81019080805190602001909291905050509350878410151515615a1d576040517f08c379a00000000000000000000000000000000000000000000000000000000081526004018080602001828103825260128152602001807f72657075746174696f6e203e3d205f726570000000000000000000000000000081525060200191505060405180910390fd5b8792506000831415615a2d578392505b60008560100160008c73ffffffffffffffffffffffffffffffffffffffff1673ffffffffffffffffffffffffffffffffffffffff16815260200190815260200160002060010154141515615a845760009650615fca565b615aac85600e0160008b81526020019081526020016000205484616e9d90919063ffffffff16565b85600e0160008b81526020019081526020016000208190555084600e016000866007015481526020019081526020016000205485600e0160008b8152602001908152602001600020541180615b3f575084600e016000866007015481526020019081526020016000205485600e0160006002815260200190815260200160002054148015615b3e575060018560070154145b5b15615cb257429150600580811115615b5357fe5b8560060160009054906101000a900460ff166005811115615b7057fe5b1480615bbf575060046005811115615b8457fe5b8560060160009054906101000a900460ff166005811115615ba157fe5b148015615bbe57508560c001518660400151038560050154830310155b5b15615ca857615bff856009015486600501540160046000886000015460001916600019168152602001908152602001600020616eb990919063ffffffff16565b600580811115615c0b57fe5b8560060160009054906101000a900460ff166005811115615c2857fe5b141515615c63578560c00151856009018190555060058560060160006101000a81548160ff02191690836005811115615c5d57fe5b02179055505b818560050181905550615ca7856009015486600501540160046000886000015460001916600019168152602001908152602001600020616f7d90919063ffffffff16565b5b8885600701819055505b6060604051908101604052808a815260200184815260200160036005811115615cd757fe5b8760060160009054906101000a900460ff166005811115615cf457fe5b1415158152508560100160008c73ffffffffffffffffffffffffffffffffffffffff1673ffffffffffffffffffffffffffffffffffffffff168152602001908152602001600020600082015181600001556020820151816001015560408201518160020160006101000a81548160ff02191690831515021790555090505060036005811115615d7f57fe5b8560060160009054906101000a900460ff166005811115615d9c57fe5b1415615f0d57615dca85600f0160008b81526020019081526020016000205484616e9d90919063ffffffff16565b85600f0160008b81526020019081526020016000208190555060648387610140015102811515615df657fe5b0490508460010160009054906101000a900473ffffffffffffffffffffffffffffffffffffffff1673ffffffffffffffffffffffffffffffffffffffff1663f81f8bf6828c8e6040518463ffffffff167c0100000000000000000000000000000000000000000000000000000000028152600401808481526020018373ffffffffffffffffffffffffffffffffffffffff1673ffffffffffffffffffffffffffffffffffffffff16815260200182600019166000191681526020019350505050602060405180830381600087803b158015615ed057600080fd5b505af1158015615ee4573d6000803e3d6000fd5b505050506040513d6020811015615efa57600080fd5b8101908080519060200190929190505050505b8973ffffffffffffffffffffffffffffffffffffffff166005600087600001546000191660001916815260200190815260200160002060009054906101000a900473ffffffffffffffffffffffffffffffffffffffff1673ffffffffffffffffffffffffffffffffffffffff168c600019167f066c061a3792cb3eb64a441a928655fcbafb4a54b49725fe9cd2951df5e7189e8c87604051808381526020018281526020019250505060405180910390a4615fc78b616178565b96505b505050505050949350505050565b60008060008060418551141515615ff257600093506160c7565b6020850151925060408501519150606085015160001a9050601b8160ff16101561601d57601b810190505b601b8160ff16141580156160355750601c8160ff1614155b1561604357600093506160c7565b600186828585604051600081526020016040526040518085600019166000191681526020018460ff1660ff1681526020018360001916600019168152602001826000191660001916815260200194505050505060206040516020810390808403906000865af11580156160ba573d6000803e3d6000fd5b5050506020604051035193505b50505092915050565b6000808314156160e35760009050616102565b81830290508183828115156160f457fe5b041415156160fe57fe5b8090505b92915050565b600082821115151561611657fe5b818303905092915050565b60008060016000846000191660001916815260200190815260200160002090508060110160006002815260200190815260200160002054816011016000600181526020019081526020016000205403915050919050565b6000806161836180ff565b61618b61818b565b6000806000808861619b816155e0565b15156161a657600080fd5b600160008b60001916600019168152602001908152602001600020975060008089600a0154600019166000191681526020019081526020016000206101c0604051908101604052908160008201548152602001600182015481526020016002820154815260200160038201548152602001600482015481526020016005820154815260200160068201548152602001600782015481526020016008820154815260200160098201548152602001600a8201548152602001600b8201548152602001600c82016002806020026040519081016040528092919082600280156162a2576020028201915b81548152602001906001019080831161628e575b50505050508152602001600e820160009054906101000a900473ffffffffffffffffffffffffffffffffffffffff1673ffffffffffffffffffffffffffffffffffffffff1673ffffffffffffffffffffffffffffffffffffffff16815250509650876101a060405190810160405290816000820154600019166000191681526020016001820160009054906101000a900473ffffffffffffffffffffffffffffffffffffffff1673ffffffffffffffffffffffffffffffffffffffff1673ffffffffffffffffffffffffffffffffffffffff168152602001600282015481526020016003820154815260200160048201548152602001600582015481526020016006820160009054906101000a900460ff1660058111156163bf57fe5b60058111156163ca57fe5b8152602001600782015481526020016008820160009054906101000a900473ffffffffffffffffffffffffffffffffffffffff1673ffffffffffffffffffffffffffffffffffffffff1673ffffffffffffffffffffffffffffffffffffffff16815260200160098201548152602001600a82015460001916600019168152602001600b8201548152602001600c8201600280602002604051908101604052809291908260028015616490576020028201915b81548152602001906001019080831161647c575b50505050508152505095508760010160009054906101000a900473ffffffffffffffffffffffffffffffffffffffff1673ffffffffffffffffffffffffffffffffffffffff1663b551c3738b6040518263ffffffff167c0100000000000000000000000000000000000000000000000000000000028152600401808260001916600019168152602001915050602060405180830381600087803b15801561653657600080fd5b505af115801561654a573d6000803e3d6000fd5b505050506040513d602081101561656057600080fd5b8101908080519060200190929190505050945060648760000151860281151561658557fe5b049350600092506003600581111561659957fe5b8860060160009054906101000a900460ff1660058111156165b657fe5b1415616703578660200151886004015442031015156166085760018860060160006101000a81548160ff021916908360058111156165f057fe5b02179055506002886007018190555060019250616702565b8388600e0160008a6007015481526020019081526020016000205411156166585760028860060160006101000a81548160ff0219169083600581111561664a57fe5b021790555060029250616701565b6166618a6138ed565b156167005760048860060160006101000a81548160ff0219169083600581111561668757fe5b02179055504288600501819055506166d08860090154896005015401600460008b6000015460001916600019168152602001908152602001600020616f7d90919063ffffffff16565b60036000896000015460001916600019168152602001908152602001600020600081548092919060010191905055505b5b5b5b6004600581111561671057fe5b8860060160009054906101000a900460ff16600581111561672d57fe5b148061675f575060058081111561674057fe5b8860060160009054906101000a900460ff16600581111561675d57fe5b145b1561691657876009015488600501544203101515616837576167b28860090154896005015401600460008b6000015460001916600019168152602001908152602001600020616eb990919063ffffffff16565b60028860060160006101000a81548160ff021916908360058111156167d357fe5b021790555061680b6001600360008960000151600019166000191681526020019081526020016000205461610890919063ffffffff16565b600360008860000151600019166000191681526020019081526020016000208190555060039250616915565b8388600e0160008a6007015481526020019081526020016000205411156169145761688b6001600360008960000151600019166000191681526020019081526020016000205461610890919063ffffffff16565b60036000886000015160001916600019168152602001908152602001600020819055506168e98860090154896005015401600460008b6000015460001916600019168152602001908152602001600020616eb990919063ffffffff16565b60028860060160006101000a81548160ff0219169083600581111561690a57fe5b0217905550600492505b5b5b6000600481111561692357fe5b83600481111561692f57fe5b141515616ba7576001886007015414156169db5760646169898960110160008b60070154815260200190815260200160002054896101800151600060028110151561697657fe5b60200201516160d090919063ffffffff16565b81151561699257fe5b04915086610180015160016002811015156169a957fe5b60200201518211156169d15786610180015160016002811015156169c957fe5b602002015191505b8188600b01819055505b6005600089600001546000191660001916815260200190815260200160002060009054906101000a900473ffffffffffffffffffffffffffffffffffffffff1673ffffffffffffffffffffffffffffffffffffffff168a600019167f37471b9c9d295ffb1309ad070b8964700bfb7b555e8e8292d0b6cbc7dba35d108a6007015488604051808381526020018281526020019250505060405180910390a389600019167f46a713b994c752c68fbefa9048bec9a0010cc7d933ad95a3c3dbb25931a167e78460405180826004811115616ab057fe5b60ff16815260200191505060405180910390a28760010160009054906101000a900473ffffffffffffffffffffffffffffffffffffffff1673ffffffffffffffffffffffffffffffffffffffff16639d4c162d8b8a600701546040518363ffffffff167c010000000000000000000000000000000000000000000000000000000002815260040180836000191660001916815260200182815260200192505050602060405180830381600087803b158015616b6a57600080fd5b505af1158015616b7e573d6000803e3d6000fd5b505050506040513d6020811015616b9457600080fd5b8101908080519060200190929190505050505b60006004811115616bb457fe5b836004811115616bc057fe5b141598505050505050505050919050565b600080616bdc61825a565b8360000160008081526020019081526020016000209150836000016000836000016000600115151515815260200190815260200160002054815260200190815260200160002060a06040519081016040529081600182015481526020016002820160009054906101000a900460ff1615151515815260200160038201548152602001600482015481526020016005820154815250509050806060015182600501540192505050919050565b600080600080600085141515616dbb578560000160008081526020019081526020016000206005015493508560000160008081526020019081526020016000206000016000600115151515815260200190815260200160002054925085600001600084815260200190815260200160002091505b600115616dba578483111515616d655784831015616d20578160050154600185010193505b81600001600080151515158152602001908152602001600020549050600081141515616d645785600001600082815260200190815260200160002060040154840193505b5b84831415616d7257616dba565b8160000160008685101515151581526020019081526020016000205492506000831415616d9e57616dba565b8560000160008481526020019081526020016000209150616cfb565b5b50505092915050565b6000602860016000821215616dd557fe5b9060020a02616de383616fc6565b811515616dec57fe5b079050919050565b600080600080600085601a0b1215616e0b57600080fd5b85925084601a0b9150602860016000821215616e2357fe5b9060020a0290505b600082141515616e695760018083161415616e4d57616e4a8184615032565b90505b6001829060020a90059150616e628384615032565b9250616e2b565b80935050505092915050565b6000616e82826064616fe4565b9050919050565b6000616e96826064617113565b9050919050565b60008183019050828110151515616eb057fe5b80905092915050565b600082600001600083815260200190815260200160002090506000821415616ef257600081600501541415616eed57616f78565b616f05565b600081600401541415616f0457616f78565b5b600081600501541115616f6c57806005016000815480929190600190039190505550600082141515616f47578060040160008154809291906001900391905055505b616f678382600101548360020160009054906101000a900460ff1661718f565b616f77565b616f7683836171be565b5b5b505050565b6000811415616fb35781600001600082815260200190815260200160002060050160008154809291906001019190505550616fc2565b616fc1826000600184617343565b5b5050565b600080821315616fd857819050616fdf565b8160000390505b919050565b60008060008060008060008089131515616ffd57600080fd5b60286001600082121561700c57fe5b9060020a028914156170215760009650617107565b61702a8961746e565b809650819750505061706660286001600082121561704457fe5b9060020a02870360286001600082121561705a57fe5b9060020a028801614efe565b935060009250600091505b8782601a0b12156170c5576170a361708f8560018560020201616df4565b61709e60018560020201614edc565b614efe565b9050808301925060008114156170b8576170c5565b8180600101925050617071565b6170e98360016028600160008212156170da57fe5b9060020a029060020a02615032565b9250826171036170f887614edc565b64b17217f7d2615032565b0196505b50505050505092915050565b6000806000806000925060286001600082121561712c57fe5b9060020a029150600090505b8481601a0b1215617183578183019250617166826171618861715c60018601614edc565b614efe565b615032565b9150600082141561717657617183565b8080600101915050617138565b82935050505092915050565b6000821415156171b9576171a383836174f5565b6171ad838361758a565b6171b88383836175e1565b5b505050565b6000806000806000806000808960000160008a81526020019081526020016000209750876001015496508760020160009054906101000a900460ff169550896000016000888152602001908152602001600020945087600001600080151515158152602001908152602001600020549350876000016000600115151515815260200190815260200160002054925060008414801561725c5750600083145b1561729a576000856000016000881515151581526020019081526020016000208190555061728a8a8a61776b565b6172958a888861718f565b617337565b600084141580156172ac575060008314155b156172c1576172bc8a8a8661780d565b617336565b82840191508960000160008381526020019081526020016000209050818560000160008815151515815260200190815260200160002081905550868160010181905550858160020160006101000a81548160ff02191690831515021790555061732a8a8a61776b565b6173358a888861718f565b5b5b50505050505050505050565b6000806000866000016000878152602001908152602001600020925082600001600086151515158152602001908152602001600020549150600082141561740b578383600001600087151515158152602001908152602001600020819055508660000160008581526020019081526020016000209050858160010181905550848160020160006101000a81548160ff02191690831515021790555060018160030181905550600181600401819055506173fc878561758a565b61740687856179f9565b617465565b83821415617454578660000160008381526020019081526020016000206005016000815480929190600101919050555061744587856174f5565b61744f878561758a565b617464565b61746387838487101587617343565b5b5b50505050505050565b6000806000808413151561748157600080fd5b61749261748d85617b01565b617b82565b60ff169050602881039150600082601a0b12156174c85781600003601a0b8460008212156174bc57fe5b9060020a0292506174ef565b600082601a0b1215156174ee5781601a0b8460008212156174e557fe5b9060020a900592505b5b50915091565b600082600001600083815260200190815260200160002090508060050154836000016000836000016000600115151515815260200190815260200160002054815260200190815260200160002060040154846000016000846000016000801515151581526020019081526020016000205481526020019081526020016000206004015460010101018160040181905550505050565b60008260000160008381526020019081526020016000206001015490505b6000811415156175dc576175bc83826174f5565b8260000160008281526020019081526020016000206001015490506175a8565b505050565b600080600080600080600088141515617760576175fe8989617d24565b6176088989617dd6565b95508615617619576001945061763d565b7fffffffffffffffffffffffffffffffffffffffffffffffffffffffffffffffff94505b6176478989617dd6565b93508460020284141561771d57886000016000898152602001908152602001600020925082600001600088151515151581526020019081526020016000205491506176928983617dd6565b9050847fffffffffffffffffffffffffffffffffffffffffffffffffffffffffffffffff028114156176cb576176ca89838915617e5f565b5b6176d6898989617e5f565b6000811415156177185788600001600089815260200190815260200160002092506177178984600101548560020160009054906101000a900460ff166175e1565b5b61775f565b848614151561775e57886000016000898152602001908152602001600020925061775d8984600101548560020160009054906101000a900460ff166175e1565b5b5b5b505050505050505050565b600082600001600083815260200190815260200160002090506000816001018190555060008160020160006101000a81548160ff021916908315150217905550600081600001600080151515158152602001908152602001600020819055506000816000016000600115151515815260200190815260200160002081905550600081600401819055506000816003018190555060008160050181905550505050565b60008060008060008060008060008060006178288e8d61801f565b9a508d60000160008c81526020019081526020016000209950896005015498506178528e8c6171be565b8d60000160008e81526020019081526020016000209750876001015496508d60000160008881526020019081526020016000209550876003015494508760020160009054906101000a900460ff169350876004015492508760000160006001151515158152602001908152602001600020549150876000016000801515151581526020019081526020016000205490508a8660000160008615151515815260200190815260200160002081905550868a60010181905550838a60020160006101000a81548160ff0219169083151502179055508760050154898401038a60040181905550848a60030181905550888a6005018190555060008114151561798e57808a600001600080151515158152602001908152602001600020819055508a8e6000016000838152602001908152602001600020600101819055505b6000821415156179d557818a60000160006001151515158152602001908152602001600020819055508a8e6000016000848152602001908152602001600020600101819055505b6179df8e8e61776b565b6179e98e8c61758a565b5050505050505050505050505050565b6000806000806000617a0b8787617d24565b866000016000878152602001908152602001600020945084600101549350600084141515617af857617a3d8785617dd6565b92508460020160009054906101000a900460ff1691508115617a81577fffffffffffffffffffffffffffffffffffffffffffffffffffffffffffffffff9050617a86565b600190505b60028102831415617ae157807fffffffffffffffffffffffffffffffffffffffffffffffffffffffffffffffff02617abe8888617dd6565b1415617ad057617acf878784617e5f565b5b617adc87858415617e5f565b617af7565b600083141515617af657617af587856179f9565b5b5b5b50505050505050565b6000808290506001819060020a9004811790506002819060020a9004811790506004819060020a9004811790506008819060020a9004811790506010819060020a9004811790506020819060020a9004811790506040819060020a9004811790506080819060020a9004811790506001819060020a90048118915050919050565b600080905060007faaaaaaaaaaaaaaaaaaaaaaaaaaaaaaaaaaaaaaaaaaaaaaaaaaaaaaaaaaaaaaaa8316141515617bba576001811790505b60007fcccccccccccccccccccccccccccccccccccccccccccccccccccccccccccccccc8316141515617bed576002811790505b60007ff0f0f0f0f0f0f0f0f0f0f0f0f0f0f0f0f0f0f0f0f0f0f0f0f0f0f0f0f0f0f0f08316141515617c20576004811790505b60007fff00ff00ff00ff00ff00ff00ff00ff00ff00ff00ff00ff00ff00ff00ff00ff008316141515617c53576008811790505b60007fffff0000ffff0000ffff0000ffff0000ffff0000ffff0000ffff0000ffff00008316141515617c86576010811790505b60007fffffffff00000000ffffffff00000000ffffffff00000000ffffffff000000008316141515617cb9576020811790505b60007fffffffffffffffff0000000000000000ffffffffffffffff00000000000000008316141515617cec576040811790505b60007fffffffffffffffffffffffffffffffff000000000000000000000000000000008316141515617d1f576080811790505b919050565b6000806000846000016000858152602001908152602001600020925084600001600084600001600080151515158152602001908152602001600020548152602001908152602001600020600301549150846000016000846000016000600115151515815260200190815260200160002054815260200190815260200160002060030154905080821115617dc257600182018360030181905550617dcf565b6001810183600301819055505b5050505050565b600080836000016000848152602001908152602001600020905083600001600082600001600060011515151581526020019081526020016000205481526020019081526020016000206003015484600001600083600001600080151515158152602001908152602001600020548152602001908152602001600020600301540391505092915050565b6000806000806000806000806000891598508b60000160008c815260200190815260200160002097508760020160009054906101000a900460ff169650876001015495508760000160008a1515151581526020019081526020016000205494508b600001600086815260200190815260200160002093508360000160008b1515151581526020019081526020016000205492508b600001600087815260200190815260200160002091508b60000160008481526020019081526020016000209050848260000160008915151515815260200190815260200160002081905550868460020160006101000a81548160ff0219169083151502179055508584600101819055508a8460000160008c15151515815260200190815260200160002081905550848860010181905550898860020160006101000a81548160ff021916908315150217905550828860000160008b151515158152602001908152602001600020819055508a8160010181905550888160020160006101000a81548160ff021916908315150217905550617ff38c8c617d24565b617ffd8c86617d24565b6180078c8c6174f5565b6180118c866174f5565b505050505050505050505050565b6000808360000160008481526020019081526020016000206000016000600115151515815260200190815260200160002054905060008114151561806e57618067848261801f565b9150618072565b8291505b5092915050565b60606040519081016040528060008152602001600081526020016000151581525090565b6040805190810160405280600290602082028038833980820191505090505090565b82600281019282156180ee579160200282015b828111156180ed5782518255916020019190600101906180d2565b5b5090506180fb919061828c565b5090565b6101e0604051908101604052806000815260200160008152602001600081526020016000815260200160008152602001600081526020016000815260200160008152602001600081526020016000815260200160008152602001600081526020016181686182b1565b8152602001600073ffffffffffffffffffffffffffffffffffffffff1681525090565b6101c06040519081016040528060008019168152602001600073ffffffffffffffffffffffffffffffffffffffff16815260200160008152602001600081526020016000815260200160008152602001600060058111156181e857fe5b815260200160008152602001600073ffffffffffffffffffffffffffffffffffffffff1681526020016000815260200160008019168152602001600081526020016182316182b1565b81525090565b60a060405190810160405280600590602082028038833980820191505090505090565b60a060405190810160405280600081526020016000151581526020016000815260200160008152602001600081525090565b6182ae91905b808211156182aa576000816000905550600101618292565b5090565b90565b60408051908101604052806002906020820280388339808201915050905050905600a165627a7a723058203816380bcc9747641e60cf04d695ca94f28f8e4ae0bf5eee658db3bb16c2f8f10029",
  "source": "pragma solidity ^0.4.25;\n\nimport \"./IntVoteInterface.sol\";\nimport { RealMath } from \"../libs/RealMath.sol\";\nimport \"./VotingMachineCallbacksInterface.sol\";\nimport \"./ProposalExecuteInterface.sol\";\nimport \"openzeppelin-solidity/contracts/math/SafeMath.sol\";\nimport \"openzeppelin-solidity/contracts/token/ERC20/StandardToken.sol\";\nimport \"openzeppelin-solidity/contracts/ECRecovery.sol\";\nimport { OrderStatisticTree } from \"../libs/OrderStatisticTree.sol\";\n\n\n/**\n * @title GenesisProtocol implementation -an organization's voting machine scheme.\n */\ncontract GenesisProtocol is IntVoteInterface {\n    using SafeMath for uint;\n    using RealMath for int216;\n    using RealMath for int256;\n    using ECRecovery for bytes32;\n    using OrderStatisticTree for OrderStatisticTree.Tree;\n\n    enum ProposalState { None ,Closed, Executed, PreBoosted,Boosted,QuietEndingPeriod }\n    enum ExecutionState { None, PreBoostedTimeOut, PreBoostedBarCrossed, BoostedTimeOut,BoostedBarCrossed }\n\n    //Organization's parameters\n    struct Parameters {\n        uint preBoostedVoteRequiredPercentage; // the absolute vote percentages bar.\n        uint preBoostedVotePeriodLimit; //the time limit for a proposal to be in an absolute voting mode.\n        uint boostedVotePeriodLimit; //the time limit for a proposal to be in an relative voting mode.\n        uint thresholdConstA;//constant A for threshold calculation . threshold =A * (e ** (numberOfBoostedProposals/B))\n        uint thresholdConstB;//constant B for threshold calculation . threshold =A * (e ** (numberOfBoostedProposals/B))\n        uint minimumStakingFee; //minimum staking fee allowed.\n        uint quietEndingPeriod; //quite ending period\n        uint proposingRepRewardConstA;//constant A for calculate proposer reward. proposerReward =(A*(RTotal) +B*(R+ - R-))/1000\n        uint proposingRepRewardConstB;//constant B for calculate proposing reward.proposerReward =(A*(RTotal) +B*(R+ - R-))/1000\n        uint stakerFeeRatioForVoters; // The ratio of stake to be paid to voters.\n                                      // All stakers pay a portion of their stake to all voters, stakerFeeRatioForVoters * (s+ + s-).\n                                      //All voters (pre and during boosting period) divide this portion in proportion to their reputation.\n        uint votersReputationLossRatio;//Unsuccessful pre booster voters lose votersReputationLossRatio% of their reputation.\n        uint votersGainRepRatioFromLostRep; //the percentages of the lost reputation which is divided by the successful pre boosted voters,\n                                            //in proportion to their reputation.\n                                            //The rest (100-votersGainRepRatioFromLostRep)% of lost reputation is divided between the successful wagers,\n                                            //in proportion to their stake.\n        uint[2] daoBountyParams; //daoBountyParams[0] = daoBountyConst //The DAO adds up a bounty for successful staker.\n                                //The bounty formula is: s * daoBountyConst, where s+ is the wager staked for the proposal,\n                                //and  daoBountyConst is a constant factor that is configurable and changeable by the DAO given.\n                                //  daoBountyConst should be greater than stakerFeeRatioForVoters and less than 2 * stakerFeeRatioForVoters.\n                                //daoBountyParams[1] = daoBountyLimit The daoBounty cannot be greater than daoBountyLimit.\n        address voteOnBehalf; //this address is allowed to vote of behalf of someone else.\n    }\n    struct Voter {\n        uint vote; // YES(1) ,NO(2)\n        uint reputation; // amount of voter's reputation\n        bool preBoosted;\n    }\n\n    struct Staker {\n        uint vote; // YES(1) ,NO(2)\n        uint amount; // amount of staker's stake\n        uint amountForBounty; // amount of staker's stake which will be use for bounty calculation\n    }\n\n    struct Proposal {\n        bytes32 organizationId; // the organization unique identifier the proposal is target to.\n        address callbacks;    // should fulfill voting callbacks interface.\n        uint numOfChoices;\n        uint votersStakes;\n        uint submittedTime;\n        uint boostedPhaseTime; //the time the proposal shift to relative mode.\n        ProposalState state;\n        uint winningVote; //the winning vote.\n        address proposer;\n        uint currentBoostedVotePeriodLimit;\n        bytes32 paramsHash;\n        uint daoBountyRemain;\n        uint[2] totalStakes;// totalStakes[0] - (amount staked minus fee) - Total number of tokens staked which can be redeemable by stakers.\n                           // totalStakes[1] - (amount staked) - Total number of redeemable tokens.\n        //      vote      reputation\n        mapping(uint    =>  uint     ) votes;\n        //      vote      reputation\n        mapping(uint    =>  uint     ) preBoostedVotes;\n        //      address     voter\n        mapping(address =>  Voter    ) voters;\n        //      vote        stakes\n        mapping(uint    =>  uint     ) stakes;\n        //      address  staker\n        mapping(address  => Staker   ) stakers;\n    }\n\n    event Stake(bytes32 indexed _proposalId, address indexed _organization, address indexed _staker,uint _vote,uint _amount);\n    event Redeem(bytes32 indexed _proposalId, address indexed _organization, address indexed _beneficiary,uint _amount);\n    event RedeemDaoBounty(bytes32 indexed _proposalId, address indexed _organization, address indexed _beneficiary,uint _amount);\n    event RedeemReputation(bytes32 indexed _proposalId, address indexed _organization, address indexed _beneficiary,uint _amount);\n    event GPExecuteProposal(bytes32 indexed _proposalId, ExecutionState _executionState);\n\n    mapping(bytes32=>Parameters) public parameters;  // A mapping from hashes to parameters\n    mapping(bytes32=>Proposal) public proposals; // Mapping from the ID of the proposal to the proposal itself.\n\n    uint constant public NUM_OF_CHOICES = 2;\n    uint constant public NO = 2;\n    uint constant public YES = 1;\n    uint public proposalsCnt; // Total number of proposals\n    mapping(bytes32=>uint) public orgBoostedProposalsCnt;\n    mapping(bytes32=>OrderStatisticTree.Tree) proposalsExpiredTimes; //proposals expired times\n          //organizationId => organization\n    mapping(bytes32        => address     ) public organizations;\n    StandardToken public stakingToken;\n    mapping(bytes=>bool) stakeSignatures; //stake signatures\n    address constant GEN_TOKEN_ADDRESS = 0x543Ff227F64Aa17eA132Bf9886cAb5DB55DCAddf;\n    // Digest describing the data the user signs according EIP 712.\n    // Needs to match what is passed to Metamask.\n    bytes32 public constant DELEGATION_HASH_EIP712 =\n    keccak256(abi.encodePacked(\"address GenesisProtocolAddress\",\"bytes32 ProposalId\", \"uint Vote\",\"uint AmountToStake\",\"uint Nonce\"));\n    // web3.eth.sign prefix\n    string public constant ETH_SIGN_PREFIX= \"\\x19Ethereum Signed Message:\\n32\";\n    /**\n     * @dev Constructor\n     */\n    constructor(StandardToken _stakingToken) public\n    {\n      //The GEN token (staking token) address is hard coded in the contract by GEN_TOKEN_ADDRESS .\n      //This will work for a network which already hosted the GEN token on this address (e.g mainnet).\n      //If such contract address does not exist in the network (e.g ganache) the contract will use the _stakingToken param as the\n      //staking token address.\n        if (isContract(address(GEN_TOKEN_ADDRESS))) {\n            stakingToken = StandardToken(GEN_TOKEN_ADDRESS);\n        } else {\n            stakingToken = _stakingToken;\n        }\n    }\n\n  /**\n   * @dev Check that the proposal is votable (open and not executed yet)\n   */\n    modifier votable(bytes32 _proposalId) {\n        require(_isVotable(_proposalId));\n        _;\n    }\n\n    /**\n     * @dev register a new proposal with the given parameters. Every proposal has a unique ID which is being\n     * generated by calculating keccak256 of a incremented counter.\n     * @param _numOfChoices number of voting choices\n     * @param _paramsHash parameters hash\n     * @param _proposer address\n     * @param _organization address\n     */\n    function propose(uint _numOfChoices, bytes32 _paramsHash,address _proposer,address _organization)\n        external\n        returns(bytes32)\n    {\n              // Check valid params and number of choices:\n        require(_numOfChoices == NUM_OF_CHOICES);\n         //Check parameters existence.\n        require(parameters[_paramsHash].preBoostedVoteRequiredPercentage > 0);\n            // Generate a unique ID:\n        bytes32 proposalId = keccak256(abi.encodePacked(this, proposalsCnt));\n        proposalsCnt++;\n         // Open proposal:\n        Proposal memory proposal;\n        proposal.numOfChoices = _numOfChoices;\n        proposal.callbacks = msg.sender;\n        proposal.organizationId = keccak256(abi.encodePacked(msg.sender,_organization));\n\n        proposal.state = ProposalState.PreBoosted;\n        // solium-disable-next-line security/no-block-members\n        proposal.submittedTime = now;\n        proposal.currentBoostedVotePeriodLimit = parameters[_paramsHash].boostedVotePeriodLimit;\n        proposal.proposer = _proposer;\n        proposal.winningVote = NO;\n        proposal.paramsHash = _paramsHash;\n        proposals[proposalId] = proposal;\n        if (organizations[proposal.organizationId] == 0) {\n            if (_organization == address(0)) {\n                organizations[proposal.organizationId] = msg.sender;\n            } else {\n                organizations[proposal.organizationId] = _organization;\n            }\n        }\n        emit NewProposal(proposalId, organizations[proposal.organizationId], _numOfChoices, _proposer, _paramsHash);\n        return proposalId;\n    }\n\n  /**\n   * @dev Cancel a proposal, only the owner can call this function and only if allowOwner flag is true.\n   */\n    function cancelProposal(bytes32 ) external returns(bool) {\n        //This is not allowed.\n        return false;\n    }\n\n    /**\n     * @dev staking function\n     * @param _proposalId id of the proposal\n     * @param _vote  NO(2) or YES(1).\n     * @param _amount the betting amount\n     * @return bool true - the proposal has been executed\n     *              false - otherwise.\n     */\n    function stake(bytes32 _proposalId, uint _vote, uint _amount) external returns(bool) {\n        return _stake(_proposalId,_vote,_amount,msg.sender);\n    }\n\n    /**\n     * @dev stakeWithSignature function\n     * @param _proposalId id of the proposal\n     * @param _vote  NO(2) or YES(1).\n     * @param _amount the betting amount\n     * @param _nonce nonce value ,it is part of the signature to ensure that\n              a signature can be received only once.\n     * @param _signatureType signature type\n              1 - for web3.eth.sign\n              2 - for eth_signTypedData according to EIP #712.\n     * @param _signature  - signed data by the staker\n     * @return bool true - the proposal has been executed\n     *              false - otherwise.\n     */\n    function stakeWithSignature(\n        bytes32 _proposalId,\n        uint _vote,\n        uint _amount,\n        uint _nonce,\n        uint _signatureType,\n        bytes _signature\n        )\n        external\n        returns(bool)\n        {\n        require(stakeSignatures[_signature] == false);\n        // Recreate the digest the user signed\n        bytes32 delegationDigest;\n        if (_signatureType == 2) {\n            delegationDigest = keccak256(\n                abi.encodePacked(\n                    DELEGATION_HASH_EIP712, keccak256(\n                        abi.encodePacked(\n                           address(this),\n                          _proposalId,\n                          _vote,\n                          _amount,\n                          _nonce)))\n            );\n        } else {\n            delegationDigest = keccak256(\n                abi.encodePacked(\n                    ETH_SIGN_PREFIX, keccak256(\n                        abi.encodePacked(\n                            address(this),\n                           _proposalId,\n                           _vote,\n                           _amount,\n                           _nonce)))\n            );\n        }\n        address staker = delegationDigest.recover(_signature);\n        //a garbage staker address due to wrong signature will revert due to lack of approval and funds.\n        require(staker!=address(0));\n        stakeSignatures[_signature] = true;\n        return _stake(_proposalId,_vote,_amount,staker);\n    }\n\n    /**\n     * @dev voting function\n     * @param _proposalId id of the proposal\n     * @param _vote NO(2) or YES(1).\n     * @return bool true - the proposal has been executed\n     *              false - otherwise.\n     */\n    function vote(bytes32 _proposalId, uint _vote,address _voter) external votable(_proposalId) returns(bool) {\n        Proposal storage proposal = proposals[_proposalId];\n        Parameters memory params = parameters[proposal.paramsHash];\n        address voter;\n        if (params.voteOnBehalf != address(0)) {\n            require(msg.sender == params.voteOnBehalf);\n            voter = _voter;\n        } else {\n            voter = msg.sender;\n        }\n        return internalVote(_proposalId, voter, _vote, 0);\n    }\n\n  /**\n   * @dev voting function with owner functionality (can vote on behalf of someone else)\n   * @return bool true - the proposal has been executed\n   *              false - otherwise.\n   */\n    function ownerVote(bytes32 , uint , address ) external returns(bool) {\n      //This is not allowed.\n        return false;\n    }\n\n    function voteWithSpecifiedAmounts(bytes32 _proposalId,uint _vote,uint _rep,uint,address _voter) external votable(_proposalId) returns(bool) {\n        Proposal storage proposal = proposals[_proposalId];\n        Parameters memory params = parameters[proposal.paramsHash];\n        address voter;\n        if (params.voteOnBehalf != address(0)) {\n            require(msg.sender == params.voteOnBehalf);\n            voter = _voter;\n        } else {\n            voter = msg.sender;\n        }\n        return internalVote(_proposalId,voter,_vote,_rep);\n    }\n\n  /**\n   * @dev Cancel the vote of the msg.sender.\n   * cancel vote is not allow in genesisProtocol so this function doing nothing.\n   * This function is here in order to comply to the IntVoteInterface .\n   */\n    function cancelVote(bytes32 _proposalId) external votable(_proposalId) {\n       //this is not allowed\n        return;\n    }\n\n  /**\n    * @dev getNumberOfChoices returns the number of choices possible in this proposal\n    * @param _proposalId the ID of the proposals\n    * @return uint that contains number of choices\n    */\n    function getNumberOfChoices(bytes32 _proposalId) external view returns(uint) {\n        return proposals[_proposalId].numOfChoices;\n    }\n\n    /**\n     * @dev voteInfo returns the vote and the amount of reputation of the user committed to this proposal\n     * @param _proposalId the ID of the proposal\n     * @param _voter the address of the voter\n     * @return uint vote - the voters vote\n     *        uint reputation - amount of reputation committed by _voter to _proposalId\n     */\n    function voteInfo(bytes32 _proposalId, address _voter) external view returns(uint, uint) {\n        Voter memory voter = proposals[_proposalId].voters[_voter];\n        return (voter.vote, voter.reputation);\n    }\n\n    /**\n    * @dev voteStatus returns the reputation voted for a proposal for a specific voting choice.\n    * @param _proposalId the ID of the proposal\n    * @param _choice the index in the\n    * @return voted reputation for the given choice\n    */\n    function voteStatus(bytes32 _proposalId,uint _choice) external view returns(uint) {\n        return proposals[_proposalId].votes[_choice];\n    }\n\n    /**\n    * @dev isVotable check if the proposal is votable\n    * @param _proposalId the ID of the proposal\n    * @return bool true or false\n    */\n    function isVotable(bytes32 _proposalId) external view returns(bool) {\n        return _isVotable(_proposalId);\n    }\n\n    /**\n    * @dev proposalStatus return the total votes and stakes for a given proposal\n    * @param _proposalId the ID of the proposal\n    * @return uint preBoostedVotes YES\n    * @return uint preBoostedVotes NO\n    * @return uint stakersStakes\n    * @return uint totalRedeemableStakes\n    * @return uint total stakes YES\n    * @return uint total stakes NO\n    */\n    function proposalStatus(bytes32 _proposalId) external view returns(uint, uint, uint ,uint, uint ,uint) {\n        return (\n                proposals[_proposalId].preBoostedVotes[YES],\n                proposals[_proposalId].preBoostedVotes[NO],\n                proposals[_proposalId].totalStakes[0],\n                proposals[_proposalId].totalStakes[1],\n                proposals[_proposalId].stakes[YES],\n                proposals[_proposalId].stakes[NO]\n        );\n    }\n\n  /**\n    * @dev getProposalOrganization return the organizationId for a given proposal\n    * @param _proposalId the ID of the proposal\n    * @return bytes32 organization identifier\n    */\n    function getProposalOrganization(bytes32 _proposalId) external view returns(bytes32) {\n        return (proposals[_proposalId].organizationId);\n    }\n\n    /**\n      * @dev getStaker return the vote and stake amount for a given proposal and staker\n      * @param _proposalId the ID of the proposal\n      * @param _staker staker address\n      * @return uint vote\n      * @return uint amount\n    */\n    function getStaker(bytes32 _proposalId,address _staker) external view returns(uint,uint) {\n        return (proposals[_proposalId].stakers[_staker].vote,proposals[_proposalId].stakers[_staker].amount);\n    }\n\n    /**\n      * @dev voteStake return the amount stakes for a given proposal and vote\n      * @param _proposalId the ID of the proposal\n      * @param _vote vote number\n      * @return uint stake amount\n    */\n    function voteStake(bytes32 _proposalId,uint _vote) external view returns(uint) {\n        return proposals[_proposalId].stakes[_vote];\n    }\n\n  /**\n    * @dev voteStake return the winningVote for a given proposal\n    * @param _proposalId the ID of the proposal\n    * @return uint winningVote\n    */\n    function winningVote(bytes32 _proposalId) external view returns(uint) {\n        return proposals[_proposalId].winningVote;\n    }\n\n    /**\n      * @dev voteStake return the state for a given proposal\n      * @param _proposalId the ID of the proposal\n      * @return ProposalState proposal state\n    */\n    function state(bytes32 _proposalId) external view returns(ProposalState) {\n        return proposals[_proposalId].state;\n    }\n\n   /**\n    * @dev isAbstainAllow returns if the voting machine allow abstain (0)\n    * @return bool true or false\n    */\n    function isAbstainAllow() external pure returns(bool) {\n        return false;\n    }\n\n    /**\n     * @dev getAllowedRangeOfChoices returns the allowed range of choices for a voting machine.\n     * @return min - minimum number of choices\n               max - maximum number of choices\n     */\n    function getAllowedRangeOfChoices() external pure returns(uint min,uint max) {\n        return (NUM_OF_CHOICES,NUM_OF_CHOICES);\n    }\n\n    /**\n      * @dev execute check if the proposal has been decided, and if so, execute the proposal\n      * @param _proposalId the id of the proposal\n      * @return bool true - the proposal has been executed\n      *              false - otherwise.\n     */\n    function execute(bytes32 _proposalId) external votable(_proposalId) returns(bool) {\n        return _execute(_proposalId);\n    }\n\n    /**\n     * @dev redeem a reward for a successful stake, vote or proposing.\n     * The function use a beneficiary address as a parameter (and not msg.sender) to enable\n     * users to redeem on behalf of someone else.\n     * @param _proposalId the ID of the proposal\n     * @param _beneficiary - the beneficiary address\n     * @return rewards -\n     *         rewards[0] - stakerTokenAmount\n     *         rewards[1] - stakerReputationAmount\n     *         rewards[2] - voterTokenAmount\n     *         rewards[3] - voterReputationAmount\n     *         rewards[4] - proposerReputationAmount\n     * @return reputation - redeem reputation\n     */\n    function redeem(bytes32 _proposalId,address _beneficiary) public returns (uint[5] rewards) {\n        Proposal storage proposal = proposals[_proposalId];\n        require((proposal.state == ProposalState.Executed) || (proposal.state == ProposalState.Closed),\"wrong proposal state\");\n        Parameters memory params = parameters[proposal.paramsHash];\n        uint amount;\n        uint reputation;\n        uint lostReputation;\n        if (proposal.winningVote == YES) {\n            lostReputation = proposal.preBoostedVotes[NO];\n        } else {\n            lostReputation = proposal.preBoostedVotes[YES];\n        }\n        lostReputation = (lostReputation * params.votersReputationLossRatio)/100;\n        //as staker\n        Staker storage staker = proposal.stakers[_beneficiary];\n        if ((staker.amount>0) &&\n             (staker.vote == proposal.winningVote)) {\n            uint totalWinningStakes = proposal.stakes[proposal.winningVote];\n            if (totalWinningStakes != 0) {\n                rewards[0] = (staker.amount * proposal.totalStakes[0]) / totalWinningStakes;\n            }\n            if (proposal.state != ProposalState.Closed) {\n                rewards[1] = (staker.amount * ( lostReputation - ((lostReputation * params.votersGainRepRatioFromLostRep)/100)))/proposal.stakes[proposal.winningVote];\n            }\n            staker.amount = 0;\n        }\n        //as voter\n        Voter storage voter = proposal.voters[_beneficiary];\n        if ((voter.reputation != 0 ) && (voter.preBoosted)) {\n            uint preBoostedVotes = proposal.preBoostedVotes[YES] + proposal.preBoostedVotes[NO];\n            if (preBoostedVotes>0) {\n                rewards[2] = ((proposal.votersStakes * voter.reputation) / preBoostedVotes);\n            }\n            if (proposal.state == ProposalState.Closed) {\n              //give back reputation for the voter\n                rewards[3] = ((voter.reputation * params.votersReputationLossRatio)/100);\n            } else if (proposal.winningVote == voter.vote ) {\n                rewards[3] = (((voter.reputation * params.votersReputationLossRatio)/100) +\n                (((voter.reputation * lostReputation * params.votersGainRepRatioFromLostRep)/100)/preBoostedVotes));\n            }\n            voter.reputation = 0;\n        }\n        //as proposer\n        if ((proposal.proposer == _beneficiary)&&(proposal.winningVote == YES)&&(proposal.proposer != address(0))) {\n            rewards[4] = (params.proposingRepRewardConstA.mul(proposal.votes[YES]+proposal.votes[NO]) + params.proposingRepRewardConstB.mul(proposal.votes[YES]-proposal.votes[NO]))/1000;\n            proposal.proposer = 0;\n        }\n        amount = rewards[0] + rewards[2];\n        reputation = rewards[1] + rewards[3] + rewards[4];\n        if (amount != 0) {\n            proposal.totalStakes[1] = proposal.totalStakes[1].sub(amount);\n            require(stakingToken.transfer(_beneficiary, amount));\n            emit Redeem(_proposalId,organizations[proposal.organizationId],_beneficiary,amount);\n        }\n        if (reputation != 0 ) {\n            VotingMachineCallbacksInterface(proposal.callbacks).mintReputation(reputation,_beneficiary,_proposalId);\n            emit RedeemReputation(_proposalId,organizations[proposal.organizationId],_beneficiary,reputation);\n        }\n    }\n\n    /**\n     * @dev redeemDaoBounty a reward for a successful stake, vote or proposing.\n     * The function use a beneficiary address as a parameter (and not msg.sender) to enable\n     * users to redeem on behalf of someone else.\n     * @param _proposalId the ID of the proposal\n     * @param _beneficiary - the beneficiary address\n     * @return redeemedAmount - redeem token amount\n     * @return potentialAmount - potential redeem token amount(if there is enough tokens bounty at the organization )\n     */\n    function redeemDaoBounty(bytes32 _proposalId,address _beneficiary) public returns(uint redeemedAmount,uint potentialAmount) {\n        Proposal storage proposal = proposals[_proposalId];\n        require((proposal.state == ProposalState.Executed) || (proposal.state == ProposalState.Closed));\n        uint totalWinningStakes = proposal.stakes[proposal.winningVote];\n        if (\n          // solium-disable-next-line operator-whitespace\n            (proposal.stakers[_beneficiary].amountForBounty>0)&&\n            (proposal.stakers[_beneficiary].vote == proposal.winningVote)&&\n            (proposal.winningVote == YES)&&\n            (totalWinningStakes != 0))\n        {\n            //as staker\n            Parameters memory params = parameters[proposal.paramsHash];\n            uint beneficiaryLimit = (proposal.stakers[_beneficiary].amountForBounty.mul(params.daoBountyParams[1])) / totalWinningStakes;\n            potentialAmount = (params.daoBountyParams[0].mul(proposal.stakers[_beneficiary].amountForBounty))/100;\n            if (potentialAmount > beneficiaryLimit) {\n                potentialAmount = beneficiaryLimit;\n            }\n        }\n        if ((potentialAmount != 0)&&\n            (VotingMachineCallbacksInterface(proposal.callbacks).balanceOfStakingToken(stakingToken,_proposalId) >= potentialAmount))\n        {\n            proposal.daoBountyRemain = proposal.daoBountyRemain.sub(potentialAmount);\n            require(VotingMachineCallbacksInterface(proposal.callbacks).stakingTokenTransfer(stakingToken,_beneficiary,potentialAmount,_proposalId));\n            proposal.stakers[_beneficiary].amountForBounty = 0;\n            redeemedAmount = potentialAmount;\n            emit RedeemDaoBounty(_proposalId,organizations[proposal.organizationId],_beneficiary,redeemedAmount);\n        }\n    }\n\n    /**\n     * @dev shouldBoost check if a proposal should be shifted to boosted phase.\n     * @param _proposalId the ID of the proposal\n     * @return bool true or false.\n     */\n    function shouldBoost(bytes32 _proposalId) public view returns(bool) {\n        Proposal memory proposal = proposals[_proposalId];\n        return (_score(_proposalId) >= threshold(proposal.paramsHash,proposal.organizationId));\n    }\n\n    /**\n     * @dev score return the proposal score\n     * @param _proposalId the ID of the proposal\n     * @return uint proposal score.\n     */\n    function score(bytes32 _proposalId) public view returns(int) {\n        return _score(_proposalId);\n    }\n\n    /**\n     * @dev getBoostedProposalsCount return the number of boosted proposal for an organization\n     * @param _organizationId the organization identifier\n     * @return uint number of boosted proposals\n     */\n    function getBoostedProposalsCount(bytes32 _organizationId) public view returns(uint) {\n        uint expiredProposals;\n        if (proposalsExpiredTimes[_organizationId].count() != 0) {\n          // solium-disable-next-line security/no-block-members\n            expiredProposals = proposalsExpiredTimes[_organizationId].rank(now);\n        }\n        return orgBoostedProposalsCnt[_organizationId].sub(expiredProposals);\n    }\n\n    /**\n     * @dev threshold return the organization's score threshold which required by\n     * a proposal to shift to boosted state.\n     * This threshold is dynamically set and it depend on the number of boosted proposal.\n     * @param _organizationId the organization identifier\n     * @param _paramsHash the organization parameters hash\n     * @return int organization's score threshold.\n     */\n    function threshold(bytes32 _paramsHash,bytes32 _organizationId) public view returns(int) {\n        uint boostedProposals = getBoostedProposalsCount(_organizationId);\n        int216 e = 2;\n\n        Parameters memory params = parameters[_paramsHash];\n        require(params.thresholdConstB > 0,\"should be a valid parameter hash\");\n        int256 power = int216(boostedProposals).toReal().div(int216(params.thresholdConstB).toReal());\n\n        if (power.fromReal() > 100 ) {\n            power = int216(100).toReal();\n        }\n        int256 res = int216(params.thresholdConstA).toReal().mul(e.toReal().pow(power));\n        return res.fromReal();\n    }\n\n    /**\n     * @dev hash the parameters, save them if necessary, and return the hash value\n     * @param _params a parameters array\n     *    _params[0] - _preBoostedVoteRequiredPercentage,\n     *    _params[1] - _preBoostedVotePeriodLimit, //the time limit for a proposal to be in an absolute voting mode.\n     *    _params[2] -_boostedVotePeriodLimit, //the time limit for a proposal to be in an relative voting mode.\n     *    _params[3] -_thresholdConstA\n     *    _params[4] -_thresholdConstB\n     *    _params[5] -_minimumStakingFee\n     *    _params[6] -_quietEndingPeriod\n     *    _params[7] -_proposingRepRewardConstA\n     *    _params[8] -_proposingRepRewardConstB\n     *    _params[9] -_stakerFeeRatioForVoters\n     *    _params[10] -_votersReputationLossRatio\n     *    _params[11] -_votersGainRepRatioFromLostRep\n     *    _params[12] - _daoBountyConst\n     *    _params[13] - _daoBountyLimit\n     * @param _voteOnBehalf - authorized to vote on behalf of others.\n    */\n    function setParameters(\n        uint[14] _params, //use array here due to stack too deep issue.\n        address _voteOnBehalf\n    )\n    public\n    returns(bytes32)\n    {\n        require(_params[0] <= 100 && _params[0] > 0,\"0 < preBoostedVoteRequiredPercentage <= 100\");\n        require(_params[4] > 0 && _params[4] <= 100000000,\"0 < thresholdConstB < 100000000 \");\n        require(_params[3] <= 100000000 ether,\"thresholdConstA <= 100000000 wei\");\n        require(_params[9] <= 100,\"stakerFeeRatioForVoters <= 100\");\n        require(_params[10] <= 100,\"votersReputationLossRatio <= 100\");\n        require(_params[11] <= 100,\"votersGainRepRatioFromLostRep <= 100\");\n        require(_params[2] >= _params[6],\"boostedVotePeriodLimit >= quietEndingPeriod\");\n        require(_params[7] <= 100000000,\"proposingRepRewardConstA <= 100000000\");\n        require(_params[8] <= 100000000,\"proposingRepRewardConstB <= 100000000\");\n        require(_params[12] <= (2 * _params[9]),\"daoBountyConst <= 2 * stakerFeeRatioForVoters\");\n        require(_params[12] >= _params[9],\"daoBountyConst >= stakerFeeRatioForVoters\");\n\n        bytes32 paramsHash = getParametersHash(_params, _voteOnBehalf);\n\n        uint[2] memory _daoBountyParams;\n        _daoBountyParams[0] = _params[12];\n        _daoBountyParams[1] = _params[13];\n\n        parameters[paramsHash] = Parameters({\n            preBoostedVoteRequiredPercentage: _params[0],\n            preBoostedVotePeriodLimit: _params[1],\n            boostedVotePeriodLimit: _params[2],\n            thresholdConstA:_params[3],\n            thresholdConstB:_params[4],\n            minimumStakingFee: _params[5],\n            quietEndingPeriod: _params[6],\n            proposingRepRewardConstA: _params[7],\n            proposingRepRewardConstB:_params[8],\n            stakerFeeRatioForVoters:_params[9],\n            votersReputationLossRatio:_params[10],\n            votersGainRepRatioFromLostRep:_params[11],\n            daoBountyParams:_daoBountyParams,\n            voteOnBehalf:_voteOnBehalf\n        });\n        return paramsHash;\n    }\n\n  /**\n   * @dev hashParameters returns a hash of the given parameters\n   */\n    function getParametersHash(\n        uint[14] _params,//use array here due to stack too deep issue.\n        address _voteOnBehalf\n    )\n        public\n        pure\n        returns(bytes32)\n        {\n        //double call to keccak256 to avoid deep stack issue when call with too many params.\n        return keccak256(\n            abi.encodePacked(\n             keccak256(\n              abi.encodePacked(\n                _params[0],\n                _params[1],\n                _params[2],\n                _params[3],\n                _params[4],\n                _params[5],\n                _params[6],\n                _params[7],\n                _params[8],\n                _params[9],\n                _params[10],\n                _params[11],\n                _params[12],\n                _params[13]\n             )),\n            _voteOnBehalf\n        ));\n    }\n\n    /**\n      * @dev execute check if the proposal has been decided, and if so, execute the proposal\n      * @param _proposalId the id of the proposal\n      * @return bool true - the proposal has been executed\n      *              false - otherwise.\n     */\n    function _execute(bytes32 _proposalId) internal votable(_proposalId) returns(bool) {\n        Proposal storage proposal = proposals[_proposalId];\n        Parameters memory params = parameters[proposal.paramsHash];\n        Proposal memory tmpProposal = proposal;\n        uint totalReputation = VotingMachineCallbacksInterface(proposal.callbacks).getTotalReputationSupply(_proposalId);\n        uint executionBar = totalReputation * params.preBoostedVoteRequiredPercentage/100;\n        ExecutionState executionState = ExecutionState.None;\n\n        if (proposal.state == ProposalState.PreBoosted) {\n            // solium-disable-next-line security/no-block-members\n            if ((now - proposal.submittedTime) >= params.preBoostedVotePeriodLimit) {\n                proposal.state = ProposalState.Closed;\n                proposal.winningVote = NO;\n                executionState = ExecutionState.PreBoostedTimeOut;\n             } else if (proposal.votes[proposal.winningVote] > executionBar) {\n              // someone crossed the absolute vote execution bar.\n                proposal.state = ProposalState.Executed;\n                executionState = ExecutionState.PreBoostedBarCrossed;\n               } else if ( shouldBoost(_proposalId)) {\n                //the proposal crossed its absolutePhaseScoreLimit or preBoostedVotePeriodLimit\n                //change proposal mode to boosted mode.\n                proposal.state = ProposalState.Boosted;\n                // solium-disable-next-line security/no-block-members\n                proposal.boostedPhaseTime = now;\n                proposalsExpiredTimes[proposal.organizationId].insert(proposal.boostedPhaseTime + proposal.currentBoostedVotePeriodLimit);\n                orgBoostedProposalsCnt[proposal.organizationId]++;\n              }\n           }\n\n        if ((proposal.state == ProposalState.Boosted) ||\n            (proposal.state == ProposalState.QuietEndingPeriod)) {\n            // solium-disable-next-line security/no-block-members\n            if ((now - proposal.boostedPhaseTime) >= proposal.currentBoostedVotePeriodLimit) {\n                proposalsExpiredTimes[proposal.organizationId].remove(proposal.boostedPhaseTime + proposal.currentBoostedVotePeriodLimit);\n                proposal.state = ProposalState.Executed;\n                orgBoostedProposalsCnt[tmpProposal.organizationId] = orgBoostedProposalsCnt[tmpProposal.organizationId].sub(1);\n                executionState = ExecutionState.BoostedTimeOut;\n             } else if (proposal.votes[proposal.winningVote] > executionBar) {\n               // someone crossed the absolute vote execution bar.\n                orgBoostedProposalsCnt[tmpProposal.organizationId] = orgBoostedProposalsCnt[tmpProposal.organizationId].sub(1);\n                proposalsExpiredTimes[proposal.organizationId].remove(proposal.boostedPhaseTime + proposal.currentBoostedVotePeriodLimit);\n                proposal.state = ProposalState.Executed;\n                executionState = ExecutionState.BoostedBarCrossed;\n            }\n       }\n        if (executionState != ExecutionState.None) {\n            if (proposal.winningVote == YES) {\n                uint daoBountyRemain = (params.daoBountyParams[0].mul(proposal.stakes[proposal.winningVote]))/100;\n                if (daoBountyRemain > params.daoBountyParams[1]) {\n                    daoBountyRemain = params.daoBountyParams[1];\n                }\n                proposal.daoBountyRemain = daoBountyRemain;\n            }\n            emit ExecuteProposal(_proposalId, organizations[proposal.organizationId], proposal.winningVote, totalReputation);\n            emit GPExecuteProposal(_proposalId, executionState);\n            ProposalExecuteInterface(proposal.callbacks).executeProposal(_proposalId,int(proposal.winningVote));\n        }\n        return (executionState != ExecutionState.None);\n    }\n\n    /**\n     * @dev staking function\n     * @param _proposalId id of the proposal\n     * @param _vote  NO(2) or YES(1).\n     * @param _amount the betting amount\n     * @return bool true - the proposal has been executed\n     *              false - otherwise.\n     */\n    function _stake(bytes32 _proposalId, uint _vote, uint _amount,address _staker) internal returns(bool) {\n        // 0 is not a valid vote.\n        require(_vote <= NUM_OF_CHOICES && _vote > 0);\n        require(_amount > 0);\n        if (_execute(_proposalId)) {\n            return true;\n        }\n\n        Proposal storage proposal = proposals[_proposalId];\n\n        if (proposal.state != ProposalState.PreBoosted) {\n            return false;\n        }\n\n        // enable to increase stake only on the previous stake vote\n        Staker storage staker = proposal.stakers[_staker];\n        if ((staker.amount > 0) && (staker.vote != _vote)) {\n            return false;\n        }\n\n        uint amount = _amount;\n        Parameters memory params = parameters[proposal.paramsHash];\n        require(amount >= params.minimumStakingFee);\n        require(stakingToken.transferFrom(_staker, address(this), amount));\n        proposal.totalStakes[1] = proposal.totalStakes[1].add(amount); //update totalRedeemableStakes\n        staker.amount += amount;\n        staker.amountForBounty = staker.amount;\n        staker.vote = _vote;\n\n        proposal.votersStakes += (params.stakerFeeRatioForVoters * amount)/100;\n        proposal.stakes[_vote] = amount.add(proposal.stakes[_vote]);\n        amount = amount - ((params.stakerFeeRatioForVoters*amount)/100);\n        proposal.totalStakes[0] = amount.add(proposal.totalStakes[0]);\n      // Event:\n        emit Stake(_proposalId, organizations[proposal.organizationId], _staker, _vote, _amount);\n      // execute the proposal if this vote was decisive:\n        return _execute(_proposalId);\n    }\n\n    /**\n     * @dev Vote for a proposal, if the voter already voted, cancel the last vote and set a new one instead\n     * @param _proposalId id of the proposal\n     * @param _voter used in case the vote is cast for someone else\n     * @param _vote a value between 0 to and the proposal's number of choices.\n     * @param _rep how many reputation the voter would like to stake for this vote.\n     *         if  _rep==0 so the voter full reputation will be use.\n     * @return true in case of proposal execution otherwise false\n     * throws if proposal is not open or if it has been executed\n     * NB: executes the proposal if a decision has been reached\n     */\n    function internalVote(bytes32 _proposalId, address _voter, uint _vote, uint _rep) private returns(bool) {\n        // 0 is not a valid vote.\n        require(_vote <= NUM_OF_CHOICES && _vote > 0,\"0 < _vote <= 2\");\n        if (_execute(_proposalId)) {\n            return true;\n        }\n\n        Parameters memory params = parameters[proposals[_proposalId].paramsHash];\n        Proposal storage proposal = proposals[_proposalId];\n\n        // Check voter has enough reputation:\n        uint reputation = VotingMachineCallbacksInterface(proposal.callbacks).reputationOf(_voter,_proposalId);\n        require(reputation >= _rep,\"reputation >= _rep\");\n        uint rep = _rep;\n        if (rep == 0) {\n            rep = reputation;\n        }\n        // If this voter has already voted, return false.\n        if (proposal.voters[_voter].reputation != 0) {\n            return false;\n        }\n        // The voting itself:\n        proposal.votes[_vote] = rep.add(proposal.votes[_vote]);\n        //check if the current winningVote changed or there is a tie.\n                //for the case there is a tie the current winningVote set to NO.\n        if ((proposal.votes[_vote] > proposal.votes[proposal.winningVote]) ||\n           ((proposal.votes[NO] == proposal.votes[proposal.winningVote]) &&\n             proposal.winningVote == YES))\n        {\n            // solium-disable-next-line security/no-block-members\n            uint _now = now;\n            if ((proposal.state == ProposalState.QuietEndingPeriod) ||\n               ((proposal.state == ProposalState.Boosted) && ((_now - proposal.boostedPhaseTime) >= (params.boostedVotePeriodLimit - params.quietEndingPeriod)))) {\n                //quietEndingPeriod\n                proposalsExpiredTimes[proposal.organizationId].remove(proposal.boostedPhaseTime + proposal.currentBoostedVotePeriodLimit);\n                if (proposal.state != ProposalState.QuietEndingPeriod) {\n                    proposal.currentBoostedVotePeriodLimit = params.quietEndingPeriod;\n                    proposal.state = ProposalState.QuietEndingPeriod;\n                }\n                proposal.boostedPhaseTime = _now;\n                proposalsExpiredTimes[proposal.organizationId].insert(proposal.boostedPhaseTime + proposal.currentBoostedVotePeriodLimit);\n            }\n            proposal.winningVote = _vote;\n        }\n        proposal.voters[_voter] = Voter({\n            reputation: rep,\n            vote: _vote,\n            preBoosted:(proposal.state == ProposalState.PreBoosted)\n        });\n        if (proposal.state == ProposalState.PreBoosted) {\n            proposal.preBoostedVotes[_vote] = rep.add(proposal.preBoostedVotes[_vote]);\n            uint reputationDeposit = (params.votersReputationLossRatio * rep)/100;\n            VotingMachineCallbacksInterface(proposal.callbacks).burnReputation(reputationDeposit,_voter,_proposalId);\n        }\n        // Event:\n        emit VoteProposal(_proposalId, organizations[proposal.organizationId], _voter, _vote, rep);\n        // execute the proposal if this vote was decisive:\n        return _execute(_proposalId);\n    }\n\n    /**\n     * @dev _score return the proposal score\n     * For dual choice proposal S = (S+) - (S-)\n     * @param _proposalId the ID of the proposal\n     * @return int proposal score.\n     */\n    function _score(bytes32 _proposalId) private view returns(int) {\n        Proposal storage proposal = proposals[_proposalId];\n        return int(proposal.stakes[YES]) - int(proposal.stakes[NO]);\n    }\n\n    /**\n      * @dev _isVotable check if the proposal is votable\n      * @param _proposalId the ID of the proposal\n      * @return bool true or false\n    */\n    function _isVotable(bytes32 _proposalId) private view returns(bool) {\n        ProposalState pState = proposals[_proposalId].state;\n        return ((pState == ProposalState.PreBoosted)||(pState == ProposalState.Boosted)||(pState == ProposalState.QuietEndingPeriod));\n    }\n\n    /**\n      * @dev isContract check if a given address is a contract address\n      * @param _addr the address to check.\n      * @return bool true or false\n    */\n    function isContract(address _addr) private view returns (bool) {\n        uint32 size;\n        // solium-disable-next-line security/no-inline-assembly\n        assembly {\n          size := extcodesize(_addr)\n        }\n        return (size > 0);\n    }\n\n}\n",
  "sourcePath": "@daostack/infra/contracts/votingMachines/GenesisProtocol.sol",
  "compiler": {
    "name": "solc",
    "version": "0.4.25+commit.59dbf8f1.Emscripten.clang"
  },
  "schemaVersion": "3.0.0-beta.1",
  "updatedAt": "2018-11-08T19:26:03.930Z"
}