{
  "contractName": "Identity",
  "abi": [
    {
      "constant": true,
      "inputs": [],
      "name": "votingParams",
      "outputs": [
        {
          "name": "",
          "type": "bytes32"
        }
      ],
      "payable": false,
      "stateMutability": "view",
      "type": "function",
      "signature": "0x1e867d59"
    },
    {
      "constant": true,
      "inputs": [
        {
          "name": "",
          "type": "bytes32"
        }
      ],
      "name": "proposals",
      "outputs": [
        {
          "name": "",
          "type": "address"
        }
      ],
      "payable": false,
      "stateMutability": "view",
      "type": "function",
      "signature": "0x32ed5b12"
    },
    {
      "constant": true,
      "inputs": [],
      "name": "genesis",
      "outputs": [
        {
          "name": "",
          "type": "address"
        }
      ],
      "payable": false,
      "stateMutability": "view",
      "type": "function",
      "signature": "0xa7f0b3de"
    },
    {
      "constant": true,
      "inputs": [
        {
          "name": "",
          "type": "address"
        }
      ],
      "name": "profiles",
      "outputs": [
        {
          "name": "state",
          "type": "uint256"
        },
        {
          "name": "proposalId",
          "type": "bytes32"
        },
        {
          "name": "identityHash",
          "type": "bytes32"
        }
      ],
      "payable": false,
      "stateMutability": "view",
      "type": "function",
      "signature": "0xbbe15627"
    },
    {
      "constant": true,
      "inputs": [],
      "name": "reputation",
      "outputs": [
        {
          "name": "",
          "type": "address"
        }
      ],
      "payable": false,
      "stateMutability": "view",
      "type": "function",
      "signature": "0xc52164c6"
    },
    {
      "inputs": [
        {
          "name": "_genesis",
          "type": "address"
        },
        {
          "name": "_votingParams",
          "type": "bytes32"
        },
        {
          "name": "_founderIdentityHash",
          "type": "bytes32"
        }
      ],
      "payable": false,
      "stateMutability": "nonpayable",
      "type": "constructor",
      "signature": "constructor"
    },
    {
      "anonymous": false,
      "inputs": [
        {
          "indexed": true,
          "name": "_address",
          "type": "address"
        },
        {
          "indexed": true,
          "name": "_proposalId",
          "type": "bytes32"
        },
        {
          "indexed": true,
          "name": "_identityHash",
          "type": "bytes32"
        }
      ],
      "name": "ProfileProposal",
      "type": "event",
      "signature": "0x6adedc1a7f0019fe3b647be310835e7b1acfa71bcf1e4e3d454947f42154b847"
    },
    {
      "anonymous": false,
      "inputs": [
        {
          "indexed": true,
          "name": "_address",
          "type": "address"
        },
        {
          "indexed": true,
          "name": "_proposalId",
          "type": "bytes32"
        },
        {
          "indexed": true,
          "name": "_identityHash",
          "type": "bytes32"
        }
      ],
      "name": "ProfileApproved",
      "type": "event",
      "signature": "0xdf711910098db5d58aa652ef498f8e5d074e9e0865976dd2bb83ecfc7c675566"
    },
    {
      "anonymous": false,
      "inputs": [
        {
          "indexed": true,
          "name": "_address",
          "type": "address"
        },
        {
          "indexed": true,
          "name": "_proposalId",
          "type": "bytes32"
        },
        {
          "indexed": true,
          "name": "_identityHash",
          "type": "bytes32"
        }
      ],
      "name": "ProfileDeclined",
      "type": "event",
      "signature": "0x52e4fa873df309d2fc08dc19f7a9b6ffb5690d8dd0e5df4a8aaa2c15e40286c4"
    },
    {
      "constant": false,
      "inputs": [
        {
          "name": "_identityHash",
          "type": "bytes32"
        }
      ],
      "name": "proposeProfile",
      "outputs": [],
      "payable": true,
      "stateMutability": "payable",
      "type": "function",
      "signature": "0xfaba8ff5"
    },
    {
      "constant": false,
      "inputs": [
        {
          "name": "_proposalId",
          "type": "bytes32"
        },
        {
          "name": "_decision",
          "type": "int256"
        }
      ],
      "name": "executeProposal",
      "outputs": [],
      "payable": false,
      "stateMutability": "nonpayable",
      "type": "function",
      "signature": "0x9d4c162d"
    },
    {
      "constant": true,
      "inputs": [
        {
          "name": "_owner",
          "type": "address"
        },
        {
          "name": "",
          "type": "bytes32"
        }
      ],
      "name": "reputationOf",
      "outputs": [
        {
          "name": "",
          "type": "uint256"
        }
      ],
      "payable": false,
      "stateMutability": "view",
      "type": "function",
      "signature": "0x9588378e"
    },
    {
      "constant": true,
      "inputs": [
        {
          "name": "",
          "type": "bytes32"
        }
      ],
      "name": "getTotalReputationSupply",
      "outputs": [
        {
          "name": "",
          "type": "uint256"
        }
      ],
      "payable": false,
      "stateMutability": "view",
      "type": "function",
      "signature": "0xb551c373"
    },
    {
      "constant": false,
      "inputs": [
        {
          "name": "",
          "type": "uint256"
        },
        {
          "name": "",
          "type": "address"
        },
        {
          "name": "",
          "type": "bytes32"
        }
      ],
      "name": "mintReputation",
      "outputs": [
        {
          "name": "",
          "type": "bool"
        }
      ],
      "payable": false,
      "stateMutability": "nonpayable",
      "type": "function",
      "signature": "0xd29b5d2f"
    },
    {
      "constant": false,
      "inputs": [
        {
          "name": "",
          "type": "uint256"
        },
        {
          "name": "",
          "type": "address"
        },
        {
          "name": "",
          "type": "bytes32"
        }
      ],
      "name": "burnReputation",
      "outputs": [
        {
          "name": "",
          "type": "bool"
        }
      ],
      "payable": false,
      "stateMutability": "nonpayable",
      "type": "function",
      "signature": "0xf81f8bf6"
    },
    {
      "constant": false,
      "inputs": [
        {
          "name": "",
          "type": "address"
        },
        {
          "name": "",
          "type": "address"
        },
        {
          "name": "",
          "type": "uint256"
        },
        {
          "name": "",
          "type": "bytes32"
        }
      ],
      "name": "stakingTokenTransfer",
      "outputs": [
        {
          "name": "",
          "type": "bool"
        }
      ],
      "payable": false,
      "stateMutability": "nonpayable",
      "type": "function",
      "signature": "0xbea75f28"
    },
    {
      "constant": true,
      "inputs": [
        {
          "name": "",
          "type": "address"
        },
        {
          "name": "",
          "type": "bytes32"
        }
      ],
      "name": "balanceOfStakingToken",
      "outputs": [
        {
          "name": "",
          "type": "uint256"
        }
      ],
      "payable": false,
      "stateMutability": "view",
      "type": "function",
      "signature": "0x6b8eb403"
    }
  ],
  "bytecode": "0x608060405234801561001057600080fd5b506040516060806111b0833981016040908152815160208301519190920151610037610176565b604051809103906000f080158015610053573d6000803e3d6000fd5b5060028054600160a060020a0319908116600160a060020a0393841617909155600380549091169185169190911790556004829055604051819060009033907fdf711910098db5d58aa652ef498f8e5d074e9e0865976dd2bb83ecfc7c675566908390a4336000818152602081815260408083206003815560029081018690555481517f40c10f190000000000000000000000000000000000000000000000000000000081526004810195909552670de0b6b3a764000060248601529051600160a060020a03909116936340c10f199360448083019493928390030190829087803b15801561014157600080fd5b505af1158015610155573d6000803e3d6000fd5b505050506040513d602081101561016b57600080fd5b506101869350505050565b6040516108bf806108f183390190565b61075c806101956000396000f3006080604052600436106100c45763ffffffff7c01000000000000000000000000000000000000000000000000000000006000350416631e867d5981146100c957806332ed5b12146100f05780636b8eb403146101245780639588378e146101485780639d4c162d1461016c578063a7f0b3de14610189578063b551c3731461019e578063bbe15627146101b6578063bea75f28146101f5578063c52164c614610236578063d29b5d2f1461024b578063f81f8bf61461024b578063faba8ff514610272575b600080fd5b3480156100d557600080fd5b506100de61027d565b60408051918252519081900360200190f35b3480156100fc57600080fd5b50610108600435610283565b60408051600160a060020a039092168252519081900360200190f35b34801561013057600080fd5b506100de600160a060020a036004351660243561029e565b34801561015457600080fd5b506100de600160a060020a03600435166024356102a6565b34801561017857600080fd5b50610187600435602435610344565b005b34801561019557600080fd5b506101086104ec565b3480156101aa57600080fd5b506100de6004356104fb565b3480156101c257600080fd5b506101d7600160a060020a036004351661058c565b60408051938452602084019290925282820152519081900360600190f35b34801561020157600080fd5b50610222600160a060020a03600435811690602435166044356064356105ad565b604080519115158252519081900360200190f35b34801561024257600080fd5b506101086105b7565b34801561025757600080fd5b50610222600435600160a060020a03602435166044356105c6565b6101876004356105cf565b60045481565b600160205260009081526040902054600160a060020a031681565b600092915050565b600254604080517f70a08231000000000000000000000000000000000000000000000000000000008152600160a060020a038581166004830152915160009392909216916370a082319160248082019260209290919082900301818787803b15801561031157600080fd5b505af1158015610325573d6000803e3d6000fd5b505050506040513d602081101561033b57600080fd5b50909392505050565b600354600090600160a060020a0316331461035e57600080fd5b50600082815260016020819052604090912054600160a060020a03169082141561048157600160a060020a0381166000818152602081905260408082206002015490519092869290917fdf711910098db5d58aa652ef498f8e5d074e9e0865976dd2bb83ecfc7c6755669190a4600160a060020a038082166000818152602081815260408083206003905560025481517f40c10f190000000000000000000000000000000000000000000000000000000081526004810195909552670de0b6b3a7640000602486015290519416936340c10f1993604480820194918390030190829087803b15801561044f57600080fd5b505af1158015610463573d6000803e3d6000fd5b505050506040513d602081101561047957600080fd5b506104e79050565b600160a060020a0381166000818152602081905260408082206002015490519092869290917f52e4fa873df309d2fc08dc19f7a9b6ffb5690d8dd0e5df4a8aaa2c15e40286c49190a4600160a060020a0381166000908152602081905260409020600290555b505050565b600354600160a060020a031681565b600254604080517f18160ddd0000000000000000000000000000000000000000000000000000000081529051600092600160a060020a0316916318160ddd91600480830192602092919082900301818787803b15801561055a57600080fd5b505af115801561056e573d6000803e3d6000fd5b505050506040513d602081101561058457600080fd5b509092915050565b60006020819052908152604090208054600182015460029092015490919083565b6000949350505050565b600254600160a060020a031681565b60009392505050565b33600090815260208190526040812054156105e957600080fd5b60035460048054604080517f88737b5e000000000000000000000000000000000000000000000000000000008152600293810193909352602483019190915233604483015230606483015251600160a060020a03909216916388737b5e916084808201926020929091908290030181600087803b15801561066957600080fd5b505af115801561067d573d6000803e3d6000fd5b505050506040513d602081101561069357600080fd5b50516040519091508290829033907f6adedc1a7f0019fe3b647be310835e7b1acfa71bcf1e4e3d454947f42154b84790600090a46000818152600160208181526040808420805473ffffffffffffffffffffffffffffffffffffffff1916339081179091558151606081018352848152808401968752808301978852908552918490529092209151825591519181019190915590516002909101555600a165627a7a72305820146a9959906a5588af0f06dcdb2b22b8322a31eb8cae78a801ed9d3271f70302002960806040526000805460a060020a60ff0219167412000000000000000000000000000000000000000017905534801561003757600080fd5b5060008054600160a060020a03191633179055436001556108628061005d6000396000f3006080604052600436106100a35763ffffffff7c01000000000000000000000000000000000000000000000000000000006000350416631763451481146100a857806318160ddd146100cf578063313ce567146100e457806340c10f191461010f5780634ee2cd7e1461014757806370a082311461016b5780638da5cb5b1461018c578063981b24d0146101bd5780639dc29fac146101d5578063f2fde38b146101f9575b600080fd5b3480156100b457600080fd5b506100bd61021c565b60408051918252519081900360200190f35b3480156100db57600080fd5b506100bd610222565b3480156100f057600080fd5b506100f9610233565b6040805160ff9092168252519081900360200190f35b34801561011b57600080fd5b50610133600160a060020a0360043516602435610254565b604080519115158252519081900360200190f35b34801561015357600080fd5b506100bd600160a060020a036004351660243561031e565b34801561017757600080fd5b506100bd600160a060020a03600435166103b2565b34801561019857600080fd5b506101a16103c6565b60408051600160a060020a039092168252519081900360200190f35b3480156101c957600080fd5b506100bd6004356103d5565b3480156101e157600080fd5b50610133600160a060020a0360043516602435610429565b34801561020557600080fd5b5061021a600160a060020a03600435166104f5565b005b60015481565b600061022d436103d5565b90505b90565b60005474010000000000000000000000000000000000000000900460ff1681565b6000805481908190600160a060020a0316331461027057600080fd5b610278610222565b915083820182111561028957600080fd5b610292856103b2565b90508381018111156102a357600080fd5b6102b06003858401610589565b600160a060020a03851660009081526002602052604090206102d490828601610589565b604080518581529051600160a060020a038716917f0f6798a560793a54c3bcfe86a93cde1e73087d944c0ea20544137d4121396885919081900360200190a2506001949350505050565b600160a060020a038216600090815260026020526040812054158061037a5750600160a060020a03831660009081526002602052604081208054849290811061036357fe5b6000918252602090912001546001608060020a0316115b15610387575060006103ac565b600160a060020a03831660009081526002602052604090206103a99083610692565b90505b92915050565b60006103be824361031e565b90505b919050565b600054600160a060020a031681565b600354600090158061040a575081600360008154811015156103f357fe5b6000918252602090912001546001608060020a0316115b15610417575060006103c1565b610422600383610692565b90506103c1565b60008054819081908190600160a060020a0316331461044757600080fd5b61044f610222565b925084915081831015610460578291505b610469866103b2565b905081811015610477578091505b6104846003838503610589565b600160a060020a03861660009081526002602052604090206104a890838303610589565b604080518381529051600160a060020a038816917fcc16f5dbb4873280815c1ee09dbd06736cffcc184412cf7a71a0fdb75d397ca5919081900360200190a2600193505b50505092915050565b600054600160a060020a0316331461050c57600080fd5b600160a060020a038116151561052157600080fd5b60008054604051600160a060020a03808516939216917f8be0079c531659141344cd1fd0a4f28419497f9722a3daafe3b4186f6b6457e091a36000805473ffffffffffffffffffffffffffffffffffffffff1916600160a060020a0392909216919091179055565b6000806001608060020a03831683146105a157600080fd5b835415806105d5575083544390859060001981019081106105be57fe5b6000918252602090912001546001608060020a0316105b1561064757835484906105eb82600183016107ef565b815481106105f557fe5b600091825260209091200180546001608060020a03858116700100000000000000000000000000000000024382166fffffffffffffffffffffffffffffffff199093169290921716178155915061068c565b83548490600019810190811061065957fe5b600091825260209091200180546001608060020a0380861670010000000000000000000000000000000002911617815590505b50505050565b6000806000808580549050600014156106ae57600093506104ec565b8554869060001981019081106106c057fe5b6000918252602090912001546001608060020a0316851061071d578554869060001981019081106106ed57fe5b60009182526020909120015470010000000000000000000000000000000090046001608060020a031693506104ec565b85600081548110151561072c57fe5b6000918252602090912001546001608060020a031685101561075157600093506104ec565b8554600093506000190191505b828211156107ae57600260018385010104905084868281548110151561078057fe5b6000918252602090912001546001608060020a0316116107a2578092506107a9565b6001810391505b61075e565b85838154811015156107bc57fe5b60009182526020909120015470010000000000000000000000000000000090046001608060020a03169695505050505050565b81548183558181111561081357600083815260209020610813918101908301610818565b505050565b61023091905b80821115610832576000815560010161081e565b50905600a165627a7a7230582050ba8b3756e24fb046282b2cd96105ecff1e24d306ddd22c6de0db39be8370790029",
  "source": "pragma solidity ^0.4.24;\r\n\r\nimport \"../daostack/contracts/votingMachines/GenesisProtocol.sol\";\r\nimport \"../daostack/contracts/Reputation.sol\";\r\nimport \"../daostack/contracts/votingMachines/VotingMachineCallbacksInterface.sol\";\r\n\r\n\r\ncontract Identity is VotingMachineCallbacksInterface, ProposalExecuteInterface {\r\n    event ProfileProposal(address indexed _address, bytes32 indexed _proposalId, bytes32 indexed _identityHash);\r\n    event ProfileApproved(address indexed _address, bytes32 indexed _proposalId, bytes32 indexed _identityHash);\r\n    event ProfileDeclined(address indexed _address, bytes32 indexed _proposalId, bytes32 indexed _identityHash);\r\n\r\n    struct Profile {\r\n        uint state; // 0 - Does not exist\r\n                    // 1 - On Vote\r\n                    // 2 - declined\r\n                    // 3 - approved\r\n        bytes32 proposalId;\r\n        bytes32 identityHash;\r\n    }\r\n\r\n    mapping (address=>Profile) public profiles;\r\n    mapping (bytes32=>address) public proposals;\r\n    Reputation public reputation;\r\n    GenesisProtocol public genesis;\r\n    bytes32 public votingParams;\r\n\r\n    modifier onlyVotingMachine () {\r\n        require(msg.sender == address(genesis));\r\n        _;\r\n    }\r\n\r\n    constructor(GenesisProtocol _genesis, bytes32 _votingParams, bytes32 _founderIdentityHash) public {\r\n        reputation = new Reputation();\r\n        genesis = _genesis;\r\n        votingParams = _votingParams;\r\n        emit ProfileApproved(msg.sender, bytes32(0), _founderIdentityHash);\r\n        profiles[msg.sender].state = 3;\r\n        profiles[msg.sender].identityHash = _founderIdentityHash;\r\n        reputation.mint(msg.sender, 10**18); // Mint 1 Reputation\r\n    }\r\n\r\n    function proposeProfile(bytes32 _identityHash) payable public {\r\n        // Check user is not listed:\r\n        require(profiles[msg.sender].state == 0);\r\n\r\n        // Open proposal:\r\n        bytes32 id = genesis.propose(2, votingParams, msg.sender, this);\r\n        emit ProfileProposal(msg.sender, id, _identityHash);\r\n        proposals[id] = msg.sender;\r\n        profiles[msg.sender] = Profile({\r\n            state: 1,\r\n            proposalId: id,\r\n            identityHash: _identityHash\r\n        });\r\n    }\r\n\r\n    function executeProposal(bytes32 _proposalId, int _decision) onlyVotingMachine public  {\r\n        address profile = proposals[_proposalId];\r\n        if (_decision == 1) {\r\n            emit ProfileApproved(profile, _proposalId, profiles[profile].identityHash);\r\n            profiles[profile].state = 3;\r\n            reputation.mint(profile, 10**18); // Mint 1 Reputation\r\n        } else {\r\n            emit ProfileDeclined(profile, _proposalId, profiles[profile].identityHash);\r\n            profiles[profile].state = 2;\r\n        }\r\n    }\r\n\r\n    function reputationOf(address _owner, bytes32) external view returns(uint) {\r\n        reputation.balanceOf(_owner);\r\n    }\r\n\r\n    function getTotalReputationSupply(bytes32) external view returns(uint256) {\r\n        reputation.totalSupply();\r\n    }\r\n\r\n    function mintReputation(uint, address , bytes32) external returns(bool) {\r\n    }\r\n\r\n    function burnReputation(uint, address, bytes32) external returns(bool) {\r\n    }\r\n\r\n    function stakingTokenTransfer(StandardToken, address, uint, bytes32) external returns(bool) {\r\n    }\r\n\r\n    function balanceOfStakingToken(StandardToken, bytes32) external view returns(uint) {\r\n    }\r\n}\r\n",
  "sourcePath": "D:/projects/gooddollar/poc4/imports/blockchain/contracts/Identity.sol",
  "compiler": {
    "name": "solc",
    "version": "0.4.25+commit.59dbf8f1.Emscripten.clang"
  },
  "schemaVersion": "3.0.0-beta.2",
  "updatedAt": "2018-12-16T13:21:49.480Z",
  "devdoc": {
    "methods": {}
  },
  "userdoc": {
    "methods": {}
  }
}