{
  "contractName": "Reputation",
  "abi": [
    {
      "constant": true,
      "inputs": [],
      "name": "creationBlock",
      "outputs": [
        {
          "name": "",
          "type": "uint256"
        }
      ],
      "payable": false,
      "stateMutability": "view",
      "type": "function"
    },
    {
      "constant": true,
      "inputs": [],
      "name": "decimals",
      "outputs": [
        {
          "name": "",
          "type": "uint8"
        }
      ],
      "payable": false,
      "stateMutability": "view",
      "type": "function"
    },
    {
      "constant": true,
      "inputs": [],
      "name": "owner",
      "outputs": [
        {
          "name": "",
          "type": "address"
        }
      ],
      "payable": false,
      "stateMutability": "view",
      "type": "function"
    },
    {
      "constant": false,
      "inputs": [
        {
          "name": "newOwner",
          "type": "address"
        }
      ],
      "name": "transferOwnership",
      "outputs": [],
      "payable": false,
      "stateMutability": "nonpayable",
      "type": "function"
    },
    {
      "inputs": [],
      "payable": false,
      "stateMutability": "nonpayable",
      "type": "constructor"
    },
    {
      "anonymous": false,
      "inputs": [
        {
          "indexed": true,
          "name": "_to",
          "type": "address"
        },
        {
          "indexed": false,
          "name": "_amount",
          "type": "uint256"
        }
      ],
      "name": "Mint",
      "type": "event"
    },
    {
      "anonymous": false,
      "inputs": [
        {
          "indexed": true,
          "name": "_from",
          "type": "address"
        },
        {
          "indexed": false,
          "name": "_amount",
          "type": "uint256"
        }
      ],
      "name": "Burn",
      "type": "event"
    },
    {
      "anonymous": false,
      "inputs": [
        {
          "indexed": true,
          "name": "previousOwner",
          "type": "address"
        },
        {
          "indexed": true,
          "name": "newOwner",
          "type": "address"
        }
      ],
      "name": "OwnershipTransferred",
      "type": "event"
    },
    {
      "constant": true,
      "inputs": [],
      "name": "totalSupply",
      "outputs": [
        {
          "name": "",
          "type": "uint256"
        }
      ],
      "payable": false,
      "stateMutability": "view",
      "type": "function"
    },
    {
      "constant": true,
      "inputs": [
        {
          "name": "_owner",
          "type": "address"
        }
      ],
      "name": "balanceOf",
      "outputs": [
        {
          "name": "balance",
          "type": "uint256"
        }
      ],
      "payable": false,
      "stateMutability": "view",
      "type": "function"
    },
    {
      "constant": true,
      "inputs": [
        {
          "name": "_owner",
          "type": "address"
        },
        {
          "name": "_blockNumber",
          "type": "uint256"
        }
      ],
      "name": "balanceOfAt",
      "outputs": [
        {
          "name": "",
          "type": "uint256"
        }
      ],
      "payable": false,
      "stateMutability": "view",
      "type": "function"
    },
    {
      "constant": true,
      "inputs": [
        {
          "name": "_blockNumber",
          "type": "uint256"
        }
      ],
      "name": "totalSupplyAt",
      "outputs": [
        {
          "name": "",
          "type": "uint256"
        }
      ],
      "payable": false,
      "stateMutability": "view",
      "type": "function"
    },
    {
      "constant": false,
      "inputs": [
        {
          "name": "_owner",
          "type": "address"
        },
        {
          "name": "_amount",
          "type": "uint256"
        }
      ],
      "name": "mint",
      "outputs": [
        {
          "name": "",
          "type": "bool"
        }
      ],
      "payable": false,
      "stateMutability": "nonpayable",
      "type": "function"
    },
    {
      "constant": false,
      "inputs": [
        {
          "name": "_owner",
          "type": "address"
        },
        {
          "name": "_amount",
          "type": "uint256"
        }
      ],
      "name": "burn",
      "outputs": [
        {
          "name": "",
          "type": "bool"
        }
      ],
      "payable": false,
      "stateMutability": "nonpayable",
      "type": "function"
    }
  ],
  "bytecode": "0x60806040526000805460a060020a60ff0219167412000000000000000000000000000000000000000017905534801561003757600080fd5b5060008054600160a060020a03191633179055436001556108628061005d6000396000f3006080604052600436106100a35763ffffffff7c01000000000000000000000000000000000000000000000000000000006000350416631763451481146100a857806318160ddd146100cf578063313ce567146100e457806340c10f191461010f5780634ee2cd7e1461014757806370a082311461016b5780638da5cb5b1461018c578063981b24d0146101bd5780639dc29fac146101d5578063f2fde38b146101f9575b600080fd5b3480156100b457600080fd5b506100bd61021c565b60408051918252519081900360200190f35b3480156100db57600080fd5b506100bd610222565b3480156100f057600080fd5b506100f9610233565b6040805160ff9092168252519081900360200190f35b34801561011b57600080fd5b50610133600160a060020a0360043516602435610254565b604080519115158252519081900360200190f35b34801561015357600080fd5b506100bd600160a060020a036004351660243561031e565b34801561017757600080fd5b506100bd600160a060020a03600435166103b2565b34801561019857600080fd5b506101a16103c6565b60408051600160a060020a039092168252519081900360200190f35b3480156101c957600080fd5b506100bd6004356103d5565b3480156101e157600080fd5b50610133600160a060020a0360043516602435610429565b34801561020557600080fd5b5061021a600160a060020a03600435166104f5565b005b60015481565b600061022d436103d5565b90505b90565b60005474010000000000000000000000000000000000000000900460ff1681565b6000805481908190600160a060020a0316331461027057600080fd5b610278610222565b915083820182111561028957600080fd5b610292856103b2565b90508381018111156102a357600080fd5b6102b06003858401610589565b600160a060020a03851660009081526002602052604090206102d490828601610589565b604080518581529051600160a060020a038716917f0f6798a560793a54c3bcfe86a93cde1e73087d944c0ea20544137d4121396885919081900360200190a2506001949350505050565b600160a060020a038216600090815260026020526040812054158061037a5750600160a060020a03831660009081526002602052604081208054849290811061036357fe5b6000918252602090912001546001608060020a0316115b15610387575060006103ac565b600160a060020a03831660009081526002602052604090206103a99083610692565b90505b92915050565b60006103be824361031e565b90505b919050565b600054600160a060020a031681565b600354600090158061040a575081600360008154811015156103f357fe5b6000918252602090912001546001608060020a0316115b15610417575060006103c1565b610422600383610692565b90506103c1565b60008054819081908190600160a060020a0316331461044757600080fd5b61044f610222565b925084915081831015610460578291505b610469866103b2565b905081811015610477578091505b6104846003838503610589565b600160a060020a03861660009081526002602052604090206104a890838303610589565b604080518381529051600160a060020a038816917fcc16f5dbb4873280815c1ee09dbd06736cffcc184412cf7a71a0fdb75d397ca5919081900360200190a2600193505b50505092915050565b600054600160a060020a0316331461050c57600080fd5b600160a060020a038116151561052157600080fd5b60008054604051600160a060020a03808516939216917f8be0079c531659141344cd1fd0a4f28419497f9722a3daafe3b4186f6b6457e091a36000805473ffffffffffffffffffffffffffffffffffffffff1916600160a060020a0392909216919091179055565b6000806001608060020a03831683146105a157600080fd5b835415806105d5575083544390859060001981019081106105be57fe5b6000918252602090912001546001608060020a0316105b1561064757835484906105eb82600183016107ef565b815481106105f557fe5b600091825260209091200180546001608060020a03858116700100000000000000000000000000000000024382166fffffffffffffffffffffffffffffffff199093169290921716178155915061068c565b83548490600019810190811061065957fe5b600091825260209091200180546001608060020a0380861670010000000000000000000000000000000002911617815590505b50505050565b6000806000808580549050600014156106ae57600093506104ec565b8554869060001981019081106106c057fe5b6000918252602090912001546001608060020a0316851061071d578554869060001981019081106106ed57fe5b60009182526020909120015470010000000000000000000000000000000090046001608060020a031693506104ec565b85600081548110151561072c57fe5b6000918252602090912001546001608060020a031685101561075157600093506104ec565b8554600093506000190191505b828211156107ae57600260018385010104905084868281548110151561078057fe5b6000918252602090912001546001608060020a0316116107a2578092506107a9565b6001810391505b61075e565b85838154811015156107bc57fe5b60009182526020909120015470010000000000000000000000000000000090046001608060020a03169695505050505050565b81548183558181111561081357600083815260209020610813918101908301610818565b505050565b61023091905b80821115610832576000815560010161081e565b50905600a165627a7a7230582050ba8b3756e24fb046282b2cd96105ecff1e24d306ddd22c6de0db39be8370790029",
  "source": "pragma solidity ^0.4.25;\r\n\r\nimport \"openzeppelin-solidity/contracts/ownership/Ownable.sol\";\r\n\r\n\r\n/**\r\n * @title Reputation system\r\n * @dev A DAO has Reputation System which allows peers to rate other peers in order to build trust .\r\n * A reputation is use to assign influence measure to a DAO'S peers.\r\n * Reputation is similar to regular tokens but with one crucial difference: It is non-transferable.\r\n * The Reputation contract maintain a map of address to reputation value.\r\n * It provides an onlyOwner functions to mint and burn reputation _to (or _from) a specific address.\r\n */\r\n\r\ncontract Reputation is Ownable {\r\n\r\n    uint8 public decimals = 18;             //Number of decimals of the smallest unit\r\n    // Event indicating minting of reputation to an address.\r\n    event Mint(address indexed _to, uint256 _amount);\r\n    // Event indicating burning of reputation for an address.\r\n    event Burn(address indexed _from, uint256 _amount);\r\n\r\n      /// @dev `Checkpoint` is the structure that attaches a block number to a\r\n      ///  given value, the block number attached is the one that last changed the\r\n      ///  value\r\n    struct Checkpoint {\r\n\r\n    // `fromBlock` is the block number that the value was generated from\r\n        uint128 fromBlock;\r\n\r\n          // `value` is the amount of reputation at a specific block number\r\n        uint128 value;\r\n    }\r\n\r\n      // `creationBlock` is the block number that the Clone Token was created\r\n    uint public creationBlock;\r\n\r\n      // `balances` is the map that tracks the balance of each address, in this\r\n      //  contract when the balance changes the block number that the change\r\n      //  occurred is also included in the map\r\n    mapping (address => Checkpoint[]) balances;\r\n\r\n      // Tracks the history of the `totalSupply` of the reputation\r\n    Checkpoint[] totalSupplyHistory;\r\n\r\n    /// @notice Constructor to create a MiniMeToken\r\n    constructor(\r\n    ) public\r\n    {\r\n        creationBlock = block.number;\r\n    }\r\n\r\n    /// @dev This function makes it easy to get the total number of reputation\r\n    /// @return The total number of reputation\r\n    function totalSupply() public view returns (uint) {\r\n        return totalSupplyAt(block.number);\r\n    }\r\n\r\n  ////////////////\r\n  // Query balance and totalSupply in History\r\n  ////////////////\r\n    /**\r\n    * @dev return the reputation amount of a given owner\r\n    * @param _owner an address of the owner which we want to get his reputation\r\n    */\r\n    function balanceOf(address _owner) public view returns (uint256 balance) {\r\n        return balanceOfAt(_owner, block.number);\r\n    }\r\n\r\n      /// @dev Queries the balance of `_owner` at a specific `_blockNumber`\r\n      /// @param _owner The address from which the balance will be retrieved\r\n      /// @param _blockNumber The block number when the balance is queried\r\n      /// @return The balance at `_blockNumber`\r\n    function balanceOfAt(address _owner, uint _blockNumber)\r\n    public view returns (uint)\r\n    {\r\n        if ((balances[_owner].length == 0) || (balances[_owner][0].fromBlock > _blockNumber)) {\r\n            return 0;\r\n          // This will return the expected balance during normal situations\r\n        } else {\r\n            return getValueAt(balances[_owner], _blockNumber);\r\n        }\r\n    }\r\n\r\n      /// @notice Total amount of reputation at a specific `_blockNumber`.\r\n      /// @param _blockNumber The block number when the totalSupply is queried\r\n      /// @return The total amount of reputation at `_blockNumber`\r\n    function totalSupplyAt(uint _blockNumber) public view returns(uint) {\r\n        if ((totalSupplyHistory.length == 0) || (totalSupplyHistory[0].fromBlock > _blockNumber)) {\r\n            return 0;\r\n          // This will return the expected totalSupply during normal situations\r\n        } else {\r\n            return getValueAt(totalSupplyHistory, _blockNumber);\r\n        }\r\n    }\r\n\r\n      /// @notice Generates `_amount` reputation that are assigned to `_owner`\r\n      /// @param _owner The address that will be assigned the new reputation\r\n      /// @param _amount The quantity of reputation generated\r\n      /// @return True if the reputation are generated correctly\r\n    function mint(address _owner, uint _amount) public onlyOwner returns (bool) {\r\n        uint curTotalSupply = totalSupply();\r\n        require(curTotalSupply + _amount >= curTotalSupply); // Check for overflow\r\n        uint previousBalanceTo = balanceOf(_owner);\r\n        require(previousBalanceTo + _amount >= previousBalanceTo); // Check for overflow\r\n        updateValueAtNow(totalSupplyHistory, curTotalSupply + _amount);\r\n        updateValueAtNow(balances[_owner], previousBalanceTo + _amount);\r\n        emit Mint(_owner, _amount);\r\n        return true;\r\n    }\r\n\r\n      /// @notice Burns `_amount` reputation from `_owner`\r\n      /// @param _owner The address that will lose the reputation\r\n      /// @param _amount The quantity of reputation to burn\r\n      /// @return True if the reputation are burned correctly\r\n    function burn(address _owner, uint _amount) public onlyOwner returns (bool) {\r\n        uint curTotalSupply = totalSupply();\r\n        uint amountBurned = _amount;\r\n        if (curTotalSupply < amountBurned) {\r\n            amountBurned = curTotalSupply;\r\n        }\r\n        uint previousBalanceFrom = balanceOf(_owner);\r\n        if (previousBalanceFrom < amountBurned) {\r\n            amountBurned = previousBalanceFrom;\r\n        }\r\n          //require(previousBalanceFrom >= _amount);\r\n        updateValueAtNow(totalSupplyHistory, curTotalSupply - amountBurned);\r\n        updateValueAtNow(balances[_owner], previousBalanceFrom - amountBurned);\r\n        emit Burn(_owner, amountBurned);\r\n        return true;\r\n    }\r\n\r\n  ////////////////\r\n  // Internal helper functions to query and set a value in a snapshot array\r\n  ////////////////\r\n\r\n      /// @dev `getValueAt` retrieves the number of reputation at a given block number\r\n      /// @param checkpoints The history of values being queried\r\n      /// @param _block The block number to retrieve the value at\r\n      /// @return The number of reputation being queried\r\n    function getValueAt(Checkpoint[] storage checkpoints, uint _block) internal view returns (uint) {\r\n        if (checkpoints.length == 0) {\r\n            return 0;\r\n        }\r\n\r\n          // Shortcut for the actual value\r\n        if (_block >= checkpoints[checkpoints.length-1].fromBlock) {\r\n            return checkpoints[checkpoints.length-1].value;\r\n        }\r\n        if (_block < checkpoints[0].fromBlock) {\r\n            return 0;\r\n        }\r\n\r\n          // Binary search of the value in the array\r\n        uint min = 0;\r\n        uint max = checkpoints.length-1;\r\n        while (max > min) {\r\n            uint mid = (max + min + 1) / 2;\r\n            if (checkpoints[mid].fromBlock<=_block) {\r\n                min = mid;\r\n            } else {\r\n                max = mid-1;\r\n            }\r\n        }\r\n        return checkpoints[min].value;\r\n    }\r\n\r\n      /// @dev `updateValueAtNow` used to update the `balances` map and the\r\n      ///  `totalSupplyHistory`\r\n      /// @param checkpoints The history of data being updated\r\n      /// @param _value The new number of reputation\r\n    function updateValueAtNow(Checkpoint[] storage checkpoints, uint _value) internal {\r\n        require(uint128(_value) == _value); //check value is in the 128 bits bounderies\r\n        if ((checkpoints.length == 0) || (checkpoints[checkpoints.length - 1].fromBlock < block.number)) {\r\n            Checkpoint storage newCheckPoint = checkpoints[checkpoints.length++];\r\n            newCheckPoint.fromBlock = uint128(block.number);\r\n            newCheckPoint.value = uint128(_value);\r\n        } else {\r\n            Checkpoint storage oldCheckPoint = checkpoints[checkpoints.length-1];\r\n            oldCheckPoint.value = uint128(_value);\r\n        }\r\n    }\r\n}\r\n",
  "sourcePath": "D:\\projects\\gooddollar\\poc4\\imports\\blockchain\\daostack\\contracts\\Reputation.sol",
  "compiler": {
    "name": "solc",
    "version": "0.4.25+commit.59dbf8f1.Emscripten.clang"
  },
  "schemaVersion": "3.0.0-beta.2",
  "updatedAt": "2018-12-11T12:42:41.250Z",
  "devdoc": {
    "methods": {
      "balanceOf(address)": {
        "details": "return the reputation amount of a given owner\r",
        "params": {
          "_owner": "an address of the owner which we want to get his reputation\r"
        }
      },
      "balanceOfAt(address,uint256)": {
        "return": "The balance at `_blockNumber`"
      },
      "burn(address,uint256)": {
        "return": "True if the reputation are burned correctly"
      },
      "mint(address,uint256)": {
        "return": "True if the reputation are generated correctly"
      },
      "totalSupply()": {
        "return": "The total number of reputation"
      },
      "totalSupplyAt(uint256)": {
        "return": "The total amount of reputation at `_blockNumber`"
      },
      "transferOwnership(address)": {
        "details": "Allows the current owner to transfer control of the contract to a newOwner.",
        "params": {
          "newOwner": "The address to transfer ownership to."
        }
      }
    },
    "title": "Reputation system\r"
  },
  "userdoc": {
    "methods": {}
  }
}