{
  "contractName": "GenesisProtocol",
  "abi": [
    {
      "constant": true,
      "inputs": [
        {
          "name": "",
          "type": "bytes32"
        }
      ],
      "name": "parameters",
      "outputs": [
        {
          "name": "preBoostedVoteRequiredPercentage",
          "type": "uint256"
        },
        {
          "name": "preBoostedVotePeriodLimit",
          "type": "uint256"
        },
        {
          "name": "boostedVotePeriodLimit",
          "type": "uint256"
        },
        {
          "name": "thresholdConstA",
          "type": "uint256"
        },
        {
          "name": "thresholdConstB",
          "type": "uint256"
        },
        {
          "name": "minimumStakingFee",
          "type": "uint256"
        },
        {
          "name": "quietEndingPeriod",
          "type": "uint256"
        },
        {
          "name": "proposingRepRewardConstA",
          "type": "uint256"
        },
        {
          "name": "proposingRepRewardConstB",
          "type": "uint256"
        },
        {
          "name": "stakerFeeRatioForVoters",
          "type": "uint256"
        },
        {
          "name": "votersReputationLossRatio",
          "type": "uint256"
        },
        {
          "name": "votersGainRepRatioFromLostRep",
          "type": "uint256"
        },
        {
          "name": "voteOnBehalf",
          "type": "address"
        }
      ],
      "payable": false,
      "stateMutability": "view",
      "type": "function",
      "signature": "0x02506804"
    },
    {
      "constant": true,
      "inputs": [],
      "name": "NO",
      "outputs": [
        {
          "name": "",
          "type": "uint256"
        }
      ],
      "payable": false,
      "stateMutability": "view",
      "type": "function",
      "signature": "0x0d483442"
    },
    {
      "constant": true,
      "inputs": [],
      "name": "proposalsCnt",
      "outputs": [
        {
          "name": "",
          "type": "uint256"
        }
      ],
      "payable": false,
      "stateMutability": "view",
      "type": "function",
      "signature": "0x21b4b3dc"
    },
    {
      "constant": true,
      "inputs": [],
      "name": "DELEGATION_HASH_EIP712",
      "outputs": [
        {
          "name": "",
          "type": "bytes32"
        }
      ],
      "payable": false,
      "stateMutability": "view",
      "type": "function",
      "signature": "0x30ca0a53"
    },
    {
      "constant": true,
      "inputs": [
        {
          "name": "",
          "type": "bytes32"
        }
      ],
      "name": "proposals",
      "outputs": [
        {
          "name": "organizationId",
          "type": "bytes32"
        },
        {
          "name": "callbacks",
          "type": "address"
        },
        {
          "name": "numOfChoices",
          "type": "uint256"
        },
        {
          "name": "votersStakes",
          "type": "uint256"
        },
        {
          "name": "submittedTime",
          "type": "uint256"
        },
        {
          "name": "boostedPhaseTime",
          "type": "uint256"
        },
        {
          "name": "state",
          "type": "uint8"
        },
        {
          "name": "winningVote",
          "type": "uint256"
        },
        {
          "name": "proposer",
          "type": "address"
        },
        {
          "name": "currentBoostedVotePeriodLimit",
          "type": "uint256"
        },
        {
          "name": "paramsHash",
          "type": "bytes32"
        },
        {
          "name": "daoBountyRemain",
          "type": "uint256"
        }
      ],
      "payable": false,
      "stateMutability": "view",
      "type": "function",
      "signature": "0x32ed5b12"
    },
    {
      "constant": true,
      "inputs": [],
      "name": "stakingToken",
      "outputs": [
        {
          "name": "",
          "type": "address"
        }
      ],
      "payable": false,
      "stateMutability": "view",
      "type": "function",
      "signature": "0x72f702f3"
    },
    {
      "constant": true,
      "inputs": [],
      "name": "ETH_SIGN_PREFIX",
      "outputs": [
        {
          "name": "",
          "type": "string"
        }
      ],
      "payable": false,
      "stateMutability": "view",
      "type": "function",
      "signature": "0x7cb6cf3e"
    },
    {
      "constant": true,
      "inputs": [],
      "name": "NUM_OF_CHOICES",
      "outputs": [
        {
          "name": "",
          "type": "uint256"
        }
      ],
      "payable": false,
      "stateMutability": "view",
      "type": "function",
      "signature": "0x9bc5689d"
    },
    {
      "constant": true,
      "inputs": [],
      "name": "YES",
      "outputs": [
        {
          "name": "",
          "type": "uint256"
        }
      ],
      "payable": false,
      "stateMutability": "view",
      "type": "function",
      "signature": "0xb2449d65"
    },
    {
      "constant": true,
      "inputs": [
        {
          "name": "",
          "type": "bytes32"
        }
      ],
      "name": "organizations",
      "outputs": [
        {
          "name": "",
          "type": "address"
        }
      ],
      "payable": false,
      "stateMutability": "view",
      "type": "function",
      "signature": "0xba51b14e"
    },
    {
      "constant": true,
      "inputs": [
        {
          "name": "",
          "type": "bytes32"
        }
      ],
      "name": "orgBoostedProposalsCnt",
      "outputs": [
        {
          "name": "",
          "type": "uint256"
        }
      ],
      "payable": false,
      "stateMutability": "view",
      "type": "function",
      "signature": "0xfb6c0cbb"
    },
    {
      "inputs": [
        {
          "name": "_stakingToken",
          "type": "address"
        }
      ],
      "payable": false,
      "stateMutability": "nonpayable",
      "type": "constructor",
      "signature": "constructor"
    },
    {
      "anonymous": false,
      "inputs": [
        {
          "indexed": true,
          "name": "_proposalId",
          "type": "bytes32"
        },
        {
          "indexed": true,
          "name": "_organization",
          "type": "address"
        },
        {
          "indexed": true,
          "name": "_staker",
          "type": "address"
        },
        {
          "indexed": false,
          "name": "_vote",
          "type": "uint256"
        },
        {
          "indexed": false,
          "name": "_amount",
          "type": "uint256"
        }
      ],
      "name": "Stake",
      "type": "event",
      "signature": "0xd0239d7d4acf51def4507fa173be466927de5d75d8b10d840cd6994d6e102310"
    },
    {
      "anonymous": false,
      "inputs": [
        {
          "indexed": true,
          "name": "_proposalId",
          "type": "bytes32"
        },
        {
          "indexed": true,
          "name": "_organization",
          "type": "address"
        },
        {
          "indexed": true,
          "name": "_beneficiary",
          "type": "address"
        },
        {
          "indexed": false,
          "name": "_amount",
          "type": "uint256"
        }
      ],
      "name": "Redeem",
      "type": "event",
      "signature": "0x6d26871c9f457d104b2122485f659f126f7a0cf6938cf20482c03f49794a2fbf"
    },
    {
      "anonymous": false,
      "inputs": [
        {
          "indexed": true,
          "name": "_proposalId",
          "type": "bytes32"
        },
        {
          "indexed": true,
          "name": "_organization",
          "type": "address"
        },
        {
          "indexed": true,
          "name": "_beneficiary",
          "type": "address"
        },
        {
          "indexed": false,
          "name": "_amount",
          "type": "uint256"
        }
      ],
      "name": "RedeemDaoBounty",
      "type": "event",
      "signature": "0xb4a37163ec93e05e09b62e52f7f2ea8cfde431802edede7dfebe53d2ad969dbb"
    },
    {
      "anonymous": false,
      "inputs": [
        {
          "indexed": true,
          "name": "_proposalId",
          "type": "bytes32"
        },
        {
          "indexed": true,
          "name": "_organization",
          "type": "address"
        },
        {
          "indexed": true,
          "name": "_beneficiary",
          "type": "address"
        },
        {
          "indexed": false,
          "name": "_amount",
          "type": "uint256"
        }
      ],
      "name": "RedeemReputation",
      "type": "event",
      "signature": "0x7419b736daacf66d5c1645948c956fca2b83be1e2e02d486d65713f289d683b8"
    },
    {
      "anonymous": false,
      "inputs": [
        {
          "indexed": true,
          "name": "_proposalId",
          "type": "bytes32"
        },
        {
          "indexed": false,
          "name": "_executionState",
          "type": "uint8"
        }
      ],
      "name": "GPExecuteProposal",
      "type": "event",
      "signature": "0x46a713b994c752c68fbefa9048bec9a0010cc7d933ad95a3c3dbb25931a167e7"
    },
    {
      "anonymous": false,
      "inputs": [
        {
          "indexed": true,
          "name": "_proposalId",
          "type": "bytes32"
        },
        {
          "indexed": true,
          "name": "_organization",
          "type": "address"
        },
        {
          "indexed": false,
          "name": "_numOfChoices",
          "type": "uint256"
        },
        {
          "indexed": false,
          "name": "_proposer",
          "type": "address"
        },
        {
          "indexed": false,
          "name": "_paramsHash",
          "type": "bytes32"
        }
      ],
      "name": "NewProposal",
      "type": "event",
      "signature": "0x75b4ff136cc5de5957574c797de3334eb1c141271922b825eb071e0487ba2c5c"
    },
    {
      "anonymous": false,
      "inputs": [
        {
          "indexed": true,
          "name": "_proposalId",
          "type": "bytes32"
        },
        {
          "indexed": true,
          "name": "_organization",
          "type": "address"
        },
        {
          "indexed": false,
          "name": "_decision",
          "type": "uint256"
        },
        {
          "indexed": false,
          "name": "_totalReputation",
          "type": "uint256"
        }
      ],
      "name": "ExecuteProposal",
      "type": "event",
      "signature": "0x37471b9c9d295ffb1309ad070b8964700bfb7b555e8e8292d0b6cbc7dba35d10"
    },
    {
      "anonymous": false,
      "inputs": [
        {
          "indexed": true,
          "name": "_proposalId",
          "type": "bytes32"
        },
        {
          "indexed": true,
          "name": "_organization",
          "type": "address"
        },
        {
          "indexed": true,
          "name": "_voter",
          "type": "address"
        },
        {
          "indexed": false,
          "name": "_vote",
          "type": "uint256"
        },
        {
          "indexed": false,
          "name": "_reputation",
          "type": "uint256"
        }
      ],
      "name": "VoteProposal",
      "type": "event",
      "signature": "0x066c061a3792cb3eb64a441a928655fcbafb4a54b49725fe9cd2951df5e7189e"
    },
    {
      "anonymous": false,
      "inputs": [
        {
          "indexed": true,
          "name": "_proposalId",
          "type": "bytes32"
        },
        {
          "indexed": true,
          "name": "_organization",
          "type": "address"
        }
      ],
      "name": "CancelProposal",
      "type": "event",
      "signature": "0x2eb3e89618ae3f1716cf6615be7ce4bbafed3578d8bc1de99897063e9db6a9f6"
    },
    {
      "anonymous": false,
      "inputs": [
        {
          "indexed": true,
          "name": "_proposalId",
          "type": "bytes32"
        },
        {
          "indexed": true,
          "name": "_organization",
          "type": "address"
        },
        {
          "indexed": true,
          "name": "_voter",
          "type": "address"
        }
      ],
      "name": "CancelVoting",
      "type": "event",
      "signature": "0x0ecab23267930de581498fac1af19a95c888ec6583921ee9c47473e16245d3c8"
    },
    {
      "constant": false,
      "inputs": [
        {
          "name": "_numOfChoices",
          "type": "uint256"
        },
        {
          "name": "_paramsHash",
          "type": "bytes32"
        },
        {
          "name": "_proposer",
          "type": "address"
        },
        {
          "name": "_organization",
          "type": "address"
        }
      ],
      "name": "propose",
      "outputs": [
        {
          "name": "",
          "type": "bytes32"
        }
      ],
      "payable": false,
      "stateMutability": "nonpayable",
      "type": "function",
      "signature": "0x88737b5e"
    },
    {
      "constant": false,
      "inputs": [
        {
          "name": "",
          "type": "bytes32"
        }
      ],
      "name": "cancelProposal",
      "outputs": [
        {
          "name": "",
          "type": "bool"
        }
      ],
      "payable": false,
      "stateMutability": "nonpayable",
      "type": "function",
      "signature": "0x37376ca8"
    },
    {
      "constant": false,
      "inputs": [
        {
          "name": "_proposalId",
          "type": "bytes32"
        },
        {
          "name": "_vote",
          "type": "uint256"
        },
        {
          "name": "_amount",
          "type": "uint256"
        }
      ],
      "name": "stake",
      "outputs": [
        {
          "name": "",
          "type": "bool"
        }
      ],
      "payable": false,
      "stateMutability": "nonpayable",
      "type": "function",
      "signature": "0x2daedd52"
    },
    {
      "constant": false,
      "inputs": [
        {
          "name": "_proposalId",
          "type": "bytes32"
        },
        {
          "name": "_vote",
          "type": "uint256"
        },
        {
          "name": "_amount",
          "type": "uint256"
        },
        {
          "name": "_nonce",
          "type": "uint256"
        },
        {
          "name": "_signatureType",
          "type": "uint256"
        },
        {
          "name": "_signature",
          "type": "bytes"
        }
      ],
      "name": "stakeWithSignature",
      "outputs": [
        {
          "name": "",
          "type": "bool"
        }
      ],
      "payable": false,
      "stateMutability": "nonpayable",
      "type": "function",
      "signature": "0x488c65fc"
    },
    {
      "constant": false,
      "inputs": [
        {
          "name": "_proposalId",
          "type": "bytes32"
        },
        {
          "name": "_vote",
          "type": "uint256"
        },
        {
          "name": "_voter",
          "type": "address"
        }
      ],
      "name": "vote",
      "outputs": [
        {
          "name": "",
          "type": "bool"
        }
      ],
      "payable": false,
      "stateMutability": "nonpayable",
      "type": "function",
      "signature": "0x76124dac"
    },
    {
      "constant": false,
      "inputs": [
        {
          "name": "",
          "type": "bytes32"
        },
        {
          "name": "",
          "type": "uint256"
        },
        {
          "name": "",
          "type": "address"
        }
      ],
      "name": "ownerVote",
      "outputs": [
        {
          "name": "",
          "type": "bool"
        }
      ],
      "payable": false,
      "stateMutability": "nonpayable",
      "type": "function",
      "signature": "0x339e23d1"
    },
    {
      "constant": false,
      "inputs": [
        {
          "name": "_proposalId",
          "type": "bytes32"
        },
        {
          "name": "_vote",
          "type": "uint256"
        },
        {
          "name": "_rep",
          "type": "uint256"
        },
        {
          "name": "",
          "type": "uint256"
        },
        {
          "name": "_voter",
          "type": "address"
        }
      ],
      "name": "voteWithSpecifiedAmounts",
      "outputs": [
        {
          "name": "",
          "type": "bool"
        }
      ],
      "payable": false,
      "stateMutability": "nonpayable",
      "type": "function",
      "signature": "0x39500019"
    },
    {
      "constant": false,
      "inputs": [
        {
          "name": "_proposalId",
          "type": "bytes32"
        }
      ],
      "name": "cancelVote",
      "outputs": [],
      "payable": false,
      "stateMutability": "nonpayable",
      "type": "function",
      "signature": "0x9525c0cc"
    },
    {
      "constant": true,
      "inputs": [
        {
          "name": "_proposalId",
          "type": "bytes32"
        }
      ],
      "name": "getNumberOfChoices",
      "outputs": [
        {
          "name": "",
          "type": "uint256"
        }
      ],
      "payable": false,
      "stateMutability": "view",
      "type": "function",
      "signature": "0xa003651d"
    },
    {
      "constant": true,
      "inputs": [
        {
          "name": "_proposalId",
          "type": "bytes32"
        },
        {
          "name": "_voter",
          "type": "address"
        }
      ],
      "name": "voteInfo",
      "outputs": [
        {
          "name": "",
          "type": "uint256"
        },
        {
          "name": "",
          "type": "uint256"
        }
      ],
      "payable": false,
      "stateMutability": "view",
      "type": "function",
      "signature": "0x119ce91b"
    },
    {
      "constant": true,
      "inputs": [
        {
          "name": "_proposalId",
          "type": "bytes32"
        },
        {
          "name": "_choice",
          "type": "uint256"
        }
      ],
      "name": "voteStatus",
      "outputs": [
        {
          "name": "",
          "type": "uint256"
        }
      ],
      "payable": false,
      "stateMutability": "view",
      "type": "function",
      "signature": "0xb4512913"
    },
    {
      "constant": true,
      "inputs": [
        {
          "name": "_proposalId",
          "type": "bytes32"
        }
      ],
      "name": "isVotable",
      "outputs": [
        {
          "name": "",
          "type": "bool"
        }
      ],
      "payable": false,
      "stateMutability": "view",
      "type": "function",
      "signature": "0xc0835106"
    },
    {
      "constant": true,
      "inputs": [
        {
          "name": "_proposalId",
          "type": "bytes32"
        }
      ],
      "name": "proposalStatus",
      "outputs": [
        {
          "name": "",
          "type": "uint256"
        },
        {
          "name": "",
          "type": "uint256"
        },
        {
          "name": "",
          "type": "uint256"
        },
        {
          "name": "",
          "type": "uint256"
        },
        {
          "name": "",
          "type": "uint256"
        },
        {
          "name": "",
          "type": "uint256"
        }
      ],
      "payable": false,
      "stateMutability": "view",
      "type": "function",
      "signature": "0x79a1c1f6"
    },
    {
      "constant": true,
      "inputs": [
        {
          "name": "_proposalId",
          "type": "bytes32"
        }
      ],
      "name": "getProposalOrganization",
      "outputs": [
        {
          "name": "",
          "type": "bytes32"
        }
      ],
      "payable": false,
      "stateMutability": "view",
      "type": "function",
      "signature": "0x1702ef0c"
    },
    {
      "constant": true,
      "inputs": [
        {
          "name": "_proposalId",
          "type": "bytes32"
        },
        {
          "name": "_staker",
          "type": "address"
        }
      ],
      "name": "getStaker",
      "outputs": [
        {
          "name": "",
          "type": "uint256"
        },
        {
          "name": "",
          "type": "uint256"
        }
      ],
      "payable": false,
      "stateMutability": "view",
      "type": "function",
      "signature": "0x16db5172"
    },
    {
      "constant": true,
      "inputs": [
        {
          "name": "_proposalId",
          "type": "bytes32"
        },
        {
          "name": "_vote",
          "type": "uint256"
        }
      ],
      "name": "voteStake",
      "outputs": [
        {
          "name": "",
          "type": "uint256"
        }
      ],
      "payable": false,
      "stateMutability": "view",
      "type": "function",
      "signature": "0x70743768"
    },
    {
      "constant": true,
      "inputs": [
        {
          "name": "_proposalId",
          "type": "bytes32"
        }
      ],
      "name": "winningVote",
      "outputs": [
        {
          "name": "",
          "type": "uint256"
        }
      ],
      "payable": false,
      "stateMutability": "view",
      "type": "function",
      "signature": "0x3c133818"
    },
    {
      "constant": true,
      "inputs": [
        {
          "name": "_proposalId",
          "type": "bytes32"
        }
      ],
      "name": "state",
      "outputs": [
        {
          "name": "",
          "type": "uint8"
        }
      ],
      "payable": false,
      "stateMutability": "view",
      "type": "function",
      "signature": "0x61d585da"
    },
    {
      "constant": true,
      "inputs": [],
      "name": "isAbstainAllow",
      "outputs": [
        {
          "name": "",
          "type": "bool"
        }
      ],
      "payable": false,
      "stateMutability": "pure",
      "type": "function",
      "signature": "0x51d997b2"
    },
    {
      "constant": true,
      "inputs": [],
      "name": "getAllowedRangeOfChoices",
      "outputs": [
        {
          "name": "min",
          "type": "uint256"
        },
        {
          "name": "max",
          "type": "uint256"
        }
      ],
      "payable": false,
      "stateMutability": "pure",
      "type": "function",
      "signature": "0x5142bc1e"
    },
    {
      "constant": false,
      "inputs": [
        {
          "name": "_proposalId",
          "type": "bytes32"
        }
      ],
      "name": "execute",
      "outputs": [
        {
          "name": "",
          "type": "bool"
        }
      ],
      "payable": false,
      "stateMutability": "nonpayable",
      "type": "function",
      "signature": "0xe751f271"
    },
    {
      "constant": false,
      "inputs": [
        {
          "name": "_proposalId",
          "type": "bytes32"
        },
        {
          "name": "_beneficiary",
          "type": "address"
        }
      ],
      "name": "redeem",
      "outputs": [
        {
          "name": "rewards",
          "type": "uint256[5]"
        }
      ],
      "payable": false,
      "stateMutability": "nonpayable",
      "type": "function",
      "signature": "0xcc3bf9e9"
    },
    {
      "constant": false,
      "inputs": [
        {
          "name": "_proposalId",
          "type": "bytes32"
        },
        {
          "name": "_beneficiary",
          "type": "address"
        }
      ],
      "name": "redeemDaoBounty",
      "outputs": [
        {
          "name": "redeemedAmount",
          "type": "uint256"
        },
        {
          "name": "potentialAmount",
          "type": "uint256"
        }
      ],
      "payable": false,
      "stateMutability": "nonpayable",
      "type": "function",
      "signature": "0x6359036b"
    },
    {
      "constant": true,
      "inputs": [
        {
          "name": "_proposalId",
          "type": "bytes32"
        }
      ],
      "name": "shouldBoost",
      "outputs": [
        {
          "name": "",
          "type": "bool"
        }
      ],
      "payable": false,
      "stateMutability": "view",
      "type": "function",
      "signature": "0x80f5e0a1"
    },
    {
      "constant": true,
      "inputs": [
        {
          "name": "_proposalId",
          "type": "bytes32"
        }
      ],
      "name": "score",
      "outputs": [
        {
          "name": "",
          "type": "int256"
        }
      ],
      "payable": false,
      "stateMutability": "view",
      "type": "function",
      "signature": "0xe5af18c5"
    },
    {
      "constant": true,
      "inputs": [
        {
          "name": "_organizationId",
          "type": "bytes32"
        }
      ],
      "name": "getBoostedProposalsCount",
      "outputs": [
        {
          "name": "",
          "type": "uint256"
        }
      ],
      "payable": false,
      "stateMutability": "view",
      "type": "function",
      "signature": "0xeafd7189"
    },
    {
      "constant": true,
      "inputs": [
        {
          "name": "_paramsHash",
          "type": "bytes32"
        },
        {
          "name": "_organizationId",
          "type": "bytes32"
        }
      ],
      "name": "threshold",
      "outputs": [
        {
          "name": "",
          "type": "int256"
        }
      ],
      "payable": false,
      "stateMutability": "view",
      "type": "function",
      "signature": "0x2d598e58"
    },
    {
      "constant": false,
      "inputs": [
        {
          "name": "_params",
          "type": "uint256[14]"
        },
        {
          "name": "_voteOnBehalf",
          "type": "address"
        }
      ],
      "name": "setParameters",
      "outputs": [
        {
          "name": "",
          "type": "bytes32"
        }
      ],
      "payable": false,
      "stateMutability": "nonpayable",
      "type": "function",
      "signature": "0x245d775e"
    },
    {
      "constant": true,
      "inputs": [
        {
          "name": "_params",
          "type": "uint256[14]"
        },
        {
          "name": "_voteOnBehalf",
          "type": "address"
        }
      ],
      "name": "getParametersHash",
      "outputs": [
        {
          "name": "",
          "type": "bytes32"
        }
      ],
      "payable": false,
      "stateMutability": "pure",
      "type": "function",
      "signature": "0x369847cb"
    }
  ],
  "bytecode": "0x60806040523480156200001157600080fd5b506040516020806200566183398101604052516200004c73543ff227f64aa17ea132bf9886cab5db55dcaddf640100000000620000a1810204565b156200007e5760068054600160a060020a03191673543ff227f64aa17ea132bf9886cab5db55dcaddf1790556200009a565b60068054600160a060020a031916600160a060020a0383161790555b50620000af565b6000903b63ffffffff161190565b6155a280620000bf6000396000f3006080604052600436106101d45763ffffffff60e060020a6000350416630250680481146101d95780630d4834421461025f578063119ce91b1461028657806316db5172146102c35780631702ef0c146102e757806321b4b3dc146102ff578063245d775e146103145780632d598e58146103645780632daedd521461037f57806330ca0a53146103b157806332ed5b12146103c6578063339e23d114610469578063369847cb1461049057806337376ca8146104e057806339500019146104f85780633c13381814610525578063488c65fc1461053d5780635142bc1e1461057157806351d997b21461058657806361d585da1461059b5780636359036b146105d757806370743768146105fb57806372f702f31461061657806376124dac1461064757806379a1c1f61461066e5780637cb6cf3e146106b957806380f5e0a11461074357806388737b5e1461075b5780639525c0cc146107885780639bc5689d1461025f578063a003651d146107a2578063b2449d65146107ba578063b4512913146107cf578063ba51b14e146107ea578063c083510614610802578063cc3bf9e91461081a578063e5af18c514610876578063e751f2711461088e578063eafd7189146108a6578063fb6c0cbb146108be575b600080fd5b3480156101e557600080fd5b506101f16004356108d6565b604080519d8e5260208e019c909c528c8c019a909a5260608c019890985260808b019690965260a08a019490945260c089019290925260e0880152610100870152610120860152610140850152610160840152600160a060020a031661018083015251908190036101a00190f35b34801561026b57600080fd5b50610274610946565b60408051918252519081900360200190f35b34801561029257600080fd5b506102aa600435600160a060020a036024351661094b565b6040805192835260208301919091528051918290030190f35b3480156102cf57600080fd5b506102aa600435600160a060020a03602435166109ae565b3480156102f357600080fd5b506102746004356109df565b34801561030b57600080fd5b506102746109f4565b34801561032057600080fd5b50604080516101c08181019092526102749136916004916101c491908390600e9083908390808284375093965050509135600160a060020a031692506109fa915050565b34801561037057600080fd5b5061027460043560243561113a565b34801561038b57600080fd5b5061039d60043560243560443561133a565b604080519115158252519081900360200190f35b3480156103bd57600080fd5b50610274611350565b3480156103d257600080fd5b506103de600435611486565b604080518d8152600160a060020a038d1660208201529081018b9052606081018a90526080810189905260a0810188905260c0810187600581111561041f57fe5b60ff168152602081019690965250600160a060020a039093166040808601919091526060850192909252608084015260a0830191909152519081900360c001975095505050505050f35b34801561047557600080fd5b5061039d600435602435600160a060020a03604435166114f6565b34801561049c57600080fd5b50604080516101c08181019092526102749136916004916101c491908390600e9083908390808284375093965050509135600160a060020a031692506114ff915050565b3480156104ec57600080fd5b5061039d6004356116db565b34801561050457600080fd5b5061039d600435602435604435606435600160a060020a03608435166116e1565b34801561053157600080fd5b50610274600435611848565b34801561054957600080fd5b5061039d6004803590602480359160443591606435916084359160a43590810191013561185d565b34801561057d57600080fd5b506102aa611d4f565b34801561059257600080fd5b5061039d611d56565b3480156105a757600080fd5b506105b3600435611d5c565b604051808260058111156105c357fe5b60ff16815260200191505060405180910390f35b3480156105e357600080fd5b506102aa600435600160a060020a0360243516611d74565b34801561060757600080fd5b506102746004356024356121cf565b34801561062257600080fd5b5061062b6121f0565b60408051600160a060020a039092168252519081900360200190f35b34801561065357600080fd5b5061039d600435602435600160a060020a03604435166121ff565b34801561067a57600080fd5b50610686600435612365565b604080519687526020870195909552858501939093526060850191909152608084015260a0830152519081900360c00190f35b3480156106c557600080fd5b506106ce6123b6565b6040805160208082528351818301528351919283929083019185019080838360005b838110156107085781810151838201526020016106f0565b50505050905090810190601f1680156107355780820380516001836020036101000a031916815260200191505b509250505060405180910390f35b34801561074f57600080fd5b5061039d6004356123ed565b34801561076757600080fd5b50610274600435602435600160a060020a036044358116906064351661251b565b34801561079457600080fd5b506107a06004356128e3565b005b3480156107ae57600080fd5b506102746004356128fc565b3480156107c657600080fd5b50610274612911565b3480156107db57600080fd5b50610274600435602435612916565b3480156107f657600080fd5b5061062b600435612937565b34801561080e57600080fd5b5061039d600435612952565b34801561082657600080fd5b5061083e600435600160a060020a036024351661295d565b604051808260a080838360005b8381101561086357818101518382015260200161084b565b5050505090500191505060405180910390f35b34801561088257600080fd5b506102746004356130a8565b34801561089a57600080fd5b5061039d6004356130b3565b3480156108b257600080fd5b506102746004356130da565b3480156108ca57600080fd5b50610274600435613138565b600060208190529081526040902080546001820154600283015460038401546004850154600586015460068701546007880154600889015460098a0154600a8b0154600b8c0154600e909c01549a9b999a98999798969795969495939492939192909190600160a060020a03168d565b600281565b6000806109566153ab565b5050506000918252600160208181526040808520600160a060020a039490941685526010909301815292829020825160608101845281548082529282015494810185905260029091015460ff16151592019190915291565b6000918252600160208181526040808520600160a060020a0394909416855260129093019052912080549101549091565b6000818152600160205260409020545b919050565b60025481565b600080610a056153cf565b8451606410801590610a18575084516000105b1515610a94576040805160e560020a62461bcd02815260206004820152602b60248201527f30203c20707265426f6f73746564566f7465526571756972656450657263656e60448201527f74616765203c3d20313030000000000000000000000000000000000000000000606482015290519081900360840190fd5b60808501516000108015610ab0575060808501516305f5e10010155b1515610b06576040805160e560020a62461bcd02815260206004820181905260248201527f30203c207468726573686f6c64436f6e737442203c2031303030303030303020604482015290519081900360640190fd5b60608501516a52b7d2dcc80cd2e40000001015610b6d576040805160e560020a62461bcd02815260206004820181905260248201527f7468726573686f6c64436f6e737441203c3d2031303030303030303020776569604482015290519081900360640190fd5b61012085015160641015610bcb576040805160e560020a62461bcd02815260206004820152601e60248201527f7374616b6572466565526174696f466f72566f74657273203c3d203130300000604482015290519081900360640190fd5b61014085015160641015610c29576040805160e560020a62461bcd02815260206004820181905260248201527f766f7465727352657075746174696f6e4c6f7373526174696f203c3d20313030604482015290519081900360640190fd5b61016085015160641015610cac576040805160e560020a62461bcd028152602060048201526024808201527f766f746572734761696e526570526174696f46726f6d4c6f7374526570203c3d60448201527f2031303000000000000000000000000000000000000000000000000000000000606482015290519081900360840190fd5b60c085015160408601511015610d32576040805160e560020a62461bcd02815260206004820152602b60248201527f626f6f73746564566f7465506572696f644c696d6974203e3d2071756965744560448201527f6e64696e67506572696f64000000000000000000000000000000000000000000606482015290519081900360840190fd5b60e08501516305f5e1001015610db8576040805160e560020a62461bcd02815260206004820152602560248201527f70726f706f73696e67526570526577617264436f6e737441203c3d203130303060448201527f3030303030000000000000000000000000000000000000000000000000000000606482015290519081900360840190fd5b6101008501516305f5e1001015610e3f576040805160e560020a62461bcd02815260206004820152602560248201527f70726f706f73696e67526570526577617264436f6e737442203c3d203130303060448201527f3030303030000000000000000000000000000000000000000000000000000000606482015290519081900360840190fd5b61012085015161018086015160029091021015610ecc576040805160e560020a62461bcd02815260206004820152602d60248201527f64616f426f756e7479436f6e7374203c3d2032202a207374616b65724665655260448201527f6174696f466f72566f7465727300000000000000000000000000000000000000606482015290519081900360840190fd5b6101208501516101808601511015610f54576040805160e560020a62461bcd02815260206004820152602960248201527f64616f426f756e7479436f6e7374203e3d207374616b6572466565526174696f60448201527f466f72566f746572730000000000000000000000000000000000000000000000606482015290519081900360840190fd5b610f5e85856114ff565b915084600c6020020151816000602002015284600d60200201518160016020020152604080516101c08101909152808660006020908102919091015182520186600160209081029190910151825201866002602090810291909101518252018660036020908102919091015182520186600460209081029190910151825201866005602090810291909101518252018660066020908102919091015182520186600760209081029190910151825201866008602090810291909101518252018660096020908102919091015182520186600a6020908102919091015182520186600b602090810291909101518252818101849052600160a060020a03871660409283015260008581528082528290208351815590830151600182015590820151600280830191909155606083015160038301556080830151600483015560a0830151600583015560c0830151600683015560e0830151600783015561010083015160088301556101208301516009830155610140830151600a830155610160830151600b8301556101808301516110fa91600c840191906153ea565b506101a09190910151600e909101805473ffffffffffffffffffffffffffffffffffffffff1916600160a060020a03909216919091179055509392505050565b6000806000611147615428565b600080611153876130da565b6000898152602081815260409182902082516101c08101845281548152600182015492810192909252600280820154838501526003820154606084015260048201546080840152600582015460a0840152600682015460c0840152600782015460e084015260088201546101008401526009820154610120840152600a820154610140840152600b82015461016084015283518085019485905294995097509092909161018084019190600c840190899082845b815481526020019060010190808311611207575050509183525050600e9190910154600160a060020a03166020909101526080810151909350600010611297576040805160e560020a62461bcd02815260206004820181905260248201527f73686f756c6420626520612076616c696420706172616d657465722068617368604482015290519081900360640190fd5b6112c26112aa8460800151601a0b61314a565b6112b687601a0b61314a565b9063ffffffff61315816565b915060646112cf83613175565b601a0b13156112e5576112e2606461314a565b91505b611320611304836112f887601a0b61314a565b9063ffffffff61318116565b6113148560600151601a0b61314a565b9063ffffffff61322d16565b905061132b81613175565b601a0b98975050505050505050565b60006113488484843361323a565b949350505050565b604080517f616464726573732047656e6573697350726f746f636f6c4164647265737300006020808301919091527f627974657333322050726f706f73616c49640000000000000000000000000000603e8301527f75696e7420566f7465000000000000000000000000000000000000000000000060508301527f75696e7420416d6f756e74546f5374616b65000000000000000000000000000060598301527f75696e74204e6f6e636500000000000000000000000000000000000000000000606b83015282516055818403018152607590920192839052815191929182918401908083835b602083106114565780518252601f199092019160209182019101611437565b6001836020036101000a038019825116818451168082178552505050505050905001915050604051809103902081565b600160208190526000918252604090912080549181015460028201546003830154600484015460058501546006860154600787015460088801546009890154600a8a0154600b909a0154600160a060020a03998a169a989997989697959660ff909516959394939092169290918c565b60009392505050565b60008281602002015183600160200201518460026020020151856003602002015186600460200201518760056020020151886006602002015189600760200201518a600860200201518b600960200201518c600a60200201518d600b60200201518e600c60200201518f600d6020020151604051602001808f81526020018e81526020018d81526020018c81526020018b81526020018a81526020018981526020018881526020018781526020018681526020018581526020018481526020018381526020018281526020019e5050505050505050505050505050506040516020818303038152906040526040518082805190602001908083835b602083106116195780518252601f1990920191602091820191016115fa565b51815160209384036101000a60001901801990921691161790526040805192909401829003822082820152600160a060020a0388166c0100000000000000000000000002828501528351808303603401815260549092019384905281519195509293508392850191508083835b602083106116a55780518252601f199092019160209182019101611686565b6001836020036101000a038019825116818451168082178552505050505050905001915050604051809103902090505b92915050565b50600090565b6000806116ec615428565b6000886116f8816135af565b151561170357600080fd5b60008a8152600160208181526040808420600a8082015486528584529482902082516101c081018452815481529481015493850193909352600280840154858401526003840154606086015260048401546080860152600584015460a0860152600684015460c0860152600784015460e08601526008840154610100860152600984015461012086015294830154610140850152600b830154610160850152815180830192839052909850929391926101808501929091600c8501919082845b8154815260200190600101908083116117c3575050509183525050600e9190910154600160a060020a039081166020909201919091526101a0820151919450161561182a576101a0830151600160a060020a0316331461182257600080fd5b85915061182e565b3391505b61183a8a838b8b613605565b9a9950505050505050505050565b60009081526001602052604090206007015490565b600080600060078585604051808383808284379091019485525050604051928390036020019092205460ff16159150611897905057600080fd5b8560021415611b1957604080517f616464726573732047656e6573697350726f746f636f6c4164647265737300006020808301919091527f627974657333322050726f706f73616c49640000000000000000000000000000603e8301527f75696e7420566f7465000000000000000000000000000000000000000000000060508301527f75696e7420416d6f756e74546f5374616b65000000000000000000000000000060598301527f75696e74204e6f6e636500000000000000000000000000000000000000000000606b83015282516055818403018152607590920192839052815191929182918401908083835b602083106119a65780518252601f199092019160209182019101611987565b6001836020036101000a0380198251168184511680821785525050505050509050019150506040518091039020308b8b8b8b6040516020018086600160a060020a0316600160a060020a03166c010000000000000000000000000281526014018560001916600019168152602001848152602001838152602001828152602001955050505050506040516020818303038152906040526040518082805190602001908083835b60208310611a6b5780518252601f199092019160209182019101611a4c565b51815160209384036101000a6000190180199092169116179052604080519290940182900382208282019790975281840196909652825180820384018152606090910192839052805190959294508493509185019190508083835b60208310611ae55780518252601f199092019160209182019101611ac6565b6001836020036101000a03801982511681845116808217855250505050505090500191505060405180910390209150611cb0565b604080518082018252601c81527f19457468657265756d205369676e6564204d6573736167653a0a33320000000060208083019190915282516c01000000000000000000000000300281830152603481018e9052605481018d9052607481018c905260948082018c90528451808303909101815260b49091019384905280519293909290918291908401908083835b60208310611bc75780518252601f199092019160209182019101611ba8565b51815160209384036101000a6000190180199092169116179052604051919093018190038120865190955090830193508392860191508083835b60208310611c205780518252601f199092019160209182019101611c01565b51815160209384036101000a600019018019909216911617905292019384525060408051808503815293820190819052835193945092839250908401908083835b60208310611c805780518252601f199092019160209182019101611c61565b6001836020036101000a038019825116818451168082178552505050505050905001915050604051809103902091505b611cf285858080601f01602080910402602001604051908101604052809392919081815260200183838082843750889594505063ffffffff613c621692505050565b9050600160a060020a0381161515611d0957600080fd5b60016007868660405180838380828437909101948552505060405192839003602001909220805493151560ff19909416939093179092555061183a90508a8a8a8461323a565b6002809091565b60005b90565b60009081526001602052604090206006015460ff1690565b600080600080611d82615428565b600087815260016020526040812093506002600685015460ff166005811115611da757fe5b1480611dc557506001600685015460ff166005811115611dc357fe5b145b1515611dd057600080fd5b60078401546000908152601185016020908152604080832054600160a060020a038b16845260128801909252822060020154909450118015611e2f57506007840154600160a060020a0388166000908152601286016020526040902054145b8015611e3f575060018460070154145b8015611e4a57508215155b15611fce57600a848101546000908152602081815260409182902082516101c08101845281548152600182015492810192909252600280820154838501526003820154606084015260048201546080840152600582015460a0840152600682015460c0840152600782015460e08401526008820154610100840152600982015461012084015293810154610140830152600b8101546101608301528251808401938490529193909261018085019291600c85019182845b815481526020019060010190808311611f01575050509183525050600e9190910154600160a060020a03908116602092830152610180830151820151908a166000908152601288019092526040909120600201549193508491611f699163ffffffff613d3716565b811515611f7257fe5b600160a060020a0389166000908152601287016020526040812060020154610180860151939092049350606492611fb692915b60200201519063ffffffff613d3716565b811515611fbf57fe5b04945080851115611fce578094505b841580159061207e57506001840154600654604080517f6b8eb403000000000000000000000000000000000000000000000000000000008152600160a060020a039283166004820152602481018c9052905188939290921691636b8eb403916044808201926020929091908290030181600087803b15801561204f57600080fd5b505af1158015612063573d6000803e3d6000fd5b505050506040513d602081101561207957600080fd5b505110155b156121c457600b840154612098908663ffffffff613d6016565b600b8501556001840154600654604080517fbea75f28000000000000000000000000000000000000000000000000000000008152600160a060020a0392831660048201528a8316602482015260448101899052606481018c90529051919092169163bea75f289160848083019260209291908290030181600087803b15801561212057600080fd5b505af1158015612134573d6000803e3d6000fd5b505050506040513d602081101561214a57600080fd5b5051151561215757600080fd5b600160a060020a03808816600081815260128701602090815260408083206002018390558854835260058252918290205482518a81529251999a508a99939416928c927fb4a37163ec93e05e09b62e52f7f2ea8cfde431802edede7dfebe53d2ad969dbb92908290030190a45b505050509250929050565b60009182526001602090815260408084209284526011909201905290205490565b600654600160a060020a031681565b60008061220a615428565b600086612216816135af565b151561222157600080fd5b6000888152600160208181526040808420600a8082015486528584529482902082516101c081018452815481529481015493850193909352600280840154858401526003840154606086015260048401546080860152600584015460a0860152600684015460c0860152600784015460e08601526008840154610100860152600984015461012086015294830154610140850152600b830154610160850152815180830192839052909850929391926101808501929091600c8501919082845b8154815260200190600101908083116122e1575050509183525050600e9190910154600160a060020a039081166020909201919091526101a08201519194501615612348576101a0830151600160a060020a0316331461234057600080fd5b85915061234c565b3391505b6123598883896000613605565b98975050505050505050565b6000908152600160208181526040808420838552600f8101835281852054600280875283872054600c840154600d850154978952601190940190955283872054908752929095205494959294909392565b60408051808201909152601c81527f19457468657265756d205369676e6564204d6573736167653a0a333200000000602082015281565b60006123f761549e565b60008381526001602081815260409283902083516101a0810185528154815292810154600160a060020a031691830191909152600281015492820192909252600382015460608201526004820154608082015260058083015460a0830152600683015491929160c084019160ff9091169081111561247157fe5b600581111561247c57fe5b8152600782015460208201526008820154600160a060020a031660408083019190915260098301546060830152600a8301546080830152600b83015460a083015280518082019182905260c09092019190600c84019060029082845b8154815260200190600101908083116124d8575050505050815250509050612509816101400151826000015161113a565b61251284613d72565b12159392505050565b60008061252661549e565b6002871461253357600080fd5b6000868152602081905260408120541161254c57600080fd5b600254604080516c01000000000000000000000000300260208083019190915260348083019490945282518083039094018452605490910191829052825182918401908083835b602083106125b25780518252601f199092019160209182019101612593565b51815160209384036101000a600019018019909216911617905260408051929094018290039091206002805460010190558684018d90523387830181905284516c0100000000000000000000000091820281850152600160a060020a038c1690910260348201528451808203602801815260489091019485905280519198509550929350839290850191508083835b602083106126605780518252601f199092019160209182019101612641565b5181516020939093036101000a60001901801990911692169190911790526040519201829003909120845250600391505060c08201819052504260808201908152600087815260208181526040808320600290810154610120870152600160a060020a038a811661010088015260e0870182905261014087018c90528785526001808552948390208751815593870151848601805473ffffffffffffffffffffffffffffffffffffffff1916919092161790559085015190820155606084015160038201559151600483015560a083015160058084019190915560c08401516006840180548695949293919260ff199190911691849081111561275f57fe5b021790555060e0820151600782015561010082015160088201805473ffffffffffffffffffffffffffffffffffffffff1916600160a060020a039092169190911790556101208201516009820155610140820151600a820155610160820151600b8201556101808201516127d990600c83019060026153ea565b50508151600090815260056020526040902054600160a060020a03161515905061287657600160a060020a038416151561283f5780516000908152600560205260409020805473ffffffffffffffffffffffffffffffffffffffff191633179055612876565b80516000908152600560205260409020805473ffffffffffffffffffffffffffffffffffffffff1916600160a060020a0386161790555b80516000908152600560209081526040918290205482518a8152600160a060020a03898116938201939093528084018a9052925191169184917f75b4ff136cc5de5957574c797de3334eb1c141271922b825eb071e0487ba2c5c9181900360600190a35095945050505050565b806128ed816135af565b15156128f857600080fd5b5050565b60009081526001602052604090206002015490565b600181565b6000918252600160209081526040808420928452600e909201905290205490565b600560205260009081526040902054600160a060020a031681565b60006116d5826135af565b61296561550b565b600061296f615428565b60008581526001602052604081209250808080808080600260068a015460ff16600581111561299a57fe5b14806129b85750600160068a015460ff1660058111156129b657fe5b145b1515612a0e576040805160e560020a62461bcd02815260206004820152601460248201527f77726f6e672070726f706f73616c207374617465000000000000000000000000604482015290519081900360640190fd5b600a898101546000908152602081815260409182902082516101c08101845281548152600182015492810192909252600280820154838501526003820154606084015260048201546080840152600582015460a0840152600682015460c0840152600782015460e08401526008820154610100840152600982015461012084015293810154610140830152600b8101546101608301528251808401938490529193909261018085019291600c85019182845b815481526020019060010190808311612ac0575050509183525050600e9190910154600160a060020a031660209091015260078a015490985060011415612b1b5760026000908152600f8a0160205260409020549450612b31565b60016000908152600f8a01602052604090205494505b610140880151600160a060020a038c16600090815260128b0160205260408120600181015460649890930297909704969550108015612b74575060078901548454145b15612c0d576007890154600090815260118a01602052604090205492508215612bb157600c8901546001850154849102811515612bad57fe5b048a525b600160068a015460ff166005811115612bc657fe5b14612c05576007890154600090815260118a0160205260409020546101608901516064908702048603856001015402811515612bfe57fe5b0460208b01525b600060018501555b600160a060020a038b16600090815260108a0160205260409020600181015490925015801590612c415750600282015460ff165b15612d0f575060026000908152600f890160205260408082205460018352908220540190811115612c88578082600101548a6003015402811515612c8157fe5b0460408b01525b600160068a015460ff166005811115612c9d57fe5b1415612cbd576101408801516001830154606491020460608b0152612d07565b815460078a01541415612d07576101608801516001830154829160649188020204811515612ce757fe5b046064896101400151846001015402811515612cff57fe5b040160608b01525b600060018301555b6008890154600160a060020a038c81169116148015612d32575060018960070154145b8015612d4a57506008890154600160a060020a031615155b15612de65760026000908152600e8a01602052604080822054600183529120546101008a01516103e892612d84920363ffffffff613d3716565b60026000908152600e8c016020526040808220546001835291205460e08c0151612db69290910163ffffffff613d3716565b01811515612dc057fe5b0460808b015260088901805473ffffffffffffffffffffffffffffffffffffffff191690555b60408a01518a5160808c015160608d015160208e015192909301995091010195508615612f4a57600d890154612e1c9088613d60565b600d8a0155600654604080517fa9059cbb000000000000000000000000000000000000000000000000000000008152600160a060020a038e81166004830152602482018b90529151919092169163a9059cbb9160448083019260209291908290030181600087803b158015612e9057600080fd5b505af1158015612ea4573d6000803e3d6000fd5b505050506040513d6020811015612eba57600080fd5b50511515612ec757600080fd5b8a600160a060020a0316600560008b600001546000191660001916815260200190815260200160002060009054906101000a9004600160a060020a0316600160a060020a03168d600019167f6d26871c9f457d104b2122485f659f126f7a0cf6938cf20482c03f49794a2fbf8a6040518082815260200191505060405180910390a45b8515613099578860010160009054906101000a9004600160a060020a0316600160a060020a031663d29b5d2f878d8f6040518463ffffffff1660e060020a0281526004018084815260200183600160a060020a0316600160a060020a0316815260200182600019166000191681526020019350505050602060405180830381600087803b158015612fda57600080fd5b505af1158015612fee573d6000803e3d6000fd5b505050506040513d602081101561300457600080fd5b8101908080519060200190929190505050508a600160a060020a0316600560008b600001546000191660001916815260200190815260200160002060009054906101000a9004600160a060020a0316600160a060020a03168d600019167f7419b736daacf66d5c1645948c956fca2b83be1e2e02d486d65713f289d683b8896040518082815260200191505060405180910390a45b50505050505050505092915050565b60006116d582613d72565b6000816130bf816135af565b15156130ca57600080fd5b6130d383613d9c565b9392505050565b600081815260046020526040812081906130f390614477565b15613119576000838152600460205260409020613116904263ffffffff6144f516565b90505b6000838152600360205260409020546130d3908263ffffffff613d6016565b60036020526000908152604090205481565b601a0b650100000000000290565b60008165010000000000840281151561316d57fe5b059392505050565b65010000000000900590565b60008115156131975750650100000000006116d5565b8215156131b45760008212156131ac57600080fd5b5060006116d5565b6131bd826145bb565b15156132055760008213156131e5576131de836131d984613175565b6145dd565b90506116d5565b6131de65010000000000613200856131d96000879003613175565b613158565b600083121561321357600080fd5b6130d36132288361322386614645565b61322d565b614652565b6501000000000091020590565b600080600080613248615428565b600288111580156132595750600088115b151561326457600080fd5b6000871161327157600080fd5b61327a89613d9c565b1561328857600194506135a3565b600089815260016020526040902093506003600685015460ff1660058111156132ad57fe5b146132bb57600094506135a3565b600160a060020a0386166000908152601285016020526040812060018101549094501180156132eb575082548814155b156132f957600094506135a3565b600a848101546000908152602081815260409182902082516101c08101845281548152600182015492810192909252600280820154838501526003820154606084015260048201546080840152600582015460a0840152600682015460c0840152600782015460e08401526008820154610100840152600982015461012084015293810154610140830152600b8101546101608301528251808401938490528b96509193909261018085019291600c85019182845b8154815260200190600101908083116133ae575050509183525050600e9190910154600160a060020a031660209091015260a08101519091508210156133f357600080fd5b600654604080517f23b872dd000000000000000000000000000000000000000000000000000000008152600160a060020a03898116600483015230602483015260448201869052915191909216916323b872dd9160648083019260209291908290030181600087803b15801561346857600080fd5b505af115801561347c573d6000803e3d6000fd5b505050506040513d602081101561349257600080fd5b5051151561349f57600080fd5b600d8401546134ae908361465f565b600d8501556001830180548301908190556002840155878355610120810151600385018054606492850292909204909101905560008881526011850160205260409020546134fd90839061465f565b600089815260118601602052604090205561012081015160649083020490910390613536600c850160000154839063ffffffff61465f16565b600c85015583546000908152600560209081526040918290205482518b81529182018a90528251600160a060020a038a8116949216928d927fd0239d7d4acf51def4507fa173be466927de5d75d8b10d840cd6994d6e10231092918290030190a46135a089613d9c565b94505b50505050949350505050565b60008181526001602052604081206006015460ff1660038160058111156135d257fe5b14806135e9575060048160058111156135e757fe5b145b806130d3575060058160058111156135fd57fe5b149392505050565b600061360f615428565b6000806000806000600289111580156136285750600089115b151561367e576040805160e560020a62461bcd02815260206004820152600e60248201527f30203c205f766f7465203c3d2032000000000000000000000000000000000000604482015290519081900360640190fd5b6136878b613d9c565b156136955760019650613c54565b60008b8152600160208181526040808420600a9081015485528483529381902081516101c081018352815481529381015492840192909252600280830154848301526003830154606085015260048301546080850152600583015460a0850152600683015460c0850152600783015460e08501526008830154610100850152600983015461012085015293820154610140840152600b820154610160840152805180820191829052929391926101808501929091600c8501919082845b8154815260200190600101908083116137525750505050508152602001600e820160009054906101000a9004600160a060020a0316600160a060020a0316600160a060020a0316815250509550600160008c6000191660001916815260200190815260200160002094508460010160009054906101000a9004600160a060020a0316600160a060020a0316639588378e8b8d6040518363ffffffff1660e060020a0281526004018083600160a060020a0316600160a060020a03168152602001826000191660001916815260200192505050602060405180830381600087803b15801561383e57600080fd5b505af1158015613852573d6000803e3d6000fd5b505050506040513d602081101561386857600080fd5b50519350878410156138c4576040805160e560020a62461bcd02815260206004820152601260248201527f72657075746174696f6e203e3d205f7265700000000000000000000000000000604482015290519081900360640190fd5b8792508215156138d2578392505b600160a060020a038a166000908152601086016020526040902060010154156138fe5760009650613c54565b6000898152600e8601602052604090205461392090849063ffffffff61465f16565b60008a8152600e8701602052604080822083905560078801548252812054908b90521080613978575060078501546000908152600e860160205260408082205460028352912054148015613978575060018560070154145b15613a68574291506005600686015460ff16600581111561399557fe5b14806139ce57506004600686015460ff1660058111156139b157fe5b1480156139ce57508560c001518660400151038560050154830310155b15613a605760098501546005860154865460009081526004602052604090206139ff9290910163ffffffff61466c16565b6005600686015460ff166005811115613a1457fe5b14613a335760c0860151600986015560068501805460ff191660051790555b60058501829055600985015485546000908152600460205260409020613a6091840163ffffffff6146fe16565b600785018990555b604080516060810182528a8152602081018590529081016003600688015460ff166005811115613a9457fe5b149052600160a060020a038b166000908152601087016020908152604091829020835181559083015160018201559101516002909101805460ff19169115159190911790556003600686015460ff166005811115613aee57fe5b1415613bec576000898152600f86016020526040902054613b1690849063ffffffff61465f16565b60008a8152600f8701602052604090205561014086015160649084020490508460010160009054906101000a9004600160a060020a0316600160a060020a031663f81f8bf6828c8e6040518463ffffffff1660e060020a0281526004018084815260200183600160a060020a0316600160a060020a0316815260200182600019166000191681526020019350505050602060405180830381600087803b158015613bbf57600080fd5b505af1158015613bd3573d6000803e3d6000fd5b505050506040513d6020811015613be957600080fd5b50505b84546000908152600560209081526040918290205482518c81529182018690528251600160a060020a03808f16949216928f927f066c061a3792cb3eb64a441a928655fcbafb4a54b49725fe9cd2951df5e7189e92918290030190a4613c518b613d9c565b96505b505050505050949350505050565b60008060008084516041141515613c7c5760009350613d2e565b50505060208201516040830151606084015160001a601b60ff82161015613ca157601b015b8060ff16601b14158015613cb957508060ff16601c14155b15613cc75760009350613d2e565b60408051600080825260208083018085528a905260ff8516838501526060830187905260808301869052925160019360a0808501949193601f19840193928390039091019190865af1158015613d21573d6000803e3d6000fd5b5050506020604051035193505b50505092915050565b6000821515613d48575060006116d5565b50818102818382811515613d5857fe5b04146116d557fe5b600082821115613d6c57fe5b50900390565b60009081526001602081815260408084206002855260110190915280832054918352909120540390565b600080613da7615428565b613daf61549e565b60008060008088613dbf816135af565b1515613dca57600080fd5b60008a8152600160208181526040808420600a8082015486528584529482902082516101c081018452815481529481015493850193909352600280840154858401526003840154606086015260048401546080860152600584015460a0860152600684015460c0860152600784015460e08601526008840154610100860152600984015461012086015294830154610140850152600b830154610160850152815180830192839052909c50929391926101808501929091600c8501919082845b815481526020019060010190808311613e8a575050509183525050600e9190910154600160a060020a03908116602092830152604080516101a0810182528c54815260018d01549092169282019290925260028b01549181019190915260038a0154606082015260048a015460808201526005808b015460a083015260068b015492995090918a9160c084019160ff1690811115613f2457fe5b6005811115613f2f57fe5b8152600782015460208201526008820154600160a060020a031660408083019190915260098301546060830152600a8301546080830152600b83015460a083015280518082019182905260c09092019190600c84019060029082845b815481526020019060010190808311613f8b57505050919092525050506001890154604080517fb551c373000000000000000000000000000000000000000000000000000000008152600481018e90529051929850600160a060020a039091169163b551c373916024808201926020929091908290030181600087803b15801561401457600080fd5b505af1158015614028573d6000803e3d6000fd5b505050506040513d602081101561403e57600080fd5b505187519095506064908602049350600092506003600689015460ff16600581111561406657fe5b141561413e576020870151600489015442031061409d5760068801805460ff19166001908117909155600260078a0155925061413e565b60078801546000908152600e890160205260409020548410156140d35760068801805460ff19166002908117909155925061413e565b6140dc8a6123ed565b1561413e576006880180546004919060ff1916600183021790555042600589018190556009890154895460009081526004602052604090206141269290910163ffffffff6146fe16565b87546000908152600360205260409020805460010190555b6004600689015460ff16600581111561415357fe5b148061417157506005600689015460ff16600581111561416f57fe5b145b1561428f57600988015460058901544203106141fc5760098801546005890154895460009081526004602052604090206141b39290910163ffffffff61466c16565b60068801805460ff1916600217905585516000908152600360205260409020546141de906001613d60565b8651600090815260036020819052604090912091909155925061428f565b60078801546000908152600e8901602052604090205484101561428f57855160009081526003602052604090205461423b90600163ffffffff613d6016565b865160009081526003602090815260408083209390935560098b015460058c01548c54845260049092529290912061427b9290910163ffffffff61466c16565b60068801805460ff19166002179055600492505b600083600481111561429d57fe5b146144595760018860070154141561430d57600788015460009081526011890160205260408120546101808901516064926142d9929190611fa5565b8115156142e257fe5b610180890151602001519190049250821115614305576101808701516020015191505b600b88018290555b87546000908152600560209081526040918290205460078b015483519081529182018890528251600160a060020a03909116928d927f37471b9c9d295ffb1309ad070b8964700bfb7b555e8e8292d0b6cbc7dba35d10929081900390910190a389600019167f46a713b994c752c68fbefa9048bec9a0010cc7d933ad95a3c3dbb25931a167e784604051808260048111156143a457fe5b60ff16815260200191505060405180910390a260018801546007890154604080517f9d4c162d000000000000000000000000000000000000000000000000000000008152600481018e9052602481019290925251600160a060020a0390921691639d4c162d916044808201926020929091908290030181600087803b15801561442c57600080fd5b505af1158015614440573d6000803e3d6000fd5b505050506040513d602081101561445657600080fd5b50505b600083600481111561446757fe5b14159a9950505050505050505050565b60008061448261552a565b5050600080805260208381526040808320600180855281845282852054855295835292819020815160a081018352958101548652600281015460ff161515928601929092526003820154908501526004810154606085018190526005918201546080909501949094520154909101919050565b60008080808415613d2e5760008080526020878152604080832060058101546001855290835281842054808552928a90529220919550935091505b84831161457a578483101561454c578160050154846001010193505b50600080805260208290526040902054801561457a5760008181526020879052604090206004015493909301925b8483141561458757613d2e565b918411600090815260208290526040902054918215156145a657613d2e565b60008381526020879052604090209150614530565b6000650100000000006145cd83614730565b8115156145d657fe5b0792915050565b600080600080600085601a0b12156145f457600080fd5b5084915050601a83900b650100000000005b811561463c57816001166001141561462557614622818461322d565b90505b600290910590614635838061322d565b9250614606565b95945050505050565b60006116d582606461474c565b60006116d582606461482e565b818101828110156116d557fe5b60008181526020839052604090208115156146965760058101541515614691576146f9565b6146a6565b600481015415156146a6576146f9565b6000816005015411156146ef5760058101805460001901905581156146d2576004810180546000190190555b600181015460028201546146ea91859160ff1661487d565b6146f9565b6146f983836148a2565b505050565b801515614722576000818152602083905260409020600501805460010190556128f8565b6128f8826000600184614996565b6000808213156147415750806109ef565b8160000390506109ef565b600080808080808080891361476057600080fd5b650100000000008914156147775760009650614822565b61478089614a65565b909650945061479f64ffffffffff198701650100000000008801613158565b935060009250600091505b8782601a0b12156147f4576147d76147c885846002026001016145dd565b6132008460020260010161314a565b9283019290508015156147e9576147f4565b6001909101906147aa565b614804836502000000000061322d565b92508261481e6148138761314a565b64b17217f7d261322d565b0196505b50505050505092915050565b60008065010000000000815b8481601a0b1215614873579181019161485d82613223886132006001860161314a565b915081151561486b57614873565b60010161483a565b5090949350505050565b81156146f95761488d8383614ae7565b6148978383614b3a565b6146f9838383614b74565b60008181526020838152604080832060018082015460028301548187528487208780529584905284872054928752938620549295909460ff90941693929080831580156148ed575082155b1561491e5785151560009081526020869052604081205561490e8a8a614c83565b6149198a888861487d565b61498a565b831580159061492c57508215155b1561493c576149198a8a86614cd1565b5050818101600081815260208a815260408083208815158085529288905292208390556001820188905560028201805460ff1916909117905561497f8a8a614c83565b61498a8a888861487d565b50505050505050505050565b6000838152602085815260408083208515158452918290528220549091811515614a195750831515600081815260208481526040808320879055868352908990529020600180820188905560028201805460ff1916909317909255600381018290556004810191909155614a0a8785614b3a565b614a148785614eb9565b614a5c565b83821415614a4d57600082815260208890526040902060050180546001019055614a438785614ae7565b614a148785614b3a565b614a5c87838487101587614996565b50505050505050565b60008080808413614a7557600080fd5b614a86614a8185614f5a565b614fb6565b60ff169050602881039150600082601a0b1215614abc5781600003601a0b846000821215614ab057fe5b9060020a029250614ae1565b6000601a83900b12614ae15781601a0b846000821215614ad857fe5b9060020a900592505b50915091565b600090815260208281526040808320600581015460018086528285528386205486528685528386206004908101548780528487528588205488529790955292909420830154909401909201909101910155565b6000818152602083905260409020600101545b80156146f957614b5d8382614ae7565b600090815260208390526040902060010154614b4d565b600080808080808715614c7857614b8b8989615106565b614b95898961516b565b95508615614ba65760019450614bac565b60001994505b614bb6898961516b565b935084600202841415614c4757600088815260208a815260408083208a15845291829052909120549093509150614bed898361516b565b90508460001902811415614c0757614c07898389156151b3565b614c128989896151b3565b8015614c4257600088815260208a90526040902060018101546002820154919450614c42918b919060ff16614b74565b614c78565b858514614c7857600088815260208a90526040902060018101546002820154919450614c78918b919060ff16614b74565b505050505050505050565b600090815260209182526040808220600180820184905560028201805460ff191690558380529381905281832083905592825281208190556004820181905560038201819055600590910155565b6000806000806000806000806000806000614cec8e8d615373565b9a508d60000160008c8152602001908152602001600020995089600501549850614d168e8c6148a2565b8d60000160008e81526020019081526020016000209750876001015496508d60000160008881526020019081526020016000209550876003015494508760020160009054906101000a900460ff169350876004015492508760000160006001151515158152602001908152602001600020549150876000016000801515151581526020019081526020016000205490508a8660000160008615151515815260200190815260200160002081905550868a60010181905550838a60020160006101000a81548160ff0219169083151502179055508760050154898401038a60040181905550848a60030181905550888a60050181905550806000141515614e5257808a600001600080151515158152602001908152602001600020819055508a8e6000016000838152602001908152602001600020600101819055505b8115614e9557818a60000160006001151515158152602001908152602001600020819055508a8e6000016000848152602001908152602001600020600101819055505b614e9f8e8e614c83565b614ea98e8c614b3a565b5050505050505050505050505050565b6000806000806000614ecb8787615106565b6000868152602088905260409020600181015490955093508315614a5c57614ef3878561516b565b600286015490935060ff1691508115614f0f5750600019614f13565b5060015b80600202831415614f4a578060001902614f2d888861516b565b1415614f3e57614f3e8787846151b3565b614a14878584156151b3565b8215614a5c57614a5c8785614eb9565b600270010000000000000000000000000000000068010000000000000000640100000000620100006101006010600487890489179081041790810417908104179081041790810417908104179081041790810481189050919050565b60007faaaaaaaaaaaaaaaaaaaaaaaaaaaaaaaaaaaaaaaaaaaaaaaaaaaaaaaaaaaaaaaa821615614fe4576001175b7fcccccccccccccccccccccccccccccccccccccccccccccccccccccccccccccccc821615615010576002175b7ff0f0f0f0f0f0f0f0f0f0f0f0f0f0f0f0f0f0f0f0f0f0f0f0f0f0f0f0f0f0f0f082161561503c576004175b7fff00ff00ff00ff00ff00ff00ff00ff00ff00ff00ff00ff00ff00ff00ff00ff00821615615068576008175b7fffff0000ffff0000ffff0000ffff0000ffff0000ffff0000ffff0000ffff0000821615615094576010175b7fffffffff00000000ffffffff00000000ffffffff00000000ffffffff000000008216156150c0576020175b77ffffffffffffffff0000000000000000ffffffffffffffff198216156150e5576040175b6fffffffffffffffffffffffffffffffff198216156109ef57608017919050565b60008181526020838152604080832083805280835281842054845285835281842060039081015460018652828552838620548652938790529190932001548082111561515a57600182016003840155615164565b6001810160038401555b5050505050565b600081815260208381526040808320600184528083528184205484528583528184206003908101548580528285528386205486529387905291909320015403905b5092915050565b6000806000806000806000806000891598508b60000160008c815260200190815260200160002097508760020160009054906101000a900460ff169650876001015495508760000160008a1515151581526020019081526020016000205494508b600001600086815260200190815260200160002093508360000160008b1515151581526020019081526020016000205492508b600001600087815260200190815260200160002091508b60000160008481526020019081526020016000209050848260000160008915151515815260200190815260200160002081905550868460020160006101000a81548160ff0219169083151502179055508584600101819055508a8460000160008c15151515815260200190815260200160002081905550848860010181905550898860020160006101000a81548160ff021916908315150217905550828860000160008b151515158152602001908152602001600020819055508a8160010181905550888160020160006101000a81548160ff0219169083151502179055506153478c8c615106565b6153518c86615106565b61535b8c8c614ae7565b6153658c86614ae7565b505050505050505050505050565b6000818152602083815260408083206001845290915281205480156153a35761539c8482615373565b91506151ac565b8291506151ac565b60606040519081016040528060008152602001600081526020016000151581525090565b60408051808201825290600290829080388339509192915050565b8260028101928215615418579160200282015b828111156154185782518255916020019190600101906153fd565b5061542492915061555c565b5090565b6101e0604051908101604052806000815260200160008152602001600081526020016000815260200160008152602001600081526020016000815260200160008152602001600081526020016000815260200160008152602001600081526020016154916153cf565b8152600060209091015290565b604080516101c081018252600080825260208201819052918101829052606081018290526080810182905260a081018290529060c0820190815260006020820181905260408201819052606082018190526080820181905260a082015260c0016155066153cf565b905290565b60a0604051908101604052806005906020820280388339509192915050565b60a060405190810160405280600081526020016000151581526020016000815260200160008152602001600081525090565b611d5991905b8082111561542457600081556001016155625600a165627a7a72305820e65e7e050dfcd9a5989797c25607ae6844a10f3da6b4f6248880482e2b984ed00029",
  "source": "pragma solidity ^0.4.25;\r\n\r\nimport \"./IntVoteInterface.sol\";\r\nimport { RealMath } from \"../libs/RealMath.sol\";\r\nimport \"./VotingMachineCallbacksInterface.sol\";\r\nimport \"./ProposalExecuteInterface.sol\";\r\nimport \"openzeppelin-solidity/contracts/math/SafeMath.sol\";\r\nimport \"openzeppelin-solidity/contracts/token/ERC20/StandardToken.sol\";\r\nimport \"openzeppelin-solidity/contracts/ECRecovery.sol\";\r\nimport { OrderStatisticTree } from \"../libs/OrderStatisticTree.sol\";\r\n\r\n\r\n/**\r\n * @title GenesisProtocol implementation -an organization's voting machine scheme.\r\n */\r\ncontract GenesisProtocol is IntVoteInterface {\r\n    using SafeMath for uint;\r\n    using RealMath for int216;\r\n    using RealMath for int256;\r\n    using ECRecovery for bytes32;\r\n    using OrderStatisticTree for OrderStatisticTree.Tree;\r\n\r\n    enum ProposalState { None ,Closed, Executed, PreBoosted,Boosted,QuietEndingPeriod }\r\n    enum ExecutionState { None, PreBoostedTimeOut, PreBoostedBarCrossed, BoostedTimeOut,BoostedBarCrossed }\r\n\r\n    //Organization's parameters\r\n    struct Parameters {\r\n        uint preBoostedVoteRequiredPercentage; // the absolute vote percentages bar.\r\n        uint preBoostedVotePeriodLimit; //the time limit for a proposal to be in an absolute voting mode.\r\n        uint boostedVotePeriodLimit; //the time limit for a proposal to be in an relative voting mode.\r\n        uint thresholdConstA;//constant A for threshold calculation . threshold =A * (e ** (numberOfBoostedProposals/B))\r\n        uint thresholdConstB;//constant B for threshold calculation . threshold =A * (e ** (numberOfBoostedProposals/B))\r\n        uint minimumStakingFee; //minimum staking fee allowed.\r\n        uint quietEndingPeriod; //quite ending period\r\n        uint proposingRepRewardConstA;//constant A for calculate proposer reward. proposerReward =(A*(RTotal) +B*(R+ - R-))/1000\r\n        uint proposingRepRewardConstB;//constant B for calculate proposing reward.proposerReward =(A*(RTotal) +B*(R+ - R-))/1000\r\n        uint stakerFeeRatioForVoters; // The ratio of stake to be paid to voters.\r\n                                      // All stakers pay a portion of their stake to all voters, stakerFeeRatioForVoters * (s+ + s-).\r\n                                      //All voters (pre and during boosting period) divide this portion in proportion to their reputation.\r\n        uint votersReputationLossRatio;//Unsuccessful pre booster voters lose votersReputationLossRatio% of their reputation.\r\n        uint votersGainRepRatioFromLostRep; //the percentages of the lost reputation which is divided by the successful pre boosted voters,\r\n                                            //in proportion to their reputation.\r\n                                            //The rest (100-votersGainRepRatioFromLostRep)% of lost reputation is divided between the successful wagers,\r\n                                            //in proportion to their stake.\r\n        uint[2] daoBountyParams; //daoBountyParams[0] = daoBountyConst //The DAO adds up a bounty for successful staker.\r\n                                //The bounty formula is: s * daoBountyConst, where s+ is the wager staked for the proposal,\r\n                                //and  daoBountyConst is a constant factor that is configurable and changeable by the DAO given.\r\n                                //  daoBountyConst should be greater than stakerFeeRatioForVoters and less than 2 * stakerFeeRatioForVoters.\r\n                                //daoBountyParams[1] = daoBountyLimit The daoBounty cannot be greater than daoBountyLimit.\r\n        address voteOnBehalf; //this address is allowed to vote of behalf of someone else.\r\n    }\r\n    struct Voter {\r\n        uint vote; // YES(1) ,NO(2)\r\n        uint reputation; // amount of voter's reputation\r\n        bool preBoosted;\r\n    }\r\n\r\n    struct Staker {\r\n        uint vote; // YES(1) ,NO(2)\r\n        uint amount; // amount of staker's stake\r\n        uint amountForBounty; // amount of staker's stake which will be use for bounty calculation\r\n    }\r\n\r\n    struct Proposal {\r\n        bytes32 organizationId; // the organization unique identifier the proposal is target to.\r\n        address callbacks;    // should fulfill voting callbacks interface.\r\n        uint numOfChoices;\r\n        uint votersStakes;\r\n        uint submittedTime;\r\n        uint boostedPhaseTime; //the time the proposal shift to relative mode.\r\n        ProposalState state;\r\n        uint winningVote; //the winning vote.\r\n        address proposer;\r\n        uint currentBoostedVotePeriodLimit;\r\n        bytes32 paramsHash;\r\n        uint daoBountyRemain;\r\n        uint[2] totalStakes;// totalStakes[0] - (amount staked minus fee) - Total number of tokens staked which can be redeemable by stakers.\r\n                           // totalStakes[1] - (amount staked) - Total number of redeemable tokens.\r\n        //      vote      reputation\r\n        mapping(uint    =>  uint     ) votes;\r\n        //      vote      reputation\r\n        mapping(uint    =>  uint     ) preBoostedVotes;\r\n        //      address     voter\r\n        mapping(address =>  Voter    ) voters;\r\n        //      vote        stakes\r\n        mapping(uint    =>  uint     ) stakes;\r\n        //      address  staker\r\n        mapping(address  => Staker   ) stakers;\r\n    }\r\n\r\n    event Stake(bytes32 indexed _proposalId, address indexed _organization, address indexed _staker,uint _vote,uint _amount);\r\n    event Redeem(bytes32 indexed _proposalId, address indexed _organization, address indexed _beneficiary,uint _amount);\r\n    event RedeemDaoBounty(bytes32 indexed _proposalId, address indexed _organization, address indexed _beneficiary,uint _amount);\r\n    event RedeemReputation(bytes32 indexed _proposalId, address indexed _organization, address indexed _beneficiary,uint _amount);\r\n    event GPExecuteProposal(bytes32 indexed _proposalId, ExecutionState _executionState);\r\n\r\n    mapping(bytes32=>Parameters) public parameters;  // A mapping from hashes to parameters\r\n    mapping(bytes32=>Proposal) public proposals; // Mapping from the ID of the proposal to the proposal itself.\r\n\r\n    uint constant public NUM_OF_CHOICES = 2;\r\n    uint constant public NO = 2;\r\n    uint constant public YES = 1;\r\n    uint public proposalsCnt; // Total number of proposals\r\n    mapping(bytes32=>uint) public orgBoostedProposalsCnt;\r\n    mapping(bytes32=>OrderStatisticTree.Tree) proposalsExpiredTimes; //proposals expired times\r\n          //organizationId => organization\r\n    mapping(bytes32        => address     ) public organizations;\r\n    StandardToken public stakingToken;\r\n    mapping(bytes=>bool) stakeSignatures; //stake signatures\r\n    address constant GEN_TOKEN_ADDRESS = 0x543Ff227F64Aa17eA132Bf9886cAb5DB55DCAddf;\r\n    // Digest describing the data the user signs according EIP 712.\r\n    // Needs to match what is passed to Metamask.\r\n    bytes32 public constant DELEGATION_HASH_EIP712 =\r\n    keccak256(abi.encodePacked(\"address GenesisProtocolAddress\",\"bytes32 ProposalId\", \"uint Vote\",\"uint AmountToStake\",\"uint Nonce\"));\r\n    // web3.eth.sign prefix\r\n    string public constant ETH_SIGN_PREFIX= \"\\x19Ethereum Signed Message:\\n32\";\r\n    /**\r\n     * @dev Constructor\r\n     */\r\n    constructor(StandardToken _stakingToken) public\r\n    {\r\n      //The GEN token (staking token) address is hard coded in the contract by GEN_TOKEN_ADDRESS .\r\n      //This will work for a network which already hosted the GEN token on this address (e.g mainnet).\r\n      //If such contract address does not exist in the network (e.g ganache) the contract will use the _stakingToken param as the\r\n      //staking token address.\r\n        if (isContract(address(GEN_TOKEN_ADDRESS))) {\r\n            stakingToken = StandardToken(GEN_TOKEN_ADDRESS);\r\n        } else {\r\n            stakingToken = _stakingToken;\r\n        }\r\n    }\r\n\r\n  /**\r\n   * @dev Check that the proposal is votable (open and not executed yet)\r\n   */\r\n    modifier votable(bytes32 _proposalId) {\r\n        require(_isVotable(_proposalId));\r\n        _;\r\n    }\r\n\r\n    /**\r\n     * @dev register a new proposal with the given parameters. Every proposal has a unique ID which is being\r\n     * generated by calculating keccak256 of a incremented counter.\r\n     * @param _numOfChoices number of voting choices\r\n     * @param _paramsHash parameters hash\r\n     * @param _proposer address\r\n     * @param _organization address\r\n     */\r\n    function propose(uint _numOfChoices, bytes32 _paramsHash,address _proposer,address _organization)\r\n        external\r\n        returns(bytes32)\r\n    {\r\n              // Check valid params and number of choices:\r\n        require(_numOfChoices == NUM_OF_CHOICES);\r\n         //Check parameters existence.\r\n        require(parameters[_paramsHash].preBoostedVoteRequiredPercentage > 0);\r\n            // Generate a unique ID:\r\n        bytes32 proposalId = keccak256(abi.encodePacked(this, proposalsCnt));\r\n        proposalsCnt++;\r\n         // Open proposal:\r\n        Proposal memory proposal;\r\n        proposal.numOfChoices = _numOfChoices;\r\n        proposal.callbacks = msg.sender;\r\n        proposal.organizationId = keccak256(abi.encodePacked(msg.sender,_organization));\r\n\r\n        proposal.state = ProposalState.PreBoosted;\r\n        // solium-disable-next-line security/no-block-members\r\n        proposal.submittedTime = now;\r\n        proposal.currentBoostedVotePeriodLimit = parameters[_paramsHash].boostedVotePeriodLimit;\r\n        proposal.proposer = _proposer;\r\n        proposal.winningVote = NO;\r\n        proposal.paramsHash = _paramsHash;\r\n        proposals[proposalId] = proposal;\r\n        if (organizations[proposal.organizationId] == 0) {\r\n            if (_organization == address(0)) {\r\n                organizations[proposal.organizationId] = msg.sender;\r\n            } else {\r\n                organizations[proposal.organizationId] = _organization;\r\n            }\r\n        }\r\n        emit NewProposal(proposalId, organizations[proposal.organizationId], _numOfChoices, _proposer, _paramsHash);\r\n        return proposalId;\r\n    }\r\n\r\n  /**\r\n   * @dev Cancel a proposal, only the owner can call this function and only if allowOwner flag is true.\r\n   */\r\n    function cancelProposal(bytes32 ) external returns(bool) {\r\n        //This is not allowed.\r\n        return false;\r\n    }\r\n\r\n    /**\r\n     * @dev staking function\r\n     * @param _proposalId id of the proposal\r\n     * @param _vote  NO(2) or YES(1).\r\n     * @param _amount the betting amount\r\n     * @return bool true - the proposal has been executed\r\n     *              false - otherwise.\r\n     */\r\n    function stake(bytes32 _proposalId, uint _vote, uint _amount) external returns(bool) {\r\n        return _stake(_proposalId,_vote,_amount,msg.sender);\r\n    }\r\n\r\n    /**\r\n     * @dev stakeWithSignature function\r\n     * @param _proposalId id of the proposal\r\n     * @param _vote  NO(2) or YES(1).\r\n     * @param _amount the betting amount\r\n     * @param _nonce nonce value ,it is part of the signature to ensure that\r\n              a signature can be received only once.\r\n     * @param _signatureType signature type\r\n              1 - for web3.eth.sign\r\n              2 - for eth_signTypedData according to EIP #712.\r\n     * @param _signature  - signed data by the staker\r\n     * @return bool true - the proposal has been executed\r\n     *              false - otherwise.\r\n     */\r\n    function stakeWithSignature(\r\n        bytes32 _proposalId,\r\n        uint _vote,\r\n        uint _amount,\r\n        uint _nonce,\r\n        uint _signatureType,\r\n        bytes _signature\r\n        )\r\n        external\r\n        returns(bool)\r\n        {\r\n        require(stakeSignatures[_signature] == false);\r\n        // Recreate the digest the user signed\r\n        bytes32 delegationDigest;\r\n        if (_signatureType == 2) {\r\n            delegationDigest = keccak256(\r\n                abi.encodePacked(\r\n                    DELEGATION_HASH_EIP712, keccak256(\r\n                        abi.encodePacked(\r\n                           address(this),\r\n                          _proposalId,\r\n                          _vote,\r\n                          _amount,\r\n                          _nonce)))\r\n            );\r\n        } else {\r\n            delegationDigest = keccak256(\r\n                abi.encodePacked(\r\n                    ETH_SIGN_PREFIX, keccak256(\r\n                        abi.encodePacked(\r\n                            address(this),\r\n                           _proposalId,\r\n                           _vote,\r\n                           _amount,\r\n                           _nonce)))\r\n            );\r\n        }\r\n        address staker = delegationDigest.recover(_signature);\r\n        //a garbage staker address due to wrong signature will revert due to lack of approval and funds.\r\n        require(staker!=address(0));\r\n        stakeSignatures[_signature] = true;\r\n        return _stake(_proposalId,_vote,_amount,staker);\r\n    }\r\n\r\n    /**\r\n     * @dev voting function\r\n     * @param _proposalId id of the proposal\r\n     * @param _vote NO(2) or YES(1).\r\n     * @return bool true - the proposal has been executed\r\n     *              false - otherwise.\r\n     */\r\n    function vote(bytes32 _proposalId, uint _vote,address _voter) external votable(_proposalId) returns(bool) {\r\n        Proposal storage proposal = proposals[_proposalId];\r\n        Parameters memory params = parameters[proposal.paramsHash];\r\n        address voter;\r\n        if (params.voteOnBehalf != address(0)) {\r\n            require(msg.sender == params.voteOnBehalf);\r\n            voter = _voter;\r\n        } else {\r\n            voter = msg.sender;\r\n        }\r\n        return internalVote(_proposalId, voter, _vote, 0);\r\n    }\r\n\r\n  /**\r\n   * @dev voting function with owner functionality (can vote on behalf of someone else)\r\n   * @return bool true - the proposal has been executed\r\n   *              false - otherwise.\r\n   */\r\n    function ownerVote(bytes32 , uint , address ) external returns(bool) {\r\n      //This is not allowed.\r\n        return false;\r\n    }\r\n\r\n    function voteWithSpecifiedAmounts(bytes32 _proposalId,uint _vote,uint _rep,uint,address _voter) external votable(_proposalId) returns(bool) {\r\n        Proposal storage proposal = proposals[_proposalId];\r\n        Parameters memory params = parameters[proposal.paramsHash];\r\n        address voter;\r\n        if (params.voteOnBehalf != address(0)) {\r\n            require(msg.sender == params.voteOnBehalf);\r\n            voter = _voter;\r\n        } else {\r\n            voter = msg.sender;\r\n        }\r\n        return internalVote(_proposalId,voter,_vote,_rep);\r\n    }\r\n\r\n  /**\r\n   * @dev Cancel the vote of the msg.sender.\r\n   * cancel vote is not allow in genesisProtocol so this function doing nothing.\r\n   * This function is here in order to comply to the IntVoteInterface .\r\n   */\r\n    function cancelVote(bytes32 _proposalId) external votable(_proposalId) {\r\n       //this is not allowed\r\n        return;\r\n    }\r\n\r\n  /**\r\n    * @dev getNumberOfChoices returns the number of choices possible in this proposal\r\n    * @param _proposalId the ID of the proposals\r\n    * @return uint that contains number of choices\r\n    */\r\n    function getNumberOfChoices(bytes32 _proposalId) external view returns(uint) {\r\n        return proposals[_proposalId].numOfChoices;\r\n    }\r\n\r\n    /**\r\n     * @dev voteInfo returns the vote and the amount of reputation of the user committed to this proposal\r\n     * @param _proposalId the ID of the proposal\r\n     * @param _voter the address of the voter\r\n     * @return uint vote - the voters vote\r\n     *        uint reputation - amount of reputation committed by _voter to _proposalId\r\n     */\r\n    function voteInfo(bytes32 _proposalId, address _voter) external view returns(uint, uint) {\r\n        Voter memory voter = proposals[_proposalId].voters[_voter];\r\n        return (voter.vote, voter.reputation);\r\n    }\r\n\r\n    /**\r\n    * @dev voteStatus returns the reputation voted for a proposal for a specific voting choice.\r\n    * @param _proposalId the ID of the proposal\r\n    * @param _choice the index in the\r\n    * @return voted reputation for the given choice\r\n    */\r\n    function voteStatus(bytes32 _proposalId,uint _choice) external view returns(uint) {\r\n        return proposals[_proposalId].votes[_choice];\r\n    }\r\n\r\n    /**\r\n    * @dev isVotable check if the proposal is votable\r\n    * @param _proposalId the ID of the proposal\r\n    * @return bool true or false\r\n    */\r\n    function isVotable(bytes32 _proposalId) external view returns(bool) {\r\n        return _isVotable(_proposalId);\r\n    }\r\n\r\n    /**\r\n    * @dev proposalStatus return the total votes and stakes for a given proposal\r\n    * @param _proposalId the ID of the proposal\r\n    * @return uint preBoostedVotes YES\r\n    * @return uint preBoostedVotes NO\r\n    * @return uint stakersStakes\r\n    * @return uint totalRedeemableStakes\r\n    * @return uint total stakes YES\r\n    * @return uint total stakes NO\r\n    */\r\n    function proposalStatus(bytes32 _proposalId) external view returns(uint, uint, uint ,uint, uint ,uint) {\r\n        return (\r\n                proposals[_proposalId].preBoostedVotes[YES],\r\n                proposals[_proposalId].preBoostedVotes[NO],\r\n                proposals[_proposalId].totalStakes[0],\r\n                proposals[_proposalId].totalStakes[1],\r\n                proposals[_proposalId].stakes[YES],\r\n                proposals[_proposalId].stakes[NO]\r\n        );\r\n    }\r\n\r\n  /**\r\n    * @dev getProposalOrganization return the organizationId for a given proposal\r\n    * @param _proposalId the ID of the proposal\r\n    * @return bytes32 organization identifier\r\n    */\r\n    function getProposalOrganization(bytes32 _proposalId) external view returns(bytes32) {\r\n        return (proposals[_proposalId].organizationId);\r\n    }\r\n\r\n    /**\r\n      * @dev getStaker return the vote and stake amount for a given proposal and staker\r\n      * @param _proposalId the ID of the proposal\r\n      * @param _staker staker address\r\n      * @return uint vote\r\n      * @return uint amount\r\n    */\r\n    function getStaker(bytes32 _proposalId,address _staker) external view returns(uint,uint) {\r\n        return (proposals[_proposalId].stakers[_staker].vote,proposals[_proposalId].stakers[_staker].amount);\r\n    }\r\n\r\n    /**\r\n      * @dev voteStake return the amount stakes for a given proposal and vote\r\n      * @param _proposalId the ID of the proposal\r\n      * @param _vote vote number\r\n      * @return uint stake amount\r\n    */\r\n    function voteStake(bytes32 _proposalId,uint _vote) external view returns(uint) {\r\n        return proposals[_proposalId].stakes[_vote];\r\n    }\r\n\r\n  /**\r\n    * @dev voteStake return the winningVote for a given proposal\r\n    * @param _proposalId the ID of the proposal\r\n    * @return uint winningVote\r\n    */\r\n    function winningVote(bytes32 _proposalId) external view returns(uint) {\r\n        return proposals[_proposalId].winningVote;\r\n    }\r\n\r\n    /**\r\n      * @dev voteStake return the state for a given proposal\r\n      * @param _proposalId the ID of the proposal\r\n      * @return ProposalState proposal state\r\n    */\r\n    function state(bytes32 _proposalId) external view returns(ProposalState) {\r\n        return proposals[_proposalId].state;\r\n    }\r\n\r\n   /**\r\n    * @dev isAbstainAllow returns if the voting machine allow abstain (0)\r\n    * @return bool true or false\r\n    */\r\n    function isAbstainAllow() external pure returns(bool) {\r\n        return false;\r\n    }\r\n\r\n    /**\r\n     * @dev getAllowedRangeOfChoices returns the allowed range of choices for a voting machine.\r\n     * @return min - minimum number of choices\r\n               max - maximum number of choices\r\n     */\r\n    function getAllowedRangeOfChoices() external pure returns(uint min,uint max) {\r\n        return (NUM_OF_CHOICES,NUM_OF_CHOICES);\r\n    }\r\n\r\n    /**\r\n      * @dev execute check if the proposal has been decided, and if so, execute the proposal\r\n      * @param _proposalId the id of the proposal\r\n      * @return bool true - the proposal has been executed\r\n      *              false - otherwise.\r\n     */\r\n    function execute(bytes32 _proposalId) external votable(_proposalId) returns(bool) {\r\n        return _execute(_proposalId);\r\n    }\r\n\r\n    /**\r\n     * @dev redeem a reward for a successful stake, vote or proposing.\r\n     * The function use a beneficiary address as a parameter (and not msg.sender) to enable\r\n     * users to redeem on behalf of someone else.\r\n     * @param _proposalId the ID of the proposal\r\n     * @param _beneficiary - the beneficiary address\r\n     * @return rewards -\r\n     *         rewards[0] - stakerTokenAmount\r\n     *         rewards[1] - stakerReputationAmount\r\n     *         rewards[2] - voterTokenAmount\r\n     *         rewards[3] - voterReputationAmount\r\n     *         rewards[4] - proposerReputationAmount\r\n     * @return reputation - redeem reputation\r\n     */\r\n    function redeem(bytes32 _proposalId,address _beneficiary) public returns (uint[5] rewards) {\r\n        Proposal storage proposal = proposals[_proposalId];\r\n        require((proposal.state == ProposalState.Executed) || (proposal.state == ProposalState.Closed),\"wrong proposal state\");\r\n        Parameters memory params = parameters[proposal.paramsHash];\r\n        uint amount;\r\n        uint reputation;\r\n        uint lostReputation;\r\n        if (proposal.winningVote == YES) {\r\n            lostReputation = proposal.preBoostedVotes[NO];\r\n        } else {\r\n            lostReputation = proposal.preBoostedVotes[YES];\r\n        }\r\n        lostReputation = (lostReputation * params.votersReputationLossRatio)/100;\r\n        //as staker\r\n        Staker storage staker = proposal.stakers[_beneficiary];\r\n        if ((staker.amount>0) &&\r\n             (staker.vote == proposal.winningVote)) {\r\n            uint totalWinningStakes = proposal.stakes[proposal.winningVote];\r\n            if (totalWinningStakes != 0) {\r\n                rewards[0] = (staker.amount * proposal.totalStakes[0]) / totalWinningStakes;\r\n            }\r\n            if (proposal.state != ProposalState.Closed) {\r\n                rewards[1] = (staker.amount * ( lostReputation - ((lostReputation * params.votersGainRepRatioFromLostRep)/100)))/proposal.stakes[proposal.winningVote];\r\n            }\r\n            staker.amount = 0;\r\n        }\r\n        //as voter\r\n        Voter storage voter = proposal.voters[_beneficiary];\r\n        if ((voter.reputation != 0 ) && (voter.preBoosted)) {\r\n            uint preBoostedVotes = proposal.preBoostedVotes[YES] + proposal.preBoostedVotes[NO];\r\n            if (preBoostedVotes>0) {\r\n                rewards[2] = ((proposal.votersStakes * voter.reputation) / preBoostedVotes);\r\n            }\r\n            if (proposal.state == ProposalState.Closed) {\r\n              //give back reputation for the voter\r\n                rewards[3] = ((voter.reputation * params.votersReputationLossRatio)/100);\r\n            } else if (proposal.winningVote == voter.vote ) {\r\n                rewards[3] = (((voter.reputation * params.votersReputationLossRatio)/100) +\r\n                (((voter.reputation * lostReputation * params.votersGainRepRatioFromLostRep)/100)/preBoostedVotes));\r\n            }\r\n            voter.reputation = 0;\r\n        }\r\n        //as proposer\r\n        if ((proposal.proposer == _beneficiary)&&(proposal.winningVote == YES)&&(proposal.proposer != address(0))) {\r\n            rewards[4] = (params.proposingRepRewardConstA.mul(proposal.votes[YES]+proposal.votes[NO]) + params.proposingRepRewardConstB.mul(proposal.votes[YES]-proposal.votes[NO]))/1000;\r\n            proposal.proposer = 0;\r\n        }\r\n        amount = rewards[0] + rewards[2];\r\n        reputation = rewards[1] + rewards[3] + rewards[4];\r\n        if (amount != 0) {\r\n            proposal.totalStakes[1] = proposal.totalStakes[1].sub(amount);\r\n            require(stakingToken.transfer(_beneficiary, amount));\r\n            emit Redeem(_proposalId,organizations[proposal.organizationId],_beneficiary,amount);\r\n        }\r\n        if (reputation != 0 ) {\r\n            VotingMachineCallbacksInterface(proposal.callbacks).mintReputation(reputation,_beneficiary,_proposalId);\r\n            emit RedeemReputation(_proposalId,organizations[proposal.organizationId],_beneficiary,reputation);\r\n        }\r\n    }\r\n\r\n    /**\r\n     * @dev redeemDaoBounty a reward for a successful stake, vote or proposing.\r\n     * The function use a beneficiary address as a parameter (and not msg.sender) to enable\r\n     * users to redeem on behalf of someone else.\r\n     * @param _proposalId the ID of the proposal\r\n     * @param _beneficiary - the beneficiary address\r\n     * @return redeemedAmount - redeem token amount\r\n     * @return potentialAmount - potential redeem token amount(if there is enough tokens bounty at the organization )\r\n     */\r\n    function redeemDaoBounty(bytes32 _proposalId,address _beneficiary) public returns(uint redeemedAmount,uint potentialAmount) {\r\n        Proposal storage proposal = proposals[_proposalId];\r\n        require((proposal.state == ProposalState.Executed) || (proposal.state == ProposalState.Closed));\r\n        uint totalWinningStakes = proposal.stakes[proposal.winningVote];\r\n        if (\r\n          // solium-disable-next-line operator-whitespace\r\n            (proposal.stakers[_beneficiary].amountForBounty>0)&&\r\n            (proposal.stakers[_beneficiary].vote == proposal.winningVote)&&\r\n            (proposal.winningVote == YES)&&\r\n            (totalWinningStakes != 0))\r\n        {\r\n            //as staker\r\n            Parameters memory params = parameters[proposal.paramsHash];\r\n            uint beneficiaryLimit = (proposal.stakers[_beneficiary].amountForBounty.mul(params.daoBountyParams[1])) / totalWinningStakes;\r\n            potentialAmount = (params.daoBountyParams[0].mul(proposal.stakers[_beneficiary].amountForBounty))/100;\r\n            if (potentialAmount > beneficiaryLimit) {\r\n                potentialAmount = beneficiaryLimit;\r\n            }\r\n        }\r\n        if ((potentialAmount != 0)&&\r\n            (VotingMachineCallbacksInterface(proposal.callbacks).balanceOfStakingToken(stakingToken,_proposalId) >= potentialAmount))\r\n        {\r\n            proposal.daoBountyRemain = proposal.daoBountyRemain.sub(potentialAmount);\r\n            require(VotingMachineCallbacksInterface(proposal.callbacks).stakingTokenTransfer(stakingToken,_beneficiary,potentialAmount,_proposalId));\r\n            proposal.stakers[_beneficiary].amountForBounty = 0;\r\n            redeemedAmount = potentialAmount;\r\n            emit RedeemDaoBounty(_proposalId,organizations[proposal.organizationId],_beneficiary,redeemedAmount);\r\n        }\r\n    }\r\n\r\n    /**\r\n     * @dev shouldBoost check if a proposal should be shifted to boosted phase.\r\n     * @param _proposalId the ID of the proposal\r\n     * @return bool true or false.\r\n     */\r\n    function shouldBoost(bytes32 _proposalId) public view returns(bool) {\r\n        Proposal memory proposal = proposals[_proposalId];\r\n        return (_score(_proposalId) >= threshold(proposal.paramsHash,proposal.organizationId));\r\n    }\r\n\r\n    /**\r\n     * @dev score return the proposal score\r\n     * @param _proposalId the ID of the proposal\r\n     * @return uint proposal score.\r\n     */\r\n    function score(bytes32 _proposalId) public view returns(int) {\r\n        return _score(_proposalId);\r\n    }\r\n\r\n    /**\r\n     * @dev getBoostedProposalsCount return the number of boosted proposal for an organization\r\n     * @param _organizationId the organization identifier\r\n     * @return uint number of boosted proposals\r\n     */\r\n    function getBoostedProposalsCount(bytes32 _organizationId) public view returns(uint) {\r\n        uint expiredProposals;\r\n        if (proposalsExpiredTimes[_organizationId].count() != 0) {\r\n          // solium-disable-next-line security/no-block-members\r\n            expiredProposals = proposalsExpiredTimes[_organizationId].rank(now);\r\n        }\r\n        return orgBoostedProposalsCnt[_organizationId].sub(expiredProposals);\r\n    }\r\n\r\n    /**\r\n     * @dev threshold return the organization's score threshold which required by\r\n     * a proposal to shift to boosted state.\r\n     * This threshold is dynamically set and it depend on the number of boosted proposal.\r\n     * @param _organizationId the organization identifier\r\n     * @param _paramsHash the organization parameters hash\r\n     * @return int organization's score threshold.\r\n     */\r\n    function threshold(bytes32 _paramsHash,bytes32 _organizationId) public view returns(int) {\r\n        uint boostedProposals = getBoostedProposalsCount(_organizationId);\r\n        int216 e = 2;\r\n\r\n        Parameters memory params = parameters[_paramsHash];\r\n        require(params.thresholdConstB > 0,\"should be a valid parameter hash\");\r\n        int256 power = int216(boostedProposals).toReal().div(int216(params.thresholdConstB).toReal());\r\n\r\n        if (power.fromReal() > 100 ) {\r\n            power = int216(100).toReal();\r\n        }\r\n        int256 res = int216(params.thresholdConstA).toReal().mul(e.toReal().pow(power));\r\n        return res.fromReal();\r\n    }\r\n\r\n    /**\r\n     * @dev hash the parameters, save them if necessary, and return the hash value\r\n     * @param _params a parameters array\r\n     *    _params[0] - _preBoostedVoteRequiredPercentage,\r\n     *    _params[1] - _preBoostedVotePeriodLimit, //the time limit for a proposal to be in an absolute voting mode.\r\n     *    _params[2] -_boostedVotePeriodLimit, //the time limit for a proposal to be in an relative voting mode.\r\n     *    _params[3] -_thresholdConstA\r\n     *    _params[4] -_thresholdConstB\r\n     *    _params[5] -_minimumStakingFee\r\n     *    _params[6] -_quietEndingPeriod\r\n     *    _params[7] -_proposingRepRewardConstA\r\n     *    _params[8] -_proposingRepRewardConstB\r\n     *    _params[9] -_stakerFeeRatioForVoters\r\n     *    _params[10] -_votersReputationLossRatio\r\n     *    _params[11] -_votersGainRepRatioFromLostRep\r\n     *    _params[12] - _daoBountyConst\r\n     *    _params[13] - _daoBountyLimit\r\n     * @param _voteOnBehalf - authorized to vote on behalf of others.\r\n    */\r\n    function setParameters(\r\n        uint[14] _params, //use array here due to stack too deep issue.\r\n        address _voteOnBehalf\r\n    )\r\n    public\r\n    returns(bytes32)\r\n    {\r\n        require(_params[0] <= 100 && _params[0] > 0,\"0 < preBoostedVoteRequiredPercentage <= 100\");\r\n        require(_params[4] > 0 && _params[4] <= 100000000,\"0 < thresholdConstB < 100000000 \");\r\n        require(_params[3] <= 100000000 ether,\"thresholdConstA <= 100000000 wei\");\r\n        require(_params[9] <= 100,\"stakerFeeRatioForVoters <= 100\");\r\n        require(_params[10] <= 100,\"votersReputationLossRatio <= 100\");\r\n        require(_params[11] <= 100,\"votersGainRepRatioFromLostRep <= 100\");\r\n        require(_params[2] >= _params[6],\"boostedVotePeriodLimit >= quietEndingPeriod\");\r\n        require(_params[7] <= 100000000,\"proposingRepRewardConstA <= 100000000\");\r\n        require(_params[8] <= 100000000,\"proposingRepRewardConstB <= 100000000\");\r\n        require(_params[12] <= (2 * _params[9]),\"daoBountyConst <= 2 * stakerFeeRatioForVoters\");\r\n        require(_params[12] >= _params[9],\"daoBountyConst >= stakerFeeRatioForVoters\");\r\n\r\n        bytes32 paramsHash = getParametersHash(_params, _voteOnBehalf);\r\n\r\n        uint[2] memory _daoBountyParams;\r\n        _daoBountyParams[0] = _params[12];\r\n        _daoBountyParams[1] = _params[13];\r\n\r\n        parameters[paramsHash] = Parameters({\r\n            preBoostedVoteRequiredPercentage: _params[0],\r\n            preBoostedVotePeriodLimit: _params[1],\r\n            boostedVotePeriodLimit: _params[2],\r\n            thresholdConstA:_params[3],\r\n            thresholdConstB:_params[4],\r\n            minimumStakingFee: _params[5],\r\n            quietEndingPeriod: _params[6],\r\n            proposingRepRewardConstA: _params[7],\r\n            proposingRepRewardConstB:_params[8],\r\n            stakerFeeRatioForVoters:_params[9],\r\n            votersReputationLossRatio:_params[10],\r\n            votersGainRepRatioFromLostRep:_params[11],\r\n            daoBountyParams:_daoBountyParams,\r\n            voteOnBehalf:_voteOnBehalf\r\n        });\r\n        return paramsHash;\r\n    }\r\n\r\n  /**\r\n   * @dev hashParameters returns a hash of the given parameters\r\n   */\r\n    function getParametersHash(\r\n        uint[14] _params,//use array here due to stack too deep issue.\r\n        address _voteOnBehalf\r\n    )\r\n        public\r\n        pure\r\n        returns(bytes32)\r\n        {\r\n        //double call to keccak256 to avoid deep stack issue when call with too many params.\r\n        return keccak256(\r\n            abi.encodePacked(\r\n             keccak256(\r\n              abi.encodePacked(\r\n                _params[0],\r\n                _params[1],\r\n                _params[2],\r\n                _params[3],\r\n                _params[4],\r\n                _params[5],\r\n                _params[6],\r\n                _params[7],\r\n                _params[8],\r\n                _params[9],\r\n                _params[10],\r\n                _params[11],\r\n                _params[12],\r\n                _params[13]\r\n             )),\r\n            _voteOnBehalf\r\n        ));\r\n    }\r\n\r\n    /**\r\n      * @dev execute check if the proposal has been decided, and if so, execute the proposal\r\n      * @param _proposalId the id of the proposal\r\n      * @return bool true - the proposal has been executed\r\n      *              false - otherwise.\r\n     */\r\n    function _execute(bytes32 _proposalId) internal votable(_proposalId) returns(bool) {\r\n        Proposal storage proposal = proposals[_proposalId];\r\n        Parameters memory params = parameters[proposal.paramsHash];\r\n        Proposal memory tmpProposal = proposal;\r\n        uint totalReputation = VotingMachineCallbacksInterface(proposal.callbacks).getTotalReputationSupply(_proposalId);\r\n        uint executionBar = totalReputation * params.preBoostedVoteRequiredPercentage/100;\r\n        ExecutionState executionState = ExecutionState.None;\r\n\r\n        if (proposal.state == ProposalState.PreBoosted) {\r\n            // solium-disable-next-line security/no-block-members\r\n            if ((now - proposal.submittedTime) >= params.preBoostedVotePeriodLimit) {\r\n                proposal.state = ProposalState.Closed;\r\n                proposal.winningVote = NO;\r\n                executionState = ExecutionState.PreBoostedTimeOut;\r\n             } else if (proposal.votes[proposal.winningVote] > executionBar) {\r\n              // someone crossed the absolute vote execution bar.\r\n                proposal.state = ProposalState.Executed;\r\n                executionState = ExecutionState.PreBoostedBarCrossed;\r\n               } else if ( shouldBoost(_proposalId)) {\r\n                //the proposal crossed its absolutePhaseScoreLimit or preBoostedVotePeriodLimit\r\n                //change proposal mode to boosted mode.\r\n                proposal.state = ProposalState.Boosted;\r\n                // solium-disable-next-line security/no-block-members\r\n                proposal.boostedPhaseTime = now;\r\n                proposalsExpiredTimes[proposal.organizationId].insert(proposal.boostedPhaseTime + proposal.currentBoostedVotePeriodLimit);\r\n                orgBoostedProposalsCnt[proposal.organizationId]++;\r\n              }\r\n           }\r\n\r\n        if ((proposal.state == ProposalState.Boosted) ||\r\n            (proposal.state == ProposalState.QuietEndingPeriod)) {\r\n            // solium-disable-next-line security/no-block-members\r\n            if ((now - proposal.boostedPhaseTime) >= proposal.currentBoostedVotePeriodLimit) {\r\n                proposalsExpiredTimes[proposal.organizationId].remove(proposal.boostedPhaseTime + proposal.currentBoostedVotePeriodLimit);\r\n                proposal.state = ProposalState.Executed;\r\n                orgBoostedProposalsCnt[tmpProposal.organizationId] = orgBoostedProposalsCnt[tmpProposal.organizationId].sub(1);\r\n                executionState = ExecutionState.BoostedTimeOut;\r\n             } else if (proposal.votes[proposal.winningVote] > executionBar) {\r\n               // someone crossed the absolute vote execution bar.\r\n                orgBoostedProposalsCnt[tmpProposal.organizationId] = orgBoostedProposalsCnt[tmpProposal.organizationId].sub(1);\r\n                proposalsExpiredTimes[proposal.organizationId].remove(proposal.boostedPhaseTime + proposal.currentBoostedVotePeriodLimit);\r\n                proposal.state = ProposalState.Executed;\r\n                executionState = ExecutionState.BoostedBarCrossed;\r\n            }\r\n       }\r\n        if (executionState != ExecutionState.None) {\r\n            if (proposal.winningVote == YES) {\r\n                uint daoBountyRemain = (params.daoBountyParams[0].mul(proposal.stakes[proposal.winningVote]))/100;\r\n                if (daoBountyRemain > params.daoBountyParams[1]) {\r\n                    daoBountyRemain = params.daoBountyParams[1];\r\n                }\r\n                proposal.daoBountyRemain = daoBountyRemain;\r\n            }\r\n            emit ExecuteProposal(_proposalId, organizations[proposal.organizationId], proposal.winningVote, totalReputation);\r\n            emit GPExecuteProposal(_proposalId, executionState);\r\n            ProposalExecuteInterface(proposal.callbacks).executeProposal(_proposalId,int(proposal.winningVote));\r\n        }\r\n        return (executionState != ExecutionState.None);\r\n    }\r\n\r\n    /**\r\n     * @dev staking function\r\n     * @param _proposalId id of the proposal\r\n     * @param _vote  NO(2) or YES(1).\r\n     * @param _amount the betting amount\r\n     * @return bool true - the proposal has been executed\r\n     *              false - otherwise.\r\n     */\r\n    function _stake(bytes32 _proposalId, uint _vote, uint _amount,address _staker) internal returns(bool) {\r\n        // 0 is not a valid vote.\r\n        require(_vote <= NUM_OF_CHOICES && _vote > 0);\r\n        require(_amount > 0);\r\n        if (_execute(_proposalId)) {\r\n            return true;\r\n        }\r\n\r\n        Proposal storage proposal = proposals[_proposalId];\r\n\r\n        if (proposal.state != ProposalState.PreBoosted) {\r\n            return false;\r\n        }\r\n\r\n        // enable to increase stake only on the previous stake vote\r\n        Staker storage staker = proposal.stakers[_staker];\r\n        if ((staker.amount > 0) && (staker.vote != _vote)) {\r\n            return false;\r\n        }\r\n\r\n        uint amount = _amount;\r\n        Parameters memory params = parameters[proposal.paramsHash];\r\n        require(amount >= params.minimumStakingFee);\r\n        require(stakingToken.transferFrom(_staker, address(this), amount));\r\n        proposal.totalStakes[1] = proposal.totalStakes[1].add(amount); //update totalRedeemableStakes\r\n        staker.amount += amount;\r\n        staker.amountForBounty = staker.amount;\r\n        staker.vote = _vote;\r\n\r\n        proposal.votersStakes += (params.stakerFeeRatioForVoters * amount)/100;\r\n        proposal.stakes[_vote] = amount.add(proposal.stakes[_vote]);\r\n        amount = amount - ((params.stakerFeeRatioForVoters*amount)/100);\r\n        proposal.totalStakes[0] = amount.add(proposal.totalStakes[0]);\r\n      // Event:\r\n        emit Stake(_proposalId, organizations[proposal.organizationId], _staker, _vote, _amount);\r\n      // execute the proposal if this vote was decisive:\r\n        return _execute(_proposalId);\r\n    }\r\n\r\n    /**\r\n     * @dev Vote for a proposal, if the voter already voted, cancel the last vote and set a new one instead\r\n     * @param _proposalId id of the proposal\r\n     * @param _voter used in case the vote is cast for someone else\r\n     * @param _vote a value between 0 to and the proposal's number of choices.\r\n     * @param _rep how many reputation the voter would like to stake for this vote.\r\n     *         if  _rep==0 so the voter full reputation will be use.\r\n     * @return true in case of proposal execution otherwise false\r\n     * throws if proposal is not open or if it has been executed\r\n     * NB: executes the proposal if a decision has been reached\r\n     */\r\n    function internalVote(bytes32 _proposalId, address _voter, uint _vote, uint _rep) private returns(bool) {\r\n        // 0 is not a valid vote.\r\n        require(_vote <= NUM_OF_CHOICES && _vote > 0,\"0 < _vote <= 2\");\r\n        if (_execute(_proposalId)) {\r\n            return true;\r\n        }\r\n\r\n        Parameters memory params = parameters[proposals[_proposalId].paramsHash];\r\n        Proposal storage proposal = proposals[_proposalId];\r\n\r\n        // Check voter has enough reputation:\r\n        uint reputation = VotingMachineCallbacksInterface(proposal.callbacks).reputationOf(_voter,_proposalId);\r\n        require(reputation >= _rep,\"reputation >= _rep\");\r\n        uint rep = _rep;\r\n        if (rep == 0) {\r\n            rep = reputation;\r\n        }\r\n        // If this voter has already voted, return false.\r\n        if (proposal.voters[_voter].reputation != 0) {\r\n            return false;\r\n        }\r\n        // The voting itself:\r\n        proposal.votes[_vote] = rep.add(proposal.votes[_vote]);\r\n        //check if the current winningVote changed or there is a tie.\r\n                //for the case there is a tie the current winningVote set to NO.\r\n        if ((proposal.votes[_vote] > proposal.votes[proposal.winningVote]) ||\r\n           ((proposal.votes[NO] == proposal.votes[proposal.winningVote]) &&\r\n             proposal.winningVote == YES))\r\n        {\r\n            // solium-disable-next-line security/no-block-members\r\n            uint _now = now;\r\n            if ((proposal.state == ProposalState.QuietEndingPeriod) ||\r\n               ((proposal.state == ProposalState.Boosted) && ((_now - proposal.boostedPhaseTime) >= (params.boostedVotePeriodLimit - params.quietEndingPeriod)))) {\r\n                //quietEndingPeriod\r\n                proposalsExpiredTimes[proposal.organizationId].remove(proposal.boostedPhaseTime + proposal.currentBoostedVotePeriodLimit);\r\n                if (proposal.state != ProposalState.QuietEndingPeriod) {\r\n                    proposal.currentBoostedVotePeriodLimit = params.quietEndingPeriod;\r\n                    proposal.state = ProposalState.QuietEndingPeriod;\r\n                }\r\n                proposal.boostedPhaseTime = _now;\r\n                proposalsExpiredTimes[proposal.organizationId].insert(proposal.boostedPhaseTime + proposal.currentBoostedVotePeriodLimit);\r\n            }\r\n            proposal.winningVote = _vote;\r\n        }\r\n        proposal.voters[_voter] = Voter({\r\n            reputation: rep,\r\n            vote: _vote,\r\n            preBoosted:(proposal.state == ProposalState.PreBoosted)\r\n        });\r\n        if (proposal.state == ProposalState.PreBoosted) {\r\n            proposal.preBoostedVotes[_vote] = rep.add(proposal.preBoostedVotes[_vote]);\r\n            uint reputationDeposit = (params.votersReputationLossRatio * rep)/100;\r\n            VotingMachineCallbacksInterface(proposal.callbacks).burnReputation(reputationDeposit,_voter,_proposalId);\r\n        }\r\n        // Event:\r\n        emit VoteProposal(_proposalId, organizations[proposal.organizationId], _voter, _vote, rep);\r\n        // execute the proposal if this vote was decisive:\r\n        return _execute(_proposalId);\r\n    }\r\n\r\n    /**\r\n     * @dev _score return the proposal score\r\n     * For dual choice proposal S = (S+) - (S-)\r\n     * @param _proposalId the ID of the proposal\r\n     * @return int proposal score.\r\n     */\r\n    function _score(bytes32 _proposalId) private view returns(int) {\r\n        Proposal storage proposal = proposals[_proposalId];\r\n        return int(proposal.stakes[YES]) - int(proposal.stakes[NO]);\r\n    }\r\n\r\n    /**\r\n      * @dev _isVotable check if the proposal is votable\r\n      * @param _proposalId the ID of the proposal\r\n      * @return bool true or false\r\n    */\r\n    function _isVotable(bytes32 _proposalId) private view returns(bool) {\r\n        ProposalState pState = proposals[_proposalId].state;\r\n        return ((pState == ProposalState.PreBoosted)||(pState == ProposalState.Boosted)||(pState == ProposalState.QuietEndingPeriod));\r\n    }\r\n\r\n    /**\r\n      * @dev isContract check if a given address is a contract address\r\n      * @param _addr the address to check.\r\n      * @return bool true or false\r\n    */\r\n    function isContract(address _addr) private view returns (bool) {\r\n        uint32 size;\r\n        // solium-disable-next-line security/no-inline-assembly\r\n        assembly {\r\n          size := extcodesize(_addr)\r\n        }\r\n        return (size > 0);\r\n    }\r\n\r\n}\r\n",
  "sourcePath": "D:\\projects\\gooddollar\\poc4\\daostack\\contracts\\votingMachines\\GenesisProtocol.sol",
  "compiler": {
    "name": "solc",
    "version": "0.4.25+commit.59dbf8f1.Emscripten.clang"
  },
  "schemaVersion": "3.0.0-beta.1",
  "updatedAt": "2018-11-11T12:31:53.372Z"
}